:020000040800F2
:100000000000022039200008DD1F0008DF1F000863
:10001000E11F0008E31F0008E51F000800000000C2
:10002000000000000000000000000000E71F0008C2
:10003000E91F000800000000EB1F000889200008ED
:1000400089200008892000088920000889200008EC
:1000500089200008892000088920000889200008DC
:1000600089200008892000088920000889200008CC
:1000700089200008892000088920000889200008BC
:10008000ED1F0008F91F00088920000889200008DA
:10009000892000088920000889200008892000089C
:1000A000892000088920000889200008892000088C
:1000B000892000088920000889200008892000087C
:1000C000892000088920000889200008892000086C
:1000D00089200008892000080520000889200008E0
:1000E000892000088920000889200008892000084C
:1000F000892000088920000889200008892000083C
:10010000892000088920000889200008892000082B
:100110008920000889200008112000088920000893
:10012000892000088920000889200008892000080B
:1001300089200008892000088920000889200008FB
:1001400089200008892000088920000889200008EB
:1001500089200008892000088920000889200008DB
:1001600089200008892000088920000889200008CB
:10017000892000088920000889200008000000006C
:08018000892000088920000815
:1001880010B5054C237833B9044B13B10448AFF3C9
:1001980000800123237010BD24000020000000000F
:1001A800E420000808B5034B1BB103490348AFF32B
:1001B800008008BD0000000028000020E42000089E
:1001C80053B94AB9002908BF00281CBF4FF0FF31B6
:1001D8004FF0FF3000F07AB9ADF1080C6DE904CEAC
:1001E80000F006F8DDF804E0DDE9022304B070470A
:1001F8002DE9F0478C460D460446089E002B51D148
:100208008A4217466DD9B2FA82FEBEF1000F0BD0B2
:10021800CEF1200C01FA0EF520FA0CFC02FA0EF7CA
:100228004CEA050C00FA0EF44FEA174A250CBCFB01
:10023800FAF81FFA87F90AFB18CC45EA0C4508FBBF
:1002480009F3AB420AD9ED1908F1FF3280F0238196
:10025800AB4240F22081A8F102083D44ED1AA4B255
:10026800B5FBFAF00AFB105544EA054400FB09F90E
:10027800A14509D9E41900F1FF3380F00A81A145AD
:1002880040F2078102383C44A4EB090440EA0840E4
:100298000021002E61D024FA0EF40023346073602C
:1002A800BDE8F0878B4207D9002E54D0002186E89C
:1002B80021000846BDE8F087B3FA83F1002940F031
:1002C8008E80AB4202D3824200F2FA80841A65EB38
:1002D80003050120AC46002E3FD086E81010BDE88B
:1002E800F08712B90127B7FBF2F7B7FA87FEBEF11C
:1002F800000F34D1EB1B3A0C1FFA87FC0121B3FB2A
:10030800F2F8250C02FB183345EA03450CFB08F309
:10031800AB4207D9ED1908F1FF3002D2AB4200F227
:10032800D1808046ED1AA3B2B5FBF2F002FB10555E
:1003380043EA05440CFB00FCA44507D9E41900F185
:10034800FF3302D2A44500F2B8801846A4EB0C048F
:1003580040EA08409DE731463046BDE8F087CEF1D7
:10036800200405FA0EF307FA0EF720FA04F83A0CFF
:1003780025FA04F448EA0308B4FBF2F14FEA1845F9
:1003880002FB11441FFA87FC45EA044501FB0CF304
:10039800AB4200FA0EF409D9ED1901F1FF3080F0F3
:1003A8008A80AB4240F2878002393D44EB1A1FFA3B
:1003B80088F5B3FBF2F002FB103345EA034500FB76
:1003C8000CF3AB4207D9ED1900F1FF386FD2AB42FD
:1003D8006DD902383D44EB1A40EA01418FE7C1F17B
:1003E800200722FA07F88B4005FA01F448EA0303CC
:1003F80020FA07FE4FEA134CFD404EEA040EB5FB07
:10040800FCF94FEA1E440CFB19551FFA83F844EA1D
:10041800054509FB08F4AC4202FA01F200FA01FAB8
:1004280008D9ED1809F1FF3043D2AC4241D9A9F1FE
:1004380002091D442D1B1FFA8EFEB5FBFCF00CFBB8
:1004480010554EEA054400FB08F8A04507D9E41802
:1004580000F1FF3529D2A04527D902381C4440EACB
:100468000940A4EB0804A0FB02894C45C6464D464A
:1004780015D312D056B1BAEB0E0364EB050404FA97
:1004880007F7CB401F43CC40376074600021BDE8BC
:10049800F0871846F8E69046E0E6C245EAD2B8EB9F
:1004A800020E69EB03050138E4E72846D7E7404622
:1004B80091E78146BEE7014678E702383C4445E7C4
:1004C800084608E7A8F102083D442BE7704700BF3B
:1004D80008B50B4B1A6842F400721A601A6842F4A5
:1004E80080621A601A6842F480721A60032000F071
:1004F8002FF8002001F030FD01F060FC002008BD5D
:10050800003C0240034A044B11681B780B441360FB
:10051800704700BF4000002000000020014B186811
:10052800704700BF4000002038B50446FFF7F6FFCB
:10053800631C1CBF054B1B78054618BFE418FFF762
:10054800EDFF401B8442FAD838BD00BF00000020F0
:10055800074AD36823F4E0631B041B0C43F0BF6312
:10056800000243F4003300F4E0600343D3607047B3
:1005780000ED00E0174B30B5DC68C4F30224C4F189
:100588000703251D042B28BF0423062D4FF0010562
:1005980005FA03F303F1FF338CBF033C0024194031
:1005A800A14005FA04F4013C2240002842EA010275
:1005B8004FEA0212ADBF00F1604000F00F00064B99
:1005C80000F56140B5BFD2B2D2B21A5480F8002308
:1005D80030BD00BF00ED00E014ED00E0002808DBAE
:1005E8004209012300F01F0003FA00F0014B43F811
:1005F8002200704700E100E00368DAB223F47F7359
:1006080023F003031821103AB2FBF1F20449032A3C
:1006180088BF0433895C8365C165806D704700BFFE
:10062800FC20000870B50446FFF778FF0546002C4B
:1006380071D0002384F834302268022384F83530DE
:10064800136823F00103136021680B68D8073CD4B2
:100658000B68324D6268A0691D40A3681343E268C5
:1006680013432269134362691343E2690343134343
:10067800226A1343626A042A43EA050301BF266B10
:10068800E56A35432B430B604B69042A23F00703C3
:1006980043EA02030BD1A26AE56A13433DB1F8B9F4
:1006A800012A2DD001D3022A01D1EA012BD44B61B2
:1006B8002046FFF7A1FFE26D3F23934083600020AF
:1006C8000123606584F8353070BDFFF727FF401BB4
:1006D8000528B9D920236365032084F8350070BD47
:1006E800B0F5005F13D1032AE1D801A050F822F039
:1006F8000F070008B30600080F07000809070008DD
:10070800B5F1C07FD3D1402363650120E5E7022A14
:10071800F9D9032AC8E7012070BD00BF3F8010F057
:1007280090F83530022B03D08023436501207047B1
:100738000268052380F83530136823F0010313603D
:1007480000207047F7B5002301935A4B856D1F6849
:10075800C36D2E6808229A40164204460CD00168E0
:100768000868400708D5086820F004000860AA60F7
:10077800626D42F00102626501229A40164208D079
:1007880021684969090641BFAA60626D42F0020208
:10079800626504229A40164208D0216809688807D1
:1007A80041BFAA60626D42F00402626510229A405D
:1007B800164210D02368196809070CD5AA601A6870
:1007C800500335D51B68190301D4236C00E0A36CD2
:1007D8000BB120469847E16D20228A40164238D056
:1007E80023681868C60634D5AA6094F83520052A07
:1007F8001A6825D122F016021A605A6922F080027E
:100808005A61226C0AB9A26C1AB11A6822F008025D
:100818001A603F238B40AB60002384F834300123F7
:1008280084F83530236D0BB12046984703B0F0BDEE
:100838001A68D2055EBF1A6822F008021A60C4E777
:10084800500328D51B68190332D4636C0BB12046BA
:100858009847636D002BE9D0636DDA0719D5052336
:10086800226884F83530136823F0010313604FF4CD
:100878001653B7FBF3F7019B01339F42019302D351
:100888001368DB07F7D4002384F83430012384F895
:100898003530E36CC7E71A6812F4807208D119681A
:1008A80021F010011960012384F8342084F83530D0
:1008B800E36BCBE7200000202DE9F04F85B00B68F3
:1008C800DFF8AC81684ADFF8AC910193002301247A
:1008D800019D9C402540AC4240F0B0804C6824F01B
:1008E800100C0CF1FF36012E4FEA430E12D8876820
:1008F800032606FA0EF627EA0607CE6806FA0EF66B
:100908003E4386604768C4F3001627EA05079E4001
:100918003E4346600326C76806FA0EF6F64307EA22
:10092800060A8F6807FA0EF747EA0A07BCF1020FB2
:10093800C76016D14FEAD30A00EB8A0A03F0070B07
:10094800DAF820704FEA8B0B4FF00F0C0CFA0BFC07
:1009580027EA0C0C0F6907FA0BF747EA0C07CAF8E5
:10096800207007683E4004F0030707FA0EFE4EEABF
:1009780006060660E60061D54FF0000BCDF80CB016
:10098800D8F84470394E47F48047C8F84470D8F80E
:10099800447007F480470397039F23F0030707F188
:1009A800804707F59C3703F0030CD7F808A04FEAF7
:1009B8008C0C4FF00F0E0EFA0CFEB0422AEA0E0E07
:1009C80043D006F58066B04241D006F58066B04255
:1009D8003FD006F58066B0423DD006F58066B0424D
:1009E8003BD048453BD006F50066B04239D006F505
:1009F8008066B04214BF0826072606FA0CF646EAB7
:100A08000E06BE601668EF4314F4803F0CBF3E40EC
:100A18002E431660566814F4003F0CBF3E402E4328
:100A28005660966814F4801F0CBF3E402E439660B3
:100A3800D668A40254BF3E402E43D6600133102B23
:100A48007FF445AF05B0BDE8F08F5E46D5E70126D7
:100A5800D3E70226D1E70326CFE70426CDE705260C
:100A6800CBE70626C9E700BF003C01400000024072
:100A780000380240001402400AB18161704709043D
:100A8800FBE700002DE9F341044608B901203FE0E7
:100A98000368DD0710D4236898075AD423681A0717
:100AA80000F19C8023685B0700F1BA80A0690028E8
:100AB80040F01B8100202BE0A44B9A6802F00C0246
:100AC800042A07D09A6802F00C02082A0AD15B6847
:100AD800590207D59D4B1B689A03DCD56368002B28
:100AE800D9D1D3E76368994DB3F5803F13D12B680B
:100AF80043F480332B60FFF711FD944D06462B68B5
:100B08009B03C8D4FFF70AFD801B6428F7D903208C
:100B180002B0BDE8F081B3F5A02F04D12B6843F4EF
:100B280080232B60E3E72A6822F480322A602A684F
:100B380022F480222A60002BDDD1FFF7EFFC064665
:100B48002B689F03A7D5FFF7E9FC801B6428F7D91A
:100B5800DDE77E4B9A6812F00C0F07D09A6802F016
:100B68000C02082A11D15B685E020ED4774B1A6812
:100B7800950702D5E268012A88D11A68216922F00E
:100B8800F80242EAC1021A6088E7E268704BB2B123
:100B980001221A60FFF7C2FC6C4D06462B689807C5
:100BA80007D52B68226923F0F80343EAC2032B60B8
:100BB80074E7FFF7B3FC801B0228EFD9A7E71A6098
:100BC800FFF7ACFC614D06462B6899077FF566AFC9
:100BD800FFF7A4FC801B0228F6D998E762695D4BF1
:100BE8007AB101221A60FFF799FC584D06466B6FDF
:100BF8009F073FF557AFFFF791FC801B0228F6D9F6
:100C080085E71A60FFF78AFC504D06466B6F980718
:100C18007FF548AFFFF782FC801B0228F6D976E7FC
:100C28004A4B1A6C12F0805228D101921A6C42F089
:100C380080521A641B6C03F080530193019B0126B8
:100C4800454D2B68D9051BD5A368404D012B27D1ED
:100C58002B6F43F001032B67FFF760FC3B4D074602
:100C680041F288382B6F9B0739D5002E3FF41EAF11
:100C7800364A136C23F08053136417E70026DFE726
:100C88002B6843F480732B60FFF748FC07462B68FA
:100C9800DA05D9D4FFF742FCC01B0228F7D936E79A
:100CA800052B04D12B6F43F004032B67D0E72A6F81
:100CB80022F001022A672A6F22F004022A67002B19
:100CC800CAD1FFF72BFC41F2883807462B6F9807EB
:100CD800CBD5FFF723FCC01B4045F7D917E7FFF733
:100CE8001DFCC01B4045BDD911E7184DAB6803F08A
:100CF8000C03082B47D0194E00230228336035D146
:100D0800FFF70CFC07462B68990129D4226AE3698E
:100D18001343626A43EA8213E26A43EA0263A26AFD
:100D28000A4C5208013A43EA02436B6001233360DC
:100D3800FFF7F4FB054623689A013FF5BBAEFFF7C2
:100D4800EDFB401B0228F6D9E1E600BF003802405F
:100D580000004742800E4742007000406000474252
:100D6800FFF7DCFBC01B0228CDD9D0E6FFF7D6FB86
:100D780004462B689B017FF59DAEFFF7CFFB001B58
:100D88000228F6D9C3E601283FF4C2AE6868E369D1
:100D980000F480029A427FF479AE226A00F03F03A1
:100DA80093427FF473AE626A47F6C073034093427E
:100DB8007FF46CAEA26A00F4403393427FF466AECF
:100DC800E36A00F07060C01A18BF0120A0E600BFF7
:100DD800134908B58B6803F00C03042B03D0082BC8
:100DE80003D0104808BD104808BD4A684B684968D8
:100DF80013F4800314BF0C480A48C1F3881118BFC4
:100E0800002302F03F02A1FB0001FFF7D9F9044BD0
:100E18005B68C3F3014301335B00B0FBF3F008BD2B
:100E2800003802400024F40040787D012DE9F041AB
:100E38000D46044610B90120BDE8F081444B1A68FC
:100E480002F00F028A4229D321688F072ED4C807DF
:100E580041D43F4B1A6802F00F02954267D32268CB
:100E680051076DD4130707D53A4A2169936823F4CB
:100E7800604343EAC1039360FFF7AAFF354B364A44
:100E88009B68C3F30313D35CD840344B1860344BCE
:100E9800186801F061F80020BDE8F081CAB21A7044
:100EA8001B6803F00F039942C5D1CDE7294B11F018
:100EB800040F1EBF9A6842F4E0529A600E0742BFC0
:100EC8009A6842F460429A609A68A06822F0F00238
:100ED80002439A60BBE762681E4B012A1DD11B685A
:100EE80013F4003FA7D01B4EB36823F0030313434A
:100EF800B360FFF713FB41F288380746B3686268AE
:100F080003F00C03B3EB820FA3D0FFF707FBC01B62
:100F18004045F3D90320BDE8F081911E01291B68E3
:100F280002D813F0007FDDE713F0020FDAE7EAB228
:100F38001A701B6803F00F039D427FF47CAF8EE7A5
:100F48000449E0688B6823F4E05303438B6089E726
:100F5800003C024000380240E94900082000002017
:100F680004000020044B054A9B68C3F38223D35C2A
:100F7800034A1068D840704700380240F949000811
:100F880020000020044B054A9B68C3F34233D35C1E
:100F9800034A1068D840704700380240F9490008F1
:100FA800200000200F2303600B4B9A6802F0030215
:100FB80042609A6802F0F00282609A6802F4E05295
:100FC800C2609B68DB0803F4E0530361034B1B68B2
:100FD80003F00F030B60704700380240003C0240EA
:100FE800F8B504460E4615461F4621688A6836EA53
:100FF800020301D00020F8BD6B1CF7D0FFF78EFA72
:10100800C01B8542F1D823685A6822F0E0025A6072
:101018006268B2F5827F0AD1A268B2F5004F02D0A9
:10102800B2F5806F03D11A6822F040021A60A26AF2
:10103800B2F5005F07D11A6822F400521A601A68E4
:1010480042F400521A60012384F85130002384F8D6
:1010580050300320F8BD000073B51346134A144EF0
:1010680015684268B5FBF6F64FF47A757543B2F524
:10107800827F044601950DD10A468021FFF7B0FF13
:1010880010B9002002B070BD636D43F020036365A2
:101098000320F7E7019B002BF3D0019B013B019351
:1010A80023689B681B06F5D4EBE700BF20000020EF
:1010B80000366E0110B50446002836D0002383623E
:1010C80090F8513003F0FF021BB980F8502000F06F
:1010D80091FE2168A068A269022384F851300B6848
:1010E80023F040030B6063680343E068034320690F
:1010F800034360690343E0690343206A0343A06A2A
:10110800034302F4007003430B60120C636A02F09D
:1011180004021A434A60CB6923F40063CB610020C0
:101128000123606584F8513010BD012010BD2DE900
:10113800F3411E4690F85030012B04460D46904668
:1011480000F09B80012380F85030FFF7E7F907464D
:1011580094F85100C0B2012840F08D80002D5DD078
:10116800B8F1000F5AD0032384F851300020A36847
:101178006065A063A4F83680A087E0876064206477
:1011880020682563B3F5004F08BF0368A4F83480CE
:1011980004BF43F48043036003685B065EBF0368D3
:1011A80043F040030360E368B3F5006F63683ED122
:1011B80013B1B8F1010F07D135F8023BC3602563BD
:1011C800E38E013B9BB2E386E38E9BB2A3B93A461A
:1011D80031462046FFF740FF002849D1A36833B9BC
:1011E80001932368DA6801929B680193019B606D03
:1011F800003018BF012011E022689368980705D5D0
:10120800236B33F8021BD1602363D9E7FFF786F914
:10121800C01BB042D8D3711CD6D00320012384F858
:101228005130002384F8503002B0BDE8F08113B18A
:10123800B8F1010F08D12B780373236B01332363B3
:10124800E38E013B9BB2E386E38E9BB2002BBED0BC
:1012580023689A68920703D5226B12781A73ECE711
:10126800FFF75CF9C01B8642EED8731CECD0D4E7BC
:1012780020236365B2E70220D0E70220D4E7704755
:101288000368DA6842F00102DA609A6802F007023D
:10129800062A1EBF1A6842F001021A600020704731
:1012A800704770477047704703681A69910710B50F
:1012B80004460ED5DA6892070BD56FF002021A6160
:1012C8009B6901229B07027777D0FFF7EAFF00238B
:1012D800237723681A69500710D5DA6851070DD5A6
:1012E8006FF004021A619B69022213F4407F22778F
:1012F800204668D0FFF7D5FF0023237723681A69B3
:1013080012070FD5DA6810070CD56FF008021A61BA
:10131800DB6904229907227720465AD0FFF7C1FFDC
:101328000023237723681A69D20610D5DA68D00615
:101338000DD56FF010021A61DB69082213F4407FA3
:10134800227720464BD0FFF7ACFF00232377236892
:101358001A69D10708D5DA68D20705D56FF00102F6
:101368001A61204600F01EFD23681A69100608D588
:10137800DA68110605D56FF080021A61204600F080
:10138800B6F823681A69520608D5DA68500605D5F2
:101398006FF040021A612046FFF785FF23681A693B
:1013A800910622D5DA6892061FD56FF020022046F2
:1013B8001A61BDE8104000F099B8FFF771FF2046A8
:1013C800FFF770FF83E7FFF76BFF2046FFF76AFF21
:1013D80092E7FFF765FF2046FFF764FFA0E7FFF7F6
:1013E8005FFF2046FFF75EFFAFE710BD304A036896
:1013F800904212D0B0F1804F0FD0A2F57C429042BB
:101408000BD002F58062904207D002F580629042CC
:1014180003D002F57842904219D14A6823F070034C
:101428001343234A904229D0B0F1804F26D0A2F529
:101438007C42904222D002F5806290421ED002F592
:10144800806290421AD002F57842904216D0194A2A
:10145800904213D002F5806290420FD002F580626C
:1014680090420BD0A2F59832904207D002F58062E4
:10147800904203D002F58062904203D1CA6823F4F7
:10148800407313434A6923F08003134303608B6856
:10149800C3620B688362064B984203D003F58063EE
:1014A800984201D10B69036301234361704700BF70
:1014B800000001400040014010B50446A0B190F87A
:1014C8003D3003F0FF021BB980F83C20FFF7D7FE40
:1014D800022384F83D302068211DFFF787FF012390
:1014E80084F83D30002010BD012010BD70477047C2
:1014F8000368DA6822F49072DA605A6922F001020D
:101508005A61202380F83A307047000038B50368E4
:10151800C1681A69044622F440520A431A612569CF
:10152800A268D968C0692A43656921F416412A432B
:1015380021F00C0102430A43DA605A69A16922F4D6
:1015480040720A43B0F5004F5A61254A29D19342A7
:1015580003D002F58062934220D1FFF713FD626841
:10156800256892184FF000034FF019015B41A0FB6A
:101578000101FEF725FE6421B0FBF1F401FB140321
:10158800DB003233B3FBF1F303F007025B0002EB3D
:10159800041203F4F8731344AB6038BDFFF7E2FCA0
:1015A800DDE7934202D00F4A934216D1FFF7EAFCD7
:1015B8006368256819219A00A0FB01019B0FFEF7BB
:1015C800FFFD6422B0FBF2F102FB11031B01323371
:1015D800B3FBF2F303EB0113DEE7FFF7C3FCE7E726
:1015E800001001400014014010B5044640B390F8C3
:1015F800393003F0FF021BB980F8382000F030FCC6
:101608002268242384F83930D36823F40053D36044
:101618002046FFF77BFF23681A6922F490421A617B
:101628005A6922F02A025A61DA6842F40052DA60F2
:1016380000202023E06384F8393084F83A3010BD64
:10164800012010BD7047704790F83A30222B10B532
:1016580036D1836801690268B3F5805F836A23D154
:101668005268E9B9C2F3080223F8022B8362C48DD9
:10167800013CA4B2C4858CB90368DA6822F0200260
:10168800DA60DA6822F48072DA605A6922F00102BC
:101698005A61202380F83A30FFF7D5FF002010BDAB
:1016A800D2B223F8012BE1E721B9591C52688162B3
:1016B8001A70DCE75268591C816202F07F02F7E772
:1016C800022010BD7047000003681A68D96870B519
:1016D800160704465D6907D196065CD58D065AD56E
:1016E800BDE87040FFF7B0BF15F0010502D111F455
:1016F800907F50D0D00705D5CB0542BFE36B43F0B0
:101708000103E363560704D51DB1E36B43F00203FD
:10171800E363900704D51DB1E36B43F00403E3636F
:10172800130706D58E0600D41DB1E36B43F00803FA
:10173800E363E36B002B66D0950604D5880602D5D3
:101748002046FFF781FF23685D69E26B1107204699
:1017580002D415F040051AD0FFF7CAFE23685A696B
:10176800520610D55A69606B22F040025A6150B196
:10177800254B0365FEF7D4FF002844D0606BBDE815
:101788007040036D18472046FFF79CFF70BDFFF7B8
:1017980099FFE56370BD160627D50D0625D594F883
:1017A8003920212A2FD1A268B2F5805F226A17D189
:1017B8001188C1F308015960216979B9023222629E
:1017C800E28C013A92B2E284EAB9DA6822F0800245
:1017D800DA60DA6842F04002DA6070BD0132EEE7A2
:1017E800511C216212785A60EAE750060BD54A0666
:1017F80009D5DA6822F04002DA60202384F839300B
:101808002046FFF71FFF70BD1518000808B5806B4C
:101818000023C385C384FFF755FF08BD00221021AC
:101828000148FFF729B900BF0000024013B502AC18
:10183800002204F8010D4FF480710648FFF71CF9E7
:101848004FF0FF33012221460348FFF770FC02B036
:1018580010BD00BF00080240A400002070B501229E
:1018680004460D4606484FF48071FFF705F9AAB201
:1018780021464FF0FF330348BDE87040FFF757BCDF
:1018880000080240A4000020F8B50578461C05B9F8
:10189800F8BD344614F8020BFFF7C8FF767816F047
:1018A8007F0704D020463946FFF7D8FF3C4433066B
:1018B80008D52078FF2808BF4FF4FA70FEF734FEE9
:1018C800661C3446013DEDB22646E0E7F7B507460B
:1018D8002A2016461C460D46FFF7A8FF00218DF862
:1018E80004108DF8061004210DEB01008DF8057029
:1018F8008DF80760FFF7B2FF2B20FFF797FF042151
:101908000DEB01008DF805508DF80740FFF7A6FF95
:101918002C20FFF78BFF03B0F0BD0000012210213F
:101928000148FFF7A9B800BF000002402DE9F341C4
:101938001C468318802B154601EB0403C4BFC0F175
:101948008005ADB2A02BC8BFC1F1A0040F46064662
:10195800C8BFA4B2BDF82080FFF760FFF9B2F0B2AB
:101968004B1E421E23442A44DBB2D2B2FFF7AEFF1D
:101978004FEA182301224FF480710F488DF8043084
:101988008DF80580FFF778F80C4F7CB12E4608E0FB
:101998004FF0FF33022201A93846FFF7C8FB013E8A
:1019A800B6B2002EF4D1013CA4B2EEE7FFF7B6FFC1
:1019B80002B0BDE8F08100BF00080240A40000208A
:1019C80010B50E4CFFF72AFF002202212046FFF730
:1019D80053F80520FEF7A8FD012202212046FFF753
:1019E8004BF80748FFF750FF0648FFF74DFF06483A
:1019F800FFF74AFFBDE81040FFF790BF000C024018
:101A080018490008534900086049000882B02DE9C8
:101A1800F04F89B01446BDF858A0BDF85490139300
:101A28005FFA83F8C3F3072705460E46FFF7F6FE6D
:101A38004FEA1A2305934FEA192304930194019B53
:101A480013F8014B019334B9FFF768FF09B0BDE8FB
:101A5800F04F02B0704705EB08037F2B08DD3E44CA
:101A6800B6B2F3199F2BEFDC202C4FF00005E6D01F
:101A7800E8B2F1B27B1E08F1FF32DDF850B00B443A
:101A88000244203CDBB2D2B27C43FFF71FFF0BEBD2
:101A9800440302934FF0000BBB4502D34544ADB25B
:101AA800CDE7029B33F81B3003930024444502D34F
:101AB8000BF1010BF0E7039B03FA04F10B044ABF97
:101AC8009DF810309DF814308DF81C304FF002014D
:101AD80007A84EBF8DF81D908DF81C308DF81DA0FD
:101AE8000134FFF7BBFEE1E707B500210090A02312
:101AF80080220846FFF71AFF03B05DF804FB0000D8
:101B080030B595B03022002108A800F0DFFA002196
:101B1800142203A800F0DAFA00241C4B01941A6C72
:101B280042F080521A641B6C03F080530193019BAE
:101B3800174B02941A6842F480421A601B680F948B
:101B480003F480430293029B01230B9310230C930D
:101B58000823109364230225119308A804231393E0
:101B680008950E951295FEF78DFF0F2303934FF4FA
:101B7800A053069303214FF4805303A804950594BA
:101B88000793FFF753F915B030BD00BF0038024086
:101B98000070004080B58CB00024744DFEF798FCAE
:101BA800FFF7AEFF1422002107A800F08FFA049473
:101BB8002B6B6F4843F001032B632B6B03F001037E
:101BC8000493049B05942B6B43F008032B632B6B46
:101BD80003F008030593059B06942B6B43F004035D
:101BE8002B632B6B03F00403069301221021069B41
:101BF800FEF742FF22464FF202015E48FEF73CFF25
:101C080022464FF480715C48FEF736FF0126102704
:101C18004FF0030807A95648089607970994CDF886
:101C28002880FEF749FE4FF4704307A951480793EF
:101C3800089609940A94FEF73FFE4FF4807307A9AB
:101C48004D48079308960994CDF82880FEF734FE8E
:101C5800022307A94748079308960A930994FEF7B1
:101C68002BFE07942B6B43F400132B632B6B03F4AD
:101C780000132246214607933846079BFEF77AFC55
:101C88003846FEF7ABFC214622461120FEF772FCCF
:101C98001120FEF7A3FC3948394A84604FF4E13338
:101CA80080E80C000C234361C46004618461C46152
:101CB800FFF79AFC33483449C4604FF482734FF4F9
:101CC800004580E82A004FF4007383610A23C36249
:101CD80004614461C461046244628462FFF7EAF902
:101CE800FFF76EFE4FF478461F254FF47840FFF754
:101CF800FBFEC820FEF718FC1F20FFF7F5FEC820E2
:101D0800FEF712FC4FF4FC60FFF7EEFEC820FEF76A
:101D18000BFC0020FFF7E8FE00241C4B0294019600
:101D28005A680092214620461B68194AFFF76EFE42
:101D3800184B02944FF4FC6201925A6800922046B4
:101D48001B68154A1E21FFF761FE144B029401958A
:101D58005A68009220461B68114A5421FFF756FE24
:101D680042F21070FEF7E0FBBFE700BF0038024008
:101D780000000240000C0240000802405C01002004
:101D880000440040A4000020003C0040180000204F
:101D98008B49000808000020BF49000810000020F7
:101DA800DE4900080268034B9A4201D1FEF7AABB3C
:101DB800704700BF001000407047000082B00C4B15
:101DC800002100915A6C42F480425A645A6C02F421
:101DD80080420092009A01911A6C42F080521A6473
:101DE8001B6C03F080530193019B02B0704700BF46
:101DF8000038024010B5044688B01422002103A818
:101E080000F064F92268144B9A4223D103F5FE339B
:101E1800002101911A6C114842F400421A641A6CAC
:101E280002F400420192019A02911A6B42F00402F4
:101E38001A631B6B03F004030293029B4FF4A05335
:101E48000393022304930323069303A9062307930A
:101E5800FEF732FD08B010BD003C0040000802400B
:101E680070B5064688B01422002103A800F02EF9A8
:101E78003268334B9A4260D1002503F5FA33019555
:101E88001A6C3048304C42F400321A641A6C02F46E
:101E980000320192019A02951A6B42F001021A630C
:101EA8001B6B03F001030293029B0C230393022391
:101EB80004930323069303A907230793FEF7FCFC67
:101EC800224BE5604FF0006C4FF0400E84E808505C
:101ED8004FF48063236120464FF480336561A56128
:101EE800E56123626562FEF79DFB08B1FFF764FFB9
:101EF80034631748A663174C4FF000634FF48062B1
:101F080084E80900226100234FF480322046A36050
:101F1800E3606361A361E36122626362FEF782FBAF
:101F280008B1FFF749FF0022746326201146A66313
:101F3800FEF720FB2620FEF751FB08B070BD00BF5E
:101F48000044004000000240FC000020A060024065
:101F5800886002404400002030B5014689B0002264
:101F68003620FEF707FB3620FEF738FB0025154B19
:101F780002951A6C144C42F010021A641B6C03F0A0
:101F88001003029301A903A8029BFFF70BF8FEF7C1
:101F9800E9FF0E4B236040F2E733E36040000C4B4F
:101FA800B0FBF3F00138606020462561A560FFF7BB
:101FB80083FA20B92046FFF763F909B030BD012044
:101FC800FBE700BF00380240A001002000100040DD
:101FD80040420F007047FEE7FEE7FEE7FEE7704766
:101FE800704770470148FEF7ADBB00BF44000020B2
:101FF8000148FEF7A7BB00BFFC0000200148FFF71F
:1020080063BB00BF5C0100200148FFF74DB900BF6A
:10201800A0010020054BD3F8882042F47002C3F8D1
:1020280088204FF000629A60704700BF00ED00E022
:10203800DFF834D0002103E00C4B5B5843500431E7
:102048000B480C4B42189A42F6D30B4A02E0002385
:1020580042F8043B094B9A42F9D3FFF7DBFF00F043
:1020680011F8FFF797FD704700000220144A000896
:10207800000000202400002024000020E0010020AF
:10208800FEE7000070B50D4E0D4CA41BA4100025F2
:10209800A54209D10B4E0C4C00F020F8A41BA4104B
:1020A8000025A54205D170BD56F825309847013561
:1020B800EEE756F8253098470135F2E70C4A000854
:1020C8000C4A00080C4A0008104A0008024403465B
:1020D800934200D1704703F8011BF9E7F8B500BF38
:1020E800F8BC08BC9E467047F8B500BFF8BC08BCF1
:0420F8009E46704749
:1020FC00000610160006101600000000000000007C
:10210C0000000000000000000000000000000000C3
:10211C000000000000000000000000000000000CA7
:10212C00000C000C000C000C000C000C000C000C43
:10213C00000C000C0000000C000C00000000000063
:10214C000000001B001B001B001B001B00000000FC
:10215C000000000000000000000000000000000073
:10216C000000000000008019801980198019C07FC0
:10217C00C07F80190033C07FC07F00330033003331
:10218C0000330000000000000000001E003F8075BE
:10219C0080650074003C001E00078005806580652A
:1021AC008075003F001E0004000400000000007059
:1021BC0000D840D8C0D880D900730006000C801B12
:1021CC00C036C066C046C006800300000000000098
:1021DC000000001E003F003300330033001E000CD3
:1021EC00C03CC066806380618063C03E801C000080
:1021FC00000000000000000C000C000C000C000C97
:10220C0000000000000000000000000000000000C2
:10221C000000000000000000800000010003000628
:10222C0000060004000C000C000C000C000C000C50
:10223C0000040006000600030001800000200010CE
:10224C000018000C000C0004000600060006000636
:10225C00000600060004000C000C00180010002002
:10226C000000000C002D003F001E00330000000099
:10227C000000000000000000000000000000000052
:10228C0000000000000000000000000C000C000C1E
:10229C00000CC0FFC0FF000C000C000C000C000078
:1022AC000000000000000000000000000000000022
:1022BC000000000000000000000000000000000012
:1022CC000000000C000C00040004000800000000DA
:1022DC000000000000000000000000000000001ED4
:1022EC00001E0000000000000000000000000000C4
:1022FC0000000000000000000000000000000000D2
:10230C0000000000000000000000000C000C0000A9
:10231C00000000000000000300030003000600069C
:10232C0000060006000C000C000C000C0018001835
:10233C0000180000000000000000001E003F0033E9
:10234C00806180618061806D806D80618061806161
:10235C000033003F001E00000000000000000006DB
:10236C00000E001E003600260006000600060006C1
:10237C000006000600060006000600000000000033
:10238C000000001E003F80738061806180010003AB
:10239C000006000C001800300060807F807F000079
:1023AC00000000000000001C003E006300630003FE
:1023BC00000E000E00038001800180618073003FDD
:1023CC00001E00000000000000000006000E000EC1
:1023DC00001E001E0016003600360066807F807FCF
:1023EC000006000600060000000000000000007F50
:1023FC00007F006000600060006E007F80638001E1
:10240C00800180618073003F001E0000000000000E
:10241C000000001E003F803380610060006E007F72
:10242C0080738061806180618033003F001E0000FA
:10243C00000000000000807F807F8001000300030B
:10244C0000060006000C000C000C00080018001818
:10245C0000180000000000000000001E003F806318
:10246C00806180610021001E003F8061806180617D
:10247C008061003F001E0000000000000000001EF4
:10248C00003F00738061806180618073803F801D9C
:10249C00800180610073003F001E000000000000FE
:1024AC0000000000000000000000000C000C000008
:1024BC0000000000000000000000000C000C0000F8
:1024CC000000000000000000000000000000000000
:1024DC00000C000C00000000000000000000000CCC
:1024EC00000C0004000400080000000000000000C4
:1024FC0080008003000E003800600038000E80035E
:10250C00800000000000000000000000000000003F
:10251C00000000000000807F807F00000000807FB2
:10252C00807F0000000000000000000000000000A0
:10253C00000000000000000000400070001C0007BC
:10254C0080010007001C007000400000000000002B
:10255C00000000000000001F803FC071C060C00080
:10256C00C00180030007000E000C000C0000000CE2
:10257C00000C0000000000000000001E003F803135
:10258C0080718063806F806D806D806F806700606C
:10259C000032003E001C0000000000000000000E95
:1025AC00000E001B001B001B001B80318031803F84
:1025BC00803F8031C060C060C0600000000000003F
:1025CC000000007C007E0063006300630063007EFB
:1025DC00007E0063806180618063007F007E00006C
:1025EC00000000000000001E003F80318061006090
:1025FC000060006000600060006080618031003F1E
:10260C00001E0000000000000000007C007F006342
:10261C008063806180618061806180618061006322
:10262C000063007E007C0000000000000000807F42
:10263C00807F0060006000600060007F007F0060B1
:10264C00006000600060807F807F00000000000060
:10265C000000807F807F0060006000600060007F71
:10266C00007F00600060006000600060006000009F
:10267C00000000000000001E003F803180610060FF
:10268C000060006080638063806180618031803F86
:10269C00001E00000000000000008061806180616D
:1026AC00806180618061807F807F806180618061DA
:1026BC008061806180610000000000000000003F2C
:1026CC00003F000C000C000C000C000C000C000C6B
:1026DC00000C000C000C003F003F0000000000004C
:1026EC000000800180018001800180018001800157
:1026FC0080018001806180618073003F001E0000BA
:10270C00000000000000C06080610063006600668D
:10271C00006C0078007C006600660063806180615C
:10272C00C06000000000000000000060006000605D
:10273C00006000600060006000600060006000608D
:10274C000060807F807F0000000000000000C071EE
:10275C00C071C07BC07AC06AC06AC06EC064C06001
:10276C00C060C060C060C060C060000000000000BD
:10277C00000080718071807980798079806D806DA6
:10278C00806D8065806780678067806380630000F0
:10279C00000000000000001E003F003380618061DB
:1027AC008061806180618061806180610033003F65
:1027BC00001E0000000000000000007E007F80630F
:1027CC008061806180618063007F007E00600060BA
:1027DC000060006000600000000000000000001EAF
:1027EC00003F003380618061806180618061806125
:1027FC00806580670033803F401E000000000000B1
:10280C000000007E007F8063806180618063007FB8
:10281C00007E00660063006380618061C060000020
:10282C00000000000000000E001F803180310030DD
:10283C000038001E00078003806180618031003FFA
:10284C00001E0000000000000000C0FFC0FF000CD4
:10285C00000C000C000C000C000C000C000C000C0C
:10286C00000C000C000C0000000000000000806157
:10287C008061806180618061806180618061806144
:10288C00806180618073003F001E0000000000002A
:10289C000000C060C060C060803180318031001B9E
:1028AC00001B001B001B000E000E000E000400009D
:1028BC00000000000000C0C0C0C0C0C0C0C0C0C08C
:1028CC00C0CC804C804C805E805280528073806182
:1028DC0080610000000000000000C0C080608061CA
:1028EC000033003B001E000C000C001E001F003BC0
:1028FC0080718061C0C00000000000000000C0C0FA
:10290C008061806100330033001E001E000C000C3F
:10291C00000C000C000C000C000C0000000000006F
:10292C000000803F803F8001000300030006000C84
:10293C00000C0018001800300060807F807F0000C1
:10294C0000000000000F000F000C000C000C000C2D
:10295C00000C000C000C000C000C000C000C000C0B
:10296C00000C000C000F000F0000001800180018DD
:10297C00000C000C000C000C000600060006000603
:10298C00000300030003000000000000001E001EF6
:10299C0000060006000600060006000600060006FB
:1029AC00000600060006000600060006001E001EBB
:1029BC000000000C000C001E00120033003380617C
:1029CC00806100000000000000000000000000001A
:1029DC0000000000000000000000000000000000EB
:1029EC0000000000000000000000000000000000DB
:1029FC0000000000E0FF0000000000380018000C90
:102A0C0000000000000000000000000000000000BA
:102A1C0000000000000000000000000000000000AA
:102A2C00000000000000001F803F80618001801FBB
:102A3C00803F80618063807FC03800000000000010
:102A4C0000000060006000600060006E007F80731A
:102A5C0080618061806180618073007F006E000006
:102A6C000000000000000000000000000000001E3C
:102A7C00003F807380610060006080618073003F64
:102A8C00001E000000000000000080018001800199
:102A9C008001801D803F80738061806180618061D6
:102AAC008073803F801D00000000000000000000CB
:102ABC00000000000000001E003F00738061807F5A
:102ACC00807F00608071003F001E0000000000004D
:102ADC000000C007C00F000C000C807F807F000C32
:102AEC00000C000C000C000C000C000C000C000086
:102AFC00000000000000000000000000801D803F6E
:102B0C00807380618061806180618073803F801DF3
:102B1C0080018063007F003E000000600060006068
:102B2C000060006F807F8071806180618061806156
:102B3C0080618061806100000000000000000006E0
:102B4C00000600000000003E003E000600060006E5
:102B5C00000600060006000600060000000000004B
:102B6C000006000600000000003E003E00060006C5
:102B7C0000060006000600060006000600060046D9
:102B8C00007E003C0000006000600060006080611E
:102B9C0000630066006C007C00760063006380615B
:102BAC00C0600000000000000000003E003E000677
:102BBC0000060006000600060006000600060006D9
:102BCC0000060006000600000000000000000000E7
:102BDC0000000000000080DDC0FFC0CEC0CCC0CC27
:102BEC00C0CCC0CCC0CCC0CCC0CC0000000000001D
:102BFC0000000000000000000000006F807F80716A
:102C0C008061806180618061806180618061000091
:102C1C000000000000000000000000000000001E8A
:102C2C00003F807380618061806180618073003FB0
:102C3C00001E00000000000000000000000000006A
:102C4C00006E007F80738061806180618061807321
:102C5C00007F006E006000600060006000000000FB
:102C6C0000000000801D803F807380618061806166
:102C7C0080618073803F801D800180018001800114
:102C8C00000000000000000000000067803F0039D9
:102C9C0000300030003000300030003000300000D8
:102CAC000000000000000000000000000000001EFA
:102CBC00803F80610060007F803F80018061007FE9
:102CCC00001E0000000000000000000000080018BA
:102CDC000018007F007F001800180018001800185A
:102CEC000018801F800F0000000000000000000092
:102CFC000000000000008061806180618061806163
:102D0C00806180618063807F803D00000000000056
:102D1C0000000000000000000000C0608031803125
:102D2C008031001B001B001B000E000E0006000073
:102D3C00000000000000000000000000000080DD2A
:102D4C0080DD80DD005500550055007700770022AE
:102D5C000022000000000000000000000000000045
:102D6C000000806100330033001E000C000C001EBC
:102D7C000033003380610000000000000000000000
:102D8C000000000080618061803100330033001B43
:102D9C00001B001B000E000E000E001C007C0070BF
:102DAC0000000000000000000000C07FC07F800118
:102DBC0000030006000C00180030C07FC07F00002C
:102DCC0000000000800380070006000600060006D5
:102DDC000006000E001C001C000E0006000600067B
:102DEC0000060006800780030006000600060006A9
:102DFC000006000600060006000600060006000697
:102E0C000006000600060006000600060038003C1E
:102E1C00000C000C000C000C000C000E000700074E
:102E2C00000E000C000C000C000C000C003C0038D8
:102E3C0000000000000000000000000000008038CE
:102E4C00807F004700000000000000000000000030
:102E5C000000000000000000000000000000000066
:102E6C000000000000000000000000000000000056
:102E7C000000000000000000000000000000000046
:102E8C000000000000000000E003E003E003E003AA
:102E9C00E003E003E003E003C003C003C001C00192
:102EAC00C001C001C001000000000000E003E0030D
:102EBC00E003000000000000000000003C1E3C1E6F
:102ECC003C1E3C1E3C1E3C1E3C1E00000000000034
:102EDC0000000000000000000000000000000000E6
:102EEC0000000000000000000000000000000000D6
:102EFC00CE01CE03DE039E039C039C07FF3FFF7FA6
:102F0C003807380F780F780F780EFFFFFFFFF01E91
:102F1C00F01CE01CE03CE03DE0390000000000004B
:102F2C0000000000FC03FE0FEE1FE01EE01EE01E82
:102F3C00E01EE01FE00FE007F003FC01FE01FE01C4
:102F4C00FE01FE01FE01FE01FE3DFC3FF00FE00123
:102F5C00E001000000000000033E07F78FE78EE75A
:102F6C009EE3BCE3B8E7F8E7F0F7E03FC001FF03EE
:102F7C00FF07F307F30FF31EF33CF338F3787FF0FE
:102F8C003FE000000000000000000000E007F80F28
:102F9C00780F781F781F781F780FF00FE00F801FC5
:102FAC00C37FC3FBE7F3F7F1F7F0FFF07FF03EF8D8
:102FBC007F7CFF3FEF1F00000000000000000000BE
:102FCC00E003E003E003E003E003C003C001000002
:102FDC0000000000000000000000000000000000E5
:102FEC0000000000000000000000000000000000D5
:102FFC00000000003F007C00F001E001C003C007AE
:10300C0080078007800F000F000F000F000F000FCC
:10301C00000F800F80078007C007C003E001F0019C
:10302C007C003F000F000000007E001FC007C003A3
:10303C00E001F001F000F000F80078007800780072
:10304C00780078007800F800F000F000F001E00162
:10305C00C003C007001F007E00780000E003C0031F
:10306C00C001CE39FF3F7F3F20037003F807780F74
:10307C003C1F3806000000000000000000000000AB
:10308C000000000000000000000000000000000034
:10309C00000000000000000000000000C001C001A2
:1030AC00C001C001C001C001C001FFFFFFFFC00192
:1030BC00C001C001C001C001C0010000000000003F
:1030CC0000000000000000000000000000000000F4
:1030DC0000000000000000000000000000000000E4
:1030EC00000000000000E003E003E003E003E00167
:1030FC00E001E001C00180030000000000000000BE
:10310C000000000000000000000000000000FE3F76
:10311C00FE3F000000000000000000000000000066
:10312C000000000000000000000000000000000093
:10313C000000000000000000000000000000000083
:10314C000000000000000000000000000000E00390
:10315C00E003E003E00300000000000000000000BA
:10316C000F000F001E001E003C003C007800780091
:10317C00F000F000E001E001C003C003800780070D
:10318C00000F000F001E001E003C003C0078007871
:10319C0000F00000F007F80F7C1F3E3E1E3C1F7C29
:1031AC001F7C0F780F780F780F780F780F780F78C7
:1031BC001F7C1F7C1E3C3E3E7C1FF80FF00700005E
:1031CC000000000000000000F000F007F03FF03FAE
:1031DC00F001F001F001F001F001F001F001F0015B
:1031EC00F001F001F001F001F001F001F001FF3FFE
:1031FC00FF3F00000000000000000000E00FF83F5F
:10320C007C3C3C003E003E003E003C003C007C0010
:10321C00F800F001E003C0078007000F001E003E1D
:10322C00003CFE3FFE3F00000000000000000000DC
:10323C00F00FF81F7C1C3E003E003E003C003C00A2
:10324C00F800F00FF80F7C003E001E001E001E0060
:10325C001E003E007C1CF81FE01F00000000000058
:10326C00000000007800F800F800F801F803F807F7
:10327C00F807780F781E781E783C78787878FFFFFE
:10328C00FFFF780078007800780078007800000064
:10329C000000000000000000FC1FFC1FFC1F001EB3
:1032AC00001E001E001E001EE01FF81FFC007C000C
:1032BC003E003E001E003E003E003C007C1CF81F01
:1032CC00E01F00000000000000000000FC01FE07F1
:1032DC008E0F001F001E003E003C003CF83DFC3FE2
:1032EC003E7F1F7E0F3C0F3C0F3C0F3C0F3E1F1EC2
:1032FC003E1FFC0FF0030000000000000000000067
:10330C00FF3FFF3FFF3F0F001E001E003C00380038
:10331C007800F000F000E001E001C003C00380077A
:10332C00800F800F000F001F001F00000000000026
:10333C0000000000F807FC0F3E1F1E1E1E3E1E3E26
:10334C001E1E3C1FF80FF007F80FFC1E3E3E1F3CE4
:10335C001F7C0F7C0F7C1F3C3E3FFC1FF0070000C6
:10336C000000000000000000F007F80F7C1E3E3C3F
:10337C001E3C1F7C1F7C1F7C1F7C1F3C3F3EFF1F85
:10338C00EF071F001E001E003E003C00F838F03F07
:10339C00E01F000000000000000000000000000022
:1033AC000000000000000000E003E003E003E00385
:1033BC000000000000000000000000000000E0031E
:1033CC00E003E003E0030000000000000000000048
:1033DC00000000000000000000000000E003E0031B
:1033EC00E003E0030000000000000000000000000B
:1033FC000000E003E003E003E003E001E001E00192
:10340C00C00380030000000000000000000000006A
:10341C0003000F003F00FC00F003C00F003F00FE54
:10342C00003FC00FF003FC003F000F000300000042
:10343C000000000000000000000000000000000080
:10344C00000000000000000000000000FFFFFFFF74
:10345C00000000000000FFFFFFFF00000000000064
:10346C000000000000000000000000000000000050
:10347C00000000000000000000E000F8007E801F4B
:10348C00E007F8017E001F007E00F801E007801FB6
:10349C00007E00F800E000000000000000000000CA
:1034AC00F01FFC3F3E381F381F381E001E003C002A
:1034BC007800F000E001C003C003C007C0070000A3
:1034CC0000000000C007C007C0070000000000009B
:1034DC0000000000F803FE0F1E1F0F3E7F3CFF781C
:1034EC00EF79C773C7F38FF38FF38FF39FF39FF3CA
:1034FC00FF73FF7BF779003C1C1FFC0FF8030000E7
:10350C000000000000000000000000000000E003CC
:10351C00E003F007F007F007780F780F7C0E3C1EE5
:10352C003C1E3E3CFE3FFF3F1F780F780FF007F02C
:10353C0007F0000000000000000000000000000088
:10354C000000F83FFC3F3E3C1E3C1E3C1E3C3E3CFB
:10355C007C3CF03FF83F7E3C1F3C1F3C0F3C0F3C3B
:10356C001F3CFE3FF83F0000000000000000000080
:10357C00000000000000FF01FF07871F003E003C19
:10358C00007C00780078007800780078007C007C63
:10359C00003E003F831FFF07FF01000000000000FA
:1035AC0000000000000000000000F07FFC7F7E782F
:1035BC001F781F780F780F780F780F780F780F78A7
:1035CC000F780F781F781E787E78F87FE07F0000E8
:1035DC000000000000000000000000000000FF3FA1
:1035EC00FF3F003E003E003E003E003E003EFE3FE0
:1035FC00FE3F003E003E003E003E003E003EFF3FD0
:10360C00FF3F000000000000000000000000000070
:10361C000000FF1FFF1F001E001E001E001E001ECC
:10362C00001EFF1FFF1F001E001E001E001E001E9E
:10363C00001E001E001E0000000000000000000024
:10364C00000000000000FE03FF0F871F003E007CFF
:10365C00007C007800F800F87FF87FF80F780F7C7A
:10366C000F7C0F3E8F1FFF0FFE03000000000000B9
:10367C00000000000000000000001F7C1F7C1F7C6D
:10368C001F7C1F7C1F7C1F7C1F7CFF7FFF7F1F7C90
:10369C001F7C1F7C1F7C1F7C1F7C1F7C1F7C0000E1
:1036AC000000000000000000000000000000FF3FD0
:1036BC00FF3FE003E003E003E003E003E003E0038B
:1036CC00E003E003E003E003E003E003E003FF3F7B
:1036DC00FF3F0000000000000000000000000000A0
:1036EC000000FC1FFC1F7C007C007C007C007C002C
:1036FC007C007C007C007C007C007C0078007800E6
:10370C00F838F03FC03F000000000000000000004F
:10371C000000000000001F3C1E3C3C3C783CF03C90
:10372C00E03DE03FC03F803FC03FE03FF03DF03C1C
:10373C00783C7C3C3E3C1F3C0F3C000000000000F1
:10374C0000000000000000000000003E003E003EB3
:10375C00003E003E003E003E003E003E003E003E6D
:10376C00003E003E003E003E003EFF3FFF3F00009B
:10377C0000000000000000000000000000001FF826
:10378C001FFC1FFC3FFE3FFE3FFE7FFF77FF77FFD6
:10379C00F7F7E7F7E7F3E7F3C7F307F007F007F0FE
:1037AC0007F0000000000000000000000000000016
:1037BC0000000F7C0F7C0F7E0F7F0F7F8F7F8F7F22
:1037CC00CF7FEF7BEF79FF79FF78FF787F783F78B9
:1037DC003F781F781F7800000000000000000000F8
:1037EC00000000000000F007FC1F3E3E1F7C0F781D
:1037FC000F780FF80FF80FF80FF80FF80FF80F7885
:10380C000F781F7C3E3EFC1FF007000000000000FC
:10381C0000000000000000000000FC3FFF3F1F3EC6
:10382C000F3E0F3E0F3E0F3E1F3E3F3EFC3FF03F14
:10383C00003E003E003E003E003E003E003E0000CA
:10384C000000000000000000000000000000F00775
:10385C00FC1F3E3E1F7C0F780F780FF80FF80FF807
:10386C000FF80FF80FF80F780F781F7C3E3EFC1FF7
:10387C00F8077C003F000F00030000000000000070
:10388C000000F03FFC3F7E3C3E3C1E3C1E3C3E3C60
:10389C003C3CFC3CF03FE03FF03DF83C7C3C3E3C8B
:1038AC001E3C1F3C0F3C000000000000000000000C
:1038BC00000000000000FC07FE1F0E3E003C003C18
:1038CC00003C003EC01FF80FFE037F001F000F00DE
:1038DC000F001F203E3CFC3FF01F000000000000CA
:1038EC0000000000000000000000FFFFFFFFE003ED
:1038FC00E003E003E003E003E003E003E003E003A4
:10390C00E003E003E003E003E003E003E003000076
:10391C0000000000000000000000000000000F7C10
:10392C000F7C0F7C0F7C0F7C0F7C0F7C0F7C0F7C33
:10393C000F7C0F7C0F7C0F7C1E3C1E3C3E3EFC1F04
:10394C00F007000000000000000000000000000074
:10395C00000007F007F007F80F780F7C1E3C1E3CA8
:10396C001E3E3C1E3C1F781F780FF80FF007F00727
:10397C00F007E003E003000000000000000000007E
:10398C0000000000000003E003F003F007F0E7F391
:10399C00E7F3E7F3E773F77BF77FFF7F7F7F7F7FAB
:1039AC007E7F7E3F3E3E3E3E3E3E000000000000DD
:1039BC000000000000000000000007F80F7C1E3E15
:1039CC003E3E3C1FF80FF007E007E003E003F00772
:1039DC00F80F7C0F7C1E3E3C1F780F780FF0000018
:1039EC00000000000000000000000000000007F8CC
:1039FC0007780F7C1E3C1E3E3C1F780FF80FF0071B
:103A0C00E003E003E003E003E003E003E003E00392
:103A1C00E0030000000000000000000000000000B7
:103A2C000000FF7FFF7F0F001F003E007C00F800AE
:103A3C00F000E001E003C007800F000F001E003E05
:103A4C00007CFF7FFF7F00000000000000000000F2
:103A5C00FF078007800780078007800780078007A3
:103A6C008007800780078007800780078007800712
:103A7C008007800780078007800780078007FF0783
:103A8C00FF07000000780078003C003C001E001E80
:103A9C00000F000F80078007C003C003E001E001A6
:103AAC00F000F000780078003C003C001E001E0086
:103ABC000F000F0007000000F07FF000F000F00096
:103ACC00F000F000F000F000F000F000F000F0006A
:103ADC00F000F000F000F000F000F000F000F0005A
:103AEC00F000F000F000F07FF07F0000C000C0019B
:103AFC00C001E003E003F007F0077807780F380FF8
:103B0C003C1E3C1E1E3C1E3C0F380F7807780000F4
:103B1C000000000000000000000000000000000099
:103B2C000000000000000000000000000000000089
:103B3C000000000000000000000000000000000079
:103B4C0000000000000000000000FFFFFFFF00006D
:103B5C0000000000F0000000000000000000000069
:103B6C000000000000000000000000000000000049
:103B7C000000000000000000000000000000000039
:103B8C000000000000000000000000000000000029
:103B9C0000000000F80FFC3F7C3C3E003E003E0065
:103BAC00FE07FE1F3E3E3E7C3E783E7C7E7CFF3F09
:103BBC00CF1F00000000000000000000003C003C93
:103BCC00003C003C003C003CF83DFE3F3E3F1F3EAD
:103BDC000F3C0F3C0F3C0F3C0F3C0F3C1F3C1E3C62
:103BEC003E3FFC3FF03B00000000000000000000E6
:103BFC00000000000000000000000000FE03FF0FAA
:103C0C00871F003E003E003C007C007C007C003C9A
:103C1C00003E003E871FFF0FFE0300000000000067
:103C2C00000000001F001F001F001F001F001F00CE
:103C3C00FF07FF1F3F3E1F3C1F7C1F7C1F7C1F7814
:103C4C001F781F7C1F7C3F3C7F3EFF1FDF0F000057
:103C5C000000000000000000000000000000000058
:103C6C0000000000F803FC0F3E1F1E3E1F3C1F7C93
:103C7C00FF7FFF7F007C007C003C003E071FFF0F96
:103C8C00FE0300000000000000000000FF01E10343
:103C9C00C003C007C007C007FF7FFF7FC007C00776
:103CAC00C007C007C007C007C007C007C007C007D0
:103CBC00C007C007C00700000000000000000000A3
:103CCC00000000000000000000000000EF07FF1FD4
:103CDC007F3E1F3C1F7C1F7C1F781F781F781F7C2A
:103CEC001F7C3F3C7F3EFF1FDF0F1E001E001E008F
:103CFC007C38F83F003C003C003C003C003C003C65
:103D0C00FC3DFE3F9E3F1F3F1F3E1F3C1F3C1F3C88
:103D1C001F3C1F3C1F3C1F3C1F3C1F3C1F3C00001A
:103D2C000000000000000000F001F00100000000A5
:103D3C0000000000E07FE07FE001E001E001E00135
:103D4C00E001E001E001E001E001E001E001E0015F
:103D5C00E00100000000000000000000F800F80086
:103D6C000000000000000000F83FF83FF800F800E9
:103D7C00F800F800F800F800F800F800F800F80077
:103D8C00F800F800F800F800F800F000F071E07F9F
:103D9C00003C003C003C003C003C003C1F3C3E3CDA
:103DAC007C3CF83CF03DE03DC03FC03FE03FF03D87
:103DBC00F83C7C3C3E3C1F3C1F3C000000000000DB
:103DCC0000000000F07FF001F001F001F001F001C3
:103DDC00F001F001F001F001F001F001F001F0014F
:103DEC00F001F001F001F001F001F001F001000030
:103DFC0000000000000000000000000000000000B7
:103E0C00000000009EF7FFFFFFFFFFFFE7FBE7F955
:103E1C00C7F1C7F1C7F1C7F1C7F1C7F1C7F1C7F1D6
:103E2C00C7F10000000000000000000000000000CE
:103E3C000000000000000000FC3DFE3F9E3F1F3FC5
:103E4C001F3E1F3C1F3C1F3C1F3C1F3C1F3C1F3C8C
:103E5C001F3C1F3C1F3C0000000000000000000045
:103E6C00000000000000000000000000F007FC1F34
:103E7C003E3E1F3C1F7C0F780F780F780F780F7821
:103E8C001F7C1F3C3E3EFC1FF007000000000000A2
:103E9C000000000000000000000000000000000016
:103EAC00F83DFE3F3E3F1F3E0F3C0F3C0F3C0F3C8E
:103EBC000F3C0F3C1F3C1E3E3E3FFC3FF83F003C7E
:103ECC00003C003C003C003C0000000000000000F6
:103EDC0000000000EE07FE1F7E3E1E3C1E7C1E787E
:103EEC001E781E781E781E781E7C3E7C7E3EFE1F41
:103EFC00DE0F1E001E001E001E001E000000000033
:103F0C0000000000000000007F1FFF1FE71FC71FFD
:103F1C00871F001F001F001F001F001F001F001F16
:103F2C00001F001F001F0000000000000000000028
:103F3C00000000000000000000000000FC07FE1F55
:103F4C000E1E003E003E003FE01FFC07FE003E0040
:103F5C001E001E003E3CFC3FF01F00000000000055
:103F6C0000000000000000000000800780078007B0
:103F7C00FF7FFF7F8007800780078007800780070F
:103F8C008007800780078007C007FF03FF01000040
:103F9C000000000000000000000000000000000015
:103FAC00000000001E3C1E3C1E3C1E3C1E3C1E3CE9
:103FBC001E3C1E3C1E3C1E3C3E3C7E3CFE3EFE1F00
:103FCC00DE0F0000000000000000000000000000F8
:103FDC00000000000000000007F00F780F781E3C76
:103FEC001E3C1E3E3C1E3C1E780F780FF00FF00757
:103FFC00F007E003E00300000000000000000000F8
:10400C0000000000000000000000000003F0E3F1DD
:10401C00E3F3E7F3F7F3F7F3F77F777F7F7F7F7FA8
:10402C007F7F3E3E3E3E3E3E3E3E00000000000096
:10403C000000000000000000000000000000000074
:10404C000F7C1E3E3C3E3C1FF80FF007F007E003D0
:10405C00F007F807F80F7C1E3E3E1F3C1F7800004F
:10406C000000000000000000000000000000000044
:10407C000000000007F80F780F7C1E3C1E3C3C1E15
:10408C003C1E3C1F780FF80FF007F007E003E0032D
:10409C00C003C003C0038007800F007F0000000036
:1040AC000000000000000000FF3FFF3F1F003E002B
:1040BC007C00F800F001E003C007800F001F001E19
:1040CC00003CFF7FFF7F00000000000000000000AC
:1040DC00FE01E003C003C003C003C003E001E00124
:1040EC00E001C001C003803F803FC003C001E0017C
:1040FC00E001E001C003C003C003C003E003FE0104
:10410C007E000000C001C001C001C001C001C0019F
:10411C00C001C001C001C001C001C001C001C0018B
:10412C00C001C001C001C001C001C001C001C0017B
:10413C00C001C001C0010000C03FE003E001E0018C
:10414C00E001E001C001C003C003C001E001FE00BA
:10415C00FE00E001C001C003C003C001E001E001AA
:10416C00E001E001E003C03F003F00000000000060
:10417C000000000000000000000000000000000033
:10418C000000073FC77FE773FFF17EF000000000DF
:10419C000000000000000000000000000000000013
:1041AC000000000000000000000000000000000003
:1041BC000000000000100010001000100010001093
:1041CC00000000100000000000280028002800005B
:1041DC00000000000000000000000000002400248B
:1041EC00007C00240048007C0048004800000000CF
:1041FC0000380054005000380014005400540038AB
:10420C00001000000020005400580030002800541A
:10421C000014000800000000001000280028001006
:10422C00003400480048003400000000001000106A
:10423C000010000000000000000000000000000062
:10424C00000800100020002000200020002000208A
:10425C0000100008002000100008000800080008EA
:10426C000008000800100020001000380010002882
:10427C000000000000000000000000000000000032
:10428C0000100010007C0010001000000000000066
:10429C000000000000000000000000000000001002
:1042AC0000100010000000000000000000000038AA
:1042BC0000000000000000000000000000000000F2
:1042CC0000000000000000100000000000080008C2
:1042DC000010001000100010002000200000000052
:1042EC0000380044004400540044004400440038AA
:1042FC0000000000001000300050001000100010F2
:10430C0000100010000000000038004400440004BD
:10431C00000800100020007C000000000038004461
:10432C0000040018000400040044003800000000E1
:10433C0000080018002800280048007C000800082D
:10434C0000000000007C00400040007800040004E5
:10435C0000440038000000000038004400400078A1
:10436C00004400440044003800000000007C0004BD
:10437C0000080010001000200020002000000000A9
:10438C000038004400440038004400440044003825
:10439C00000000000038004400440044003C0004CD
:1043AC000044003800000000000000000010000075
:1043BC0000000000000000100000000000000000E1
:1043CC0000000010000000000000001000100010A1
:1043DC0000000000000C003000400030000C000019
:1043EC0000000000000000000000007C0000007CC9
:1043FC000000000000000000000000000060001839
:10440C0000040018006000000000000000380044A8
:10441C000004000800100010000000100000000054
:10442C0000380044004C0054005C00400040003850
:10443C000000000000100028002800280028007C44
:10444C000044004400000000007800440044007860
:10445C000044004400440078000000000038004490
:10446C0000400040004000400044003800000000C4
:10447C0000700048004400440044004400480070B0
:10448C0000000000007C00400040007C0040004028
:10449C000040007C00000000007C004000400078E0
:1044AC000040004000400040000000000038004484
:1044BC0000400040005C0044004400380000000054
:1044CC00004400440044007C004400440044004488
:1044DC000000000000380010001000100010001048
:1044EC000010003800000000000400040004000468
:1044FC0000040004004400380000000000440048A0
:10450C0000500060005000480048004400000000CB
:10451C000040004000400040004000400040007C53
:10452C00000000000044006C006C00540044004487
:10453C000044004400000000004400640064005487
:10454C000054004C004C00440000000000380044B3
:10455C0000440044004400440044003800000000C3
:10456C0000780044004400440078004000400040C3
:10457C0000000000003800440044004400440044A3
:10458C00005400380004000000780044004400444B
:10459C000078004800480044000000000038004447
:1045AC000040003000080004004400380000000007
:1045BC00007C001000100010001000100010001003
:1045CC000000000000440044004400440044004447
:1045DC00004400380000000000440044004400285F
:1045EC0000280028001000100000000000440044C7
:1045FC00005400540054006C0028002800000000F7
:10460C000044002800280010001000280028004456
:10461C000000000000440044002800280010001096
:10462C000010001000000000007C000400080010C6
:10463C00001000200040007C00000000001800105A
:10464C0000100010001000100010001000100018D6
:10465C0000200020001000100010001000080008BE
:10466C0000000000003000100010001000100010BE
:10467C00001000100010003000100028002800442A
:10468C00000000000000000000000000000000001E
:10469C00000000000000000000000000000000FE10
:1046AC0000200010000000000000000000000000CE
:1046BC00000000000000000000380044003C0044F2
:1046CC00004C003400000000004000400058006422
:1046DC00004400440064005800000000000000008A
:1046EC000038004400400040004400380000000046
:1046FC00000400040034004C00440044004C00341E
:10470C00000000000000000000380044007C004065
:10471C000044003800000000000C0010007C001069
:10472C00001000100010001000000000000000003D
:10473C000034004C00440044004C00340004007869
:10474C000040004000580064004400440044004411
:10475C00000000000010000000700010001000109D
:10476C00001000100000000000100000007000108D
:10477C000010001000100010001000E0004000407D
:10478C000048005000600050004800440000000049
:10479C00007000100010001000100010001000102D
:1047AC000000000000000000007800540054005489
:1047BC000054005400000000000000000058006489
:1047CC0000440044004400440000000000000000CD
:1047DC00003800440044004400440038000000004D
:1047EC0000000000005800640044004400640058BD
:1047FC0000400040000000000034004C0044004425
:10480C00004C003400040004000000000058006458
:10481C00004000400040004000000000000000008C
:10482C00003800440030000800440038000000004C
:10483C00002000200078002000200020002000181C
:10484C00000000000000000000440044004400444C
:10485C00004C003400000000000000000044004444
:10486C0000280028002800100000000000000000B4
:10487C00005400540054006C002800280000000074
:10488C000000000000440028001000100028004424
:10489C000000000000000000004400440028002834
:1048AC00001000100010006000000000007C0008E8
:1048BC00001000200040007C0000000000180010D8
:1048CC000010001000200020001000100010001834
:1048DC00001000100010001000100010001000104C
:1048EC00001000100030001000100010000800082C
:1048FC0000100010001000300000000000000074D8
:10490C00004C000000000000000000000F01809629
:10491C001180FFB103012C2DB203012C2DB3060124
:10492C002C2D012C2DB40107C003A20284C101C59A
:10493C00C2020A00C3028A2AC4028AEEC5010E20F2
:10494C00003601C03A0105022A040000007F2B0446
:10495C000000007F04E010021C07123732292D29B9
:10496C00252B3900010310E110031D07062E2C29FD
:10497C002D2E2E373F0000021013800A298064462A
:10498C006F6E745F377831302C20726564206F6ED7
:10499C0020626C61636B2C206C6F72656D2069708A
:1049AC0073756D20646F6C6F722073697420616D08
:1049BC00657400466F6E745F31317831382C206726
:1049CC007265656E2C206C6F72656D2069707375E5
:1049DC006D00466F6E745F31367832360000000021
:1049EC000000000000010203040607080900000093
:0849FC000001020304000000A9
:084A0400F4B7FF7F0100000080
:044A0C00AD010008F0
:044A10008901000810
:104A140001000000100000000B1200000421000837
:104A2400101A0000602E0008070A0000AC410008BC
:044A34000024F40066
:040000050800203996
:00000001FF
