:020000040800F2
:1000000000000220B96D0008096D0008176D000896
:100010001D6D0008236D0008296D00080000000018
:10002000000000000000000000000000A1390008EE
:100030002F6D000800000000E13B0008493C00086B
:10004000096E0008096E0008096E0008096E0008B4
:10005000096E0008096E0008096E0008096E0008A4
:10006000096E0008096E0008096E0008096E000894
:10007000096E0008096E0008096E0008096E000884
:10008000096E0008096E0008096E0008096E000874
:10009000096E0008096E0008096E0008096E000864
:1000A000096E00083D6D0008096E0008096E000821
:1000B000096E0008096E0008096E0008096E000844
:1000C000096E0008096E0008096E0008096E000834
:1000D000096E0008096E0008516D0008096E0008DD
:1000E000096E0008096E0008096E0008096E000814
:1000F000096E0008096E0008096E0008656D0008A9
:10010000096E0008096E0008096E0008796D000884
:10011000096E0008096E0008096E0008096E0008E3
:10012000096E0008096E0008096E0008096E0008D3
:10013000096E0008096E0008096E0008096E0008C3
:10014000096E0008096E0008096E0008096E0008B3
:10015000096E0008096E0008096E0008096E0008A3
:10016000096E0008096E0008096E0008096E000893
:10017000096E0008096E0008096E00080000000002
:08018000096E0008096E000879
:1001900010B5054C237833B9044B13B10448AFF3C1
:1001A00000800123237010BD10800020000000009B
:1001B0007C6E000808B5034B1BB103490348AFF33D
:1001C000008008BD00000000148000207C6E000844
:1001D00053B94AB9002908BF00281CBF4FF0FF31AE
:1001E0004FF0FF3000F07AB9ADF1080C6DE904CEA4
:1001F00000F006F8DDF804E0DDE9022304B0704702
:100200002DE9F0478C460D460446089E002B51D13F
:100210008A4217466DD9B2FA82FEBEF1000F0BD0AA
:10022000CEF1200C01FA0EF520FA0CFC02FA0EF7C2
:100230004CEA050C00FA0EF44FEA174A250CBCFBF9
:10024000FAF81FFA87F90AFB18CC45EA0C4508FBB7
:1002500009F3AB420AD9ED1908F1FF3280F023818E
:10026000AB4240F22081A8F102083D44ED1AA4B24D
:10027000B5FBFAF00AFB105544EA054400FB09F906
:10028000A14509D9E41900F1FF3380F00A81A145A5
:1002900040F2078102383C44A4EB090440EA0840DC
:1002A0000021002E61D024FA0EF400233460736024
:1002B000BDE8F0878B4207D9002E54D0002186E894
:1002C00021000846BDE8F087B3FA83F1002940F029
:1002D0008E80AB4202D3824200F2FA80841A65EB30
:1002E00003050120AC46002E3FD086E81010BDE883
:1002F000F08712B90127B7FBF2F7B7FA87FEBEF114
:10030000000F34D1EB1B3A0C1FFA87FC0121B3FB21
:10031000F2F8250C02FB183345EA03450CFB08F301
:10032000AB4207D9ED1908F1FF3002D2AB4200F21F
:10033000D1808046ED1AA3B2B5FBF2F002FB105556
:1003400043EA05440CFB00FCA44507D9E41900F17D
:10035000FF3302D2A44500F2B8801846A4EB0C0487
:1003600040EA08409DE731463046BDE8F087CEF1CF
:10037000200405FA0EF307FA0EF720FA04F83A0CF7
:1003800025FA04F448EA0308B4FBF2F14FEA1845F1
:1003900002FB11441FFA87FC45EA044501FB0CF3FC
:1003A000AB4200FA0EF409D9ED1901F1FF3080F0EB
:1003B0008A80AB4240F2878002393D44EB1A1FFA33
:1003C00088F5B3FBF2F002FB103345EA034500FB6E
:1003D0000CF3AB4207D9ED1900F1FF386FD2AB42F5
:1003E0006DD902383D44EB1A40EA01418FE7C1F173
:1003F000200722FA07F88B4005FA01F448EA0303C4
:1004000020FA07FE4FEA134CFD404EEA040EB5FBFE
:10041000FCF94FEA1E440CFB19551FFA83F844EA15
:10042000054509FB08F4AC4202FA01F200FA01FAB0
:1004300008D9ED1809F1FF3043D2AC4241D9A9F1F6
:1004400002091D442D1B1FFA8EFEB5FBFCF00CFBB0
:1004500010554EEA054400FB08F8A04507D9E418FA
:1004600000F1FF3529D2A04527D902381C4440EAC3
:100470000940A4EB0804A0FB02894C45C6464D4642
:1004800015D312D056B1BAEB0E0364EB050404FA8F
:1004900007F7CB401F43CC40376074600021BDE8B4
:1004A000F0871846F8E69046E0E6C245EAD2B8EB97
:1004B000020E69EB03050138E4E72846D7E740461A
:1004C00091E78146BEE7014678E702383C4445E7BC
:1004D000084608E7A8F102083D442BE7704700BF33
:1004E00080B500AF0E4A0E4B1B6843F400731360D7
:1004F0000B4A0B4B1B6843F480631360084A084B9C
:100500001B6843F480731360032000F0F8F80020A8
:1005100006F0A0FB06F042FA0023184680BD00BF9B
:10052000003C024080B400AF064B1B781A46064BD5
:100530001B681344044A136000BFBD465DF8047B8A
:10054000704700BF040000203869012080B400AF6C
:10055000034B1B681846BD465DF8047B704700BF1F
:100560003869012080B584B000AF7860FFF7EEFFF6
:10057000B8607B68FB60FB68B3F1FF3F05D0094BB7
:100580001B781A46FB681344FB6000BFFFF7DEFFD1
:100590000246BB68D21AFB689A42F7D300BF1037F5
:1005A000BD4680BD0400002080B485B000AF7860F7
:1005B0007B6803F00703FB600C4BDB68BB60BA6829
:1005C0004FF6FF031340BB60FB681A02BB6813437E
:1005D00043F0BF6343F40033BB60044ABB68D3609D
:1005E00000BF1437BD465DF8047B704700ED00E0A6
:1005F00080B400AF044BDB681B0A03F00703184606
:10060000BD465DF8047B704700ED00E080B483B028
:1006100000AF0346FB7197F90730002B0BDB09494C
:1006200097F907305B09FA7902F01F02012000FAFE
:1006300002F241F8232000BF0C37BD465DF8047B71
:10064000704700BF00E100E080B483B000AF034614
:100650003960FB7197F90730002B0ADB0D4997F9D8
:1006600007303A68D2B21201D2B20B4483F80023A9
:100670000AE00949FB7903F00F03043B3A68D2B260
:100680001201D2B20B441A7600BF0C37BD465DF89A
:10069000047B704700E100E000ED00E080B489B029
:1006A00000AFF860B9607A60FB6803F00703FB6194
:1006B000FB69C3F10703042B28BF0423BB61FB695B
:1006C0000433062B02D9FB69033B00E000237B6166
:1006D0000122BB6902FA03F35A1EBB681A407B6908
:1006E0009A4001217B6901FA03F3591E7B680B4094
:1006F000134318462437BD465DF8047B704780B528
:1007000082B000AF78607868FFF74EFF00BF08370F
:10071000BD4680BD80B586B000AF0346B9607A6043
:10072000FB7300237B61FFF763FF78617A68B96828
:100730007869FFF7B3FF024697F90F301146184664
:10074000FFF782FF00BF1837BD4680BD80B582B07D
:1007500000AF0346FB7197F907301846FFF756FFC5
:1007600000BF0837BD4680BD80B586B000AF786059
:1007700000237B61FFF7EAFE38617B68002B01D123
:10078000012399E07B68002283F834207B680222F1
:1007900083F835207B681B687A681268126822F03B
:1007A00001021A600FE0FFF7D1FE02463B69D31A3F
:1007B000052B08D97B6820225A657B68032283F8C1
:1007C0003520032378E07B681B681B6803F0010376
:1007D000002BE8D17B681B681B687B617A69384B0A
:1007E00013407B617B685A687B689B681A437B680F
:1007F000DB681A437B681B691A437B685B691A4391
:100800007B689B691A437B68DB691A437B681B6AB8
:1008100013437A6913437B617B685B6A042B07D1BE
:100820007B68DA6A7B681B6B13437A6913437B61CD
:100830007B681B687A691A607B681B685B697B61EF
:100840007B6923F007037B617B685B6A7A691343EA
:100850007B617B685B6A042B17D17B689B6A7A6932
:1008600013437B617B68DB6A002B0ED0786800F055
:1008700091FA0346002B08D07B6840225A657B68BA
:10088000012283F83520012316E07B681B687A6912
:100890005A61786800F048FA0346FB607B68DB6DBC
:1008A0003F229A40FB689A607B6800225A657B6809
:1008B000012283F83520002318461837BD4680BD35
:1008C0003F8010F080B586B000AFF860B9607A6004
:1008D0003B600023FB75FB689B6D3B61FB6893F8F5
:1008E0003430012B01D1022340E0FB68012283F860
:1008F0003420FB6893F83530DBB2012B2FD1FB6835
:10090000022283F83520FB6800225A653B687A682A
:10091000B968F86800F0DAF9FB68DB6D3F229A40AD
:100920003B699A60FB681B68FA681268126842F0BB
:1009300016021A60FB681B6C002B07D0FB681B6853
:10094000FA681268126842F008021A60FB681B68B5
:10095000FA681268126842F001021A6005E0FB684A
:10096000002283F834200223FB75FB7D18461837DC
:10097000BD4680BD80B483B000AF78607B6893F8DB
:100980003530DBB2022B04D07B6880225A6501230C
:100990000CE07B68052283F835207B681B687A6849
:1009A0001268126822F001021A60002318460C3700
:1009B000BD465DF8047B704780B586B000AF7860B7
:1009C0000023BB60924B1B68924AA2FB03239B0A45
:1009D0007B617B689B6D3B613B691B68FB607B684F
:1009E000DB6D08229A40FB681340002B1AD07B680D
:1009F0001B681B6803F00403002B13D07B681B6883
:100A00007A681268126822F004021A607B68DB6D53
:100A100008229A403B699A607B685B6D43F0010253
:100A20007B685A657B68DB6D01229A40FB68134046
:100A3000002B12D07B681B685B6903F08003002BDE
:100A40000BD07B68DB6D01229A403B699A607B6822
:100A50005B6D43F002027B685A657B68DB6D0422A4
:100A60009A40FB681340002B12D07B681B681B6800
:100A700003F00203002B0BD07B68DB6D04229A404D
:100A80003B699A607B685B6D43F004027B685A6542
:100A90007B68DB6D10229A40FB681340002B43D02B
:100AA0007B681B681B6803F00803002B3CD07B6845
:100AB000DB6D10229A403B699A607B681B681B685B
:100AC00003F48023002B18D07B681B681B6803F499
:100AD0000023002B08D17B681B6C002B24D07B6883
:100AE0001B6C786898471FE07B689B6C002B1BD0C1
:100AF0007B689B6C7868984716E07B681B681B686E
:100B000003F48073002B07D17B681B687A68126836
:100B1000126822F008021A607B681B6C002B03D05D
:100B20007B681B6C786898477B68DB6D20229A4055
:100B3000FB681340002B00F08E807B681B681B68ED
:100B400003F01003002B00F086807B68DB6D202211
:100B50009A403B699A607B6893F83530DBB2052B8D
:100B600036D17B681B687A681268126822F0160218
:100B70001A607B681B687A681268526922F08002EA
:100B80005A617B681B6C002B03D17B689B6C002B2C
:100B900007D07B681B687A681268126822F0080226
:100BA0001A607B68DB6D3F229A403B699A607B68E4
:100BB000002283F834207B68012283F835207B688B
:100BC0001B6D002B7DD07B681B6D7868984778E0A3
:100BD0007B681B681B6803F48023002B1CD07B6898
:100BE0001B681B6803F40023002B08D17B685B6C37
:100BF000002B30D07B685B6C786898472BE07B6873
:100C0000DB6B002B27D07B68DB6B7868984722E092
:100C10000C800020B5814E1B7B681B681B6803F4A9
:100C20008073002B0FD17B681B687A68126812688A
:100C300022F010021A607B68002283F834207B685F
:100C4000012283F835207B68DB6B002B03D07B68A7
:100C5000DB6B786898477B685B6D002B32D07B68D4
:100C60005B6D03F00103002B22D07B68052283F823
:100C700035207B681B687A681268126822F00102CE
:100C80001A60BB680133BB607A69934207D87B68FE
:100C90001B681B6803F00103002BF2D100E000BFCA
:100CA0007B68002283F834207B68012283F835209A
:100CB0007B68DB6C002B05D07B68DB6C7868984721
:100CC00000E000BF1837BD4680BD00BF80B485B0CE
:100CD00000AFF860B9607A603B60FB681B68FA6837
:100CE0001268126822F480221A60FB681B683A6856
:100CF0005A60FB689B68402B08D1FB681B687A68C8
:100D00009A60FB681B68BA68DA6007E0FB681B68DA
:100D1000BA689A60FB681B687A68DA6000BF1437AB
:100D2000BD465DF8047B704780B485B000AF786045
:100D30007B681B68DBB2103B144AA2FB03231B0930
:100D4000FB60134AFB6813441B781A467B68DA651C
:100D5000FB68032B09D97B681B6823F47F7323F09E
:100D600003031A1D7B689A6507E07B681B6823F400
:100D70007F7323F003037A6893657B689B6D184645
:100D80001437BD465DF8047B704700BFABAAAAAA22
:100D9000C46E000880B485B000AF78600023FB7398
:100DA0007B689B6ABB607B689B69002B1FD1BB681B
:100DB000032B55D801A252F823F000BFCD0D000837
:100DC000DF0D0008CD0D0008610E00087B68DB6AAE
:100DD00003F08073002B45D00123FB7342E07B6856
:100DE000DB6AB3F1C07F3FD10123FB733CE07B683A
:100DF0009B69B3F5005F21D1BB68032B36D801A2F4
:100E000052F823F0150E00081B0E0008150E0008FE
:100E10002D0E00080123FB732FE07B68DB6A03F0D3
:100E20008073002B24D00123FB7321E07B68DB6AF5
:100E3000B3F1C07F1ED10123FB731BE0BB68022B03
:100E400002D9032B03D018E00123FB7315E07B6864
:100E5000DB6A03F08073002B0ED00123FB730BE0E1
:100E600000BF0AE000BF08E000BF06E000BF04E0EA
:100E700000BF02E000BF00E000BFFB7B1846143754
:100E8000BD465DF8047B704780B489B000AF7860E0
:100E9000396000237B6100233B610023BB61002399
:100EA000FB616BE10122FB6902FA03F37B613B68A2
:100EB0001A687B6913403B613A697B699A4240F04A
:100EC0005A813B685B68012B0BD03B685B68022B47
:100ED00007D03B685B68112B03D03B685B68122B23
:100EE00030D17B689B68BB61FB695B00032202FA1F
:100EF00003F3DB43BA691340BB613B68DA68FB6903
:100F00005B0002FA03F3BA691343BB617B68BA69F9
:100F10009A607B685B68BB610122FB6902FA03F39C
:100F2000DB43BA691340BB613B685B681B0903F094
:100F30000102FB6902FA03F3BA691343BB617B68E0
:100F4000BA695A607B68DB68BB61FB695B0003229E
:100F500002FA03F3DB43BA691340BB613B689A684A
:100F6000FB695B0002FA03F3BA691343BB617B6858
:100F7000BA69DA603B685B68022B03D03B685B6848
:100F8000122B23D1FB69DA087B68083253F8223030
:100F9000BB61FB6903F007039B000F2202FA03F316
:100FA000DB43BA691340BB613B681A69FB6903F014
:100FB00007039B0002FA03F3BA691343BB61FB69A1
:100FC000DA087B680832B96943F822107B681B682D
:100FD000BB61FB695B00032202FA03F3DB43BA69DE
:100FE0001340BB613B685B6803F00302FB695B0075
:100FF00002FA03F3BA691343BB617B68BA691A60EA
:101000003B685B6803F08053002B00F0B480002342
:10101000FB605F4A5E4B5B6C43F4804353645C4B04
:101020005B6C03F48043FB60FB685A4AFB699B08D6
:10103000023352F82330BB61FB6903F003039B00CA
:101040000F2202FA03F3DB43BA691340BB617B68EA
:10105000514A93422BD07B68504A934225D07B68FB
:101060004F4A93421FD07B684E4A934219D07B6807
:101070004D4A934213D07B684C4A93420DD07B6813
:101080004B4A934207D07B684A4A934201D10723D7
:101090000EE008230CE006230AE0052308E0042301
:1010A00006E0032304E0022302E0012300E0002322
:1010B000FA6902F0030292009340BA691343BB61DC
:1010C0003449FB699B080233BA6941F823203A4B43
:1010D0001B68BB613B69DB43BA691340BB613B687A
:1010E0005B6803F48033002B03D0BA693B69134378
:1010F000BB61314ABB6913602F4B5B68BB613B69C5
:10110000DB43BA691340BB613B685B6803F400339F
:10111000002B03D0BA693B691343BB61264ABB6904
:101120005360254B9B68BB613B69DB43BA69134045
:10113000BB613B685B6803F48013002B03D0BA6982
:101140003B691343BB611C4ABB6993601A4BDB6864
:10115000BB613B69DB43BA691340BB613B685B68B9
:1011600003F40013002B03D0BA693B691343BB613E
:10117000114ABB69D360FB690133FB61FB690F2B2B
:101180007FF690AE00BF2437BD465DF8047B704704
:1011900000380240003801400000024000040240D4
:1011A00000080240000C02400010024000140240FF
:1011B00000180240001C0240003C014080B483B093
:1011C00000AF78600B467B8013467B707B78002BEA
:1011D00003D07A887B689A6103E07B881A047B6875
:1011E0009A6100BF0C37BD465DF8047B7047000074
:1011F00080B586B000AF78607B68002B01D10123F9
:101200005BE27B681B6803F00103002B75D0A34BE6
:101210009B6803F00C03042B0CD0A04B9B6803F0DD
:101220000C03082B12D19D4B5B6803F48003B3F5CC
:10123000800F0BD1994B1B6803F40033002B5BD05C
:101240007B685B68002B57D1012336E27B685B68C3
:10125000B3F5803F06D1914A904B1B6843F480332D
:1012600013601DE07B685B68B3F5A02F0CD18B4A3F
:101270008A4B1B6843F480231360884A874B1B68A2
:1012800043F4803313600BE0844A844B1B6823F4DF
:1012900080331360814A814B1B6823F480231360E1
:1012A0007B685B68002B13D0FFF750F9386108E0CA
:1012B000FFF74CF902463B69D31A642B01D903238B
:1012C000FBE1764B1B6803F40033002BF0D014E0F5
:1012D000FFF73CF9386108E0FFF738F902463B694F
:1012E000D31A642B01D90323E7E16C4B1B6803F489
:1012F0000033002BF0D100E000BF7B681B6803F0D7
:101300000203002B63D0654B9B6803F00C03002B9A
:101310000BD0624B9B6803F00C03082B1CD15F4B76
:101320005B6803F48003002B16D15C4B1B6803F051
:101330000203002B05D07B68DB68012B01D0012361
:10134000BBE15649554B1B6823F0F8027B681B69CB
:10135000DB0013430B603AE07B68DB68002B20D096
:101360004F4B01221A60FFF7F1F8386108E0FFF7F0
:10137000EDF802463B69D31A022B01D903239CE105
:10138000464B1B6803F00203002BF0D04349434B4C
:101390001B6823F0F8027B681B69DB0013430B60BA
:1013A00015E03F4B00221A60FFF7D0F8386108E0E3
:1013B000FFF7CCF802463B69D31A022B01D903236D
:1013C0007BE1364B1B6803F00203002BF0D17B68F6
:1013D0001B6803F00803002B30D07B685B69002B8F
:1013E00016D0304B01221A60FFF7B0F8386108E0E0
:1013F000FFF7ACF802463B69D31A022B01D903234D
:101400005BE1264B5B6F03F00203002BF0D015E08D
:10141000244B00221A60FFF799F8386108E0FFF7C3
:1014200095F802463B69D31A022B01D9032344E104
:101430001A4B5B6F03F00203002BF0D17B681B6833
:1014400003F00403002B00F0A0800023FB75134B76
:101450001B6C03F08053002B0FD10023BB600F4A9D
:101460000E4B1B6C43F0805313640C4B1B6C03F04E
:101470008053BB60BB680123FB750B4B1B6803F4F7
:101480008073002B21D1084A074B1B6843F48073FB
:101490001360FFF75BF8386111E000BF00380240CD
:1014A00000004742800E474200700040FFF74EF8B0
:1014B00002463B69D31A022B01D90323FDE0814B7D
:1014C0001B6803F48073002BF0D07B689B68012BB2
:1014D00006D17D4A7C4B1B6F43F0010313671CE070
:1014E0007B689B68052B0CD1774A774B1B6F43F0C9
:1014F00004031367744A744B1B6F43F001031367B3
:101500000BE0714A704B1B6F23F0010313676E4AA7
:101510006D4B1B6F23F0040313677B689B68002BE4
:1015200015D0FFF713F838610AE0FFF70FF802460D
:101530003B69D31A41F28832934201D90323BCE0BC
:10154000614B1B6F03F00203002BEED014E0FEF79B
:10155000FDFF38610AE0FEF7F9FF02463B69D31A46
:1015600041F28832934201D90323A6E0564B1B6F08
:1015700003F00203002BEED1FB7D012B05D1524A73
:10158000514B1B6C23F0805313647B689B69002BC9
:1015900000F092804C4B9B6803F00C03082B5CD04E
:1015A0007B689B69022B41D1484B00221A60FEF7F1
:1015B000CDFF386108E0FEF7C9FF02463B69D31A48
:1015C000022B01D9032378E03F4B1B6803F0007323
:1015D000002BF0D13C497B68DA697B681B6A1A43AF
:1015E0007B685B6A9B011A437B689B6A5B08013BD3
:1015F0001B041A437B68DB6A1B0613434B60334BA7
:1016000001221A60FEF7A2FF386108E0FEF79EFF94
:1016100002463B69D31A022B01D903234DE02A4B22
:101620001B6803F00073002BF0D045E0274B00222D
:101630001A60FEF78BFF386108E0FEF787FF02466D
:101640003B69D31A022B01D9032336E01E4B1B68DA
:1016500003F00073002BF0D12EE07B689B69012B17
:1016600001D1012329E0184B5B68FB60FB6803F4A0
:1016700080027B68DB699A421CD1FB6803F03F0261
:101680007B681B6A9A4215D1FA6847F6C07313400B
:101690007A68526A93420DD1FB6803F440327B684A
:1016A0009B6A9A4206D1FB6803F070627B68DB6A32
:1016B0009A4201D0012300E0002318461837BD46A6
:1016C00080BD00BF0070004000380240600047420B
:1016D00080B584B000AF786039607B68002B01D1A1
:1016E0000123CCE0684B1B6803F00F023B689A4271
:1016F0000CD2654B3A68D2B21A70634B1B6803F088
:101700000F023B689A4201D00123B8E07B681B6856
:1017100003F00203002B20D07B681B6803F0040356
:10172000002B05D0594A594B9B6843F4E053936012
:101730007B681B6803F00803002B05D0534A534B0A
:101740009B6843F4604393605049504B9B6823F07F
:10175000F0027B689B6813438B607B681B6803F017
:101760000103002B44D07B685B68012B07D1474BFA
:101770001B6803F40033002B19D101237FE07B6841
:101780005B68022B03D07B685B68032B07D13F4B60
:101790001B6803F00073002B09D101236FE03B4B62
:1017A0001B6803F00203002B01D1012367E03749D6
:1017B000364B9B6823F003027B685B6813438B60A6
:1017C000FEF7C4FEF8600AE0FEF7C0FE0246FB68C2
:1017D000D31A41F28832934201D903234FE02B4BB5
:1017E0009B6803F00C027B685B689B009A42EBD11C
:1017F000254B1B6803F00F023B689A420CD9224B21
:101800003A68D2B21A70204B1B6803F00F023B6893
:101810009A4201D0012332E07B681B6803F0040385
:10182000002B08D01949194B9B6823F4E0527B68C0
:10183000DB6813438B607B681B6803F00803002B95
:1018400009D01249114B9B6823F460427B681B69E5
:10185000DB0013438B6000F021F801460B4B9B68C3
:101860001B0903F00F030A4AD35C21FA03F3094A68
:101870001360094B1B68184605F0ECF90023184665
:101880001037BD4680BD00BF003C0240003802401A
:10189000686F00080C800020000000202DE9F04F48
:1018A00087B000AF0022FA6000227A610022BA609D
:1018B00000223A61514A926802F00C02042A07D0D1
:1018C000082A08D0002A40F090804D4B3B618FE001
:1018D0004C4B3B618CE0494A526802F03F02FA608F
:1018E000464A526802F48002002A23D0434B5B68C8
:1018F0009B094FF0000440F2FF114FF0000203EA91
:10190000010304EA02043F4A02FB04F1002202FB45
:1019100003F20A443B49A3FB010153181946FB6833
:101920004FF000041A462346FEF752FC03460C46CD
:101930007B614CE0314A5268920911464FF0000237
:1019400040F2FF154FF0000605EA010506EA02061F
:10195000294632464FEA421B4BEAD16B4FEA411A05
:1019600051465A46AA46B34655465E464D1B62EB63
:10197000060629463246940144EA91648B015B1ABB
:1019800064EB02044FEAC40949EA53794FEAC308F9
:1019900043464C4655465E46ED1846EB04062B463C
:1019A0003446A2027A607A6842EA93527A609B02D5
:1019B0003B6097E8180018462146FB684FF000048A
:1019C0001A462346FEF704FC03460C467B610B4B8C
:1019D0005B681B0C03F0030301335B00BB607A6997
:1019E000BB68B2FBF3F33B6102E0054B3B6100BF18
:1019F0003B6918461C37BD46BDE8F08F00380240F1
:101A00000024F40040787D0180B400AF034B1B68D4
:101A10001846BD465DF8047B704700BF0C8000206F
:101A200080B500AFFFF7F0FF0146054B9B689B0AAE
:101A300003F00703034AD35C21FA03F3184680BD81
:101A400000380240786F000880B500AFFFF7DCFF78
:101A50000146054B9B685B0B03F00703034AD35C0D
:101A600021FA03F3184680BD00380240786F000861
:101A700080B483B000AF786039607B680F221A6051
:101A8000124B9B6803F003027B685A600F4B9B6804
:101A900003F0F0027B689A600C4B9B6803F4E05201
:101AA0007B68DA60094B9B68DB0803F4E0527B68D3
:101AB0001A61074B1B6803F00F023B681A6000BFF6
:101AC0000C37BD465DF8047B704700BF003802400C
:101AD000003C024080B582B000AF78607B68002B8C
:101AE00001D1012355E07B6800229A627B6893F85C
:101AF0005130DBB2002B06D17B68002283F85020E6
:101B0000786804F077FF7B68022283F851207B68B5
:101B10001B687A681268126822F040021A607B68BB
:101B20001B687A6851687A68926811437A68D2684B
:101B300011437A68126911437A68526911437A68CD
:101B4000926902F4007211437A68D26911437A688B
:101B5000126A11437A68926A0A431A607B681B68AA
:101B60007A689269120C02F004017A68526A0A4398
:101B70005A607B681B687A681268D26922F4006236
:101B8000DA617B6800225A657B68012283F8512064
:101B9000002318460837BD4680BD000080B586B0DA
:101BA00000AFF860B9601346FB800023FB75FB684B
:101BB00093F85030012B01D1022393E0FB680122FE
:101BC00083F85020FB6893F85130DBB2012B02D030
:101BD0000223FB7581E0BB68002B02D0FB88002B41
:101BE00002D10123FB7578E0FB68032283F85120C2
:101BF000FB6800225A65FB68BA681A63FB68FA88BA
:101C00009A86FB68FA88DA86FB6800229A63FB688A
:101C100000225A64FB6800221A64FB6800229A873B
:101C2000FB680022DA87FB689B68B3F5004F07D199
:101C3000FB681B68FA681268126842F480421A60F6
:101C4000FB689B6C294A1A64FB689B6C284ADA6320
:101C5000FB689B6C274ADA64FB689B6C00221A6560
:101C6000FB68986CFB681B6B1946FB681B680C33A0
:101C70001A46FB68DB8E9BB2FEF724FE0346002B60
:101C80000CD0FB685B6D43F01002FB685A650123C2
:101C9000FB75FB68012283F851201EE0FB681B687E
:101CA0001B6803F04003402B07D0FB681B68FA68F1
:101CB0001268126842F040021A60FB681B68FA68FA
:101CC0001268526842F020025A60FB681B68FA688A
:101CD0001268526842F002025A60FB68002283F8E0
:101CE0005020FB7D18461837BD4680BDB51F000843
:101CF0000D1F0008D11F000880B588B000AF7860C4
:101D00007B681B685B68FB617B681B689B68BB61C9
:101D1000BB6903F04003002B0ED1BB6903F0010344
:101D2000002B09D0FB6903F04003002B04D07B6833
:101D30001B6C78689847CFE0BB6903F00203002B67
:101D400009D0FB6903F08003002B04D07B685B6C37
:101D500078689847C0E0BB6903F02003002B0AD1E4
:101D6000BB6903F04003002B05D1BB6903F480730A
:101D7000002B00F0B180FB6903F02003002B00F082
:101D8000AB80BB6903F04003002B23D07B6893F842
:101D90005130DBB2032B11D07B685B6D43F0040242
:101DA0007B685A6500237B617B681B68DB687B610D
:101DB0007B681B689B687B617B690BE000233B6150
:101DC0007B681B68DB683B617B681B689B683B61C9
:101DD0003B6981E0BB6903F02003002B14D07B68D2
:101DE0005B6D43F001027B685A650023FB607B68F2
:101DF0001B689B68FB607B681B687A6812681268C6
:101E000022F040021A60FB68BB6903F48073002B68
:101E10000CD07B685B6D43F008027B685A65002339
:101E2000BB607B681B689B68BB60BB687B685B6D45
:101E3000002B50D07B681B687A681268526822F0C9
:101E4000E0025A607B68012283F85120FB6903F0AD
:101E50000203002B04D1FB6903F00103002B34D0F3
:101E60007B681B687A681268526822F003025A6025
:101E70007B68DB6C002B11D07B68DB6C184A1A6521
:101E80007B68DB6C1846FEF775FD0346002B05D01A
:101E90007B685B6D43F040027B685A657B689B6C96
:101EA000002B16D07B689B6C0D4A1A657B689B6C77
:101EB0001846FEF75FFD0346002B0AD07B685B6D7A
:101EC00043F040027B685A6503E0786800F014F83C
:101ED00000E000BF00BF00BF2037BD4680BD00BF8F
:101EE0001120000880B483B000AF786000BF0C37C9
:101EF000BD465DF8047B704780B483B000AF786066
:101F000000BF0C37BD465DF8047B704780B586B0D6
:101F100000AF78607B689B6B7B61FEF717FB3861D5
:101F20007B681B681B6803F48073B3F5807F3BD02C
:101F30007B691B687A691268526822F020025A6035
:101F40007B691B687A691268526822F002025A6043
:101F50003A696421786900F0D9F80346002B05D06E
:101F60007B695B6D43F020027B695A657B699B68E6
:101F7000002B0AD10023FB607B691B68DB68FB60D8
:101F80007B691B689B68FB60FB687B690022DA86C3
:101F90007B69012283F851207B695B6D002B03D0A4
:101FA0007869FFF7A9FF02E0786904F0C3FC1837ED
:101FB000BD4680BD80B584B000AF78607B689B6B08
:101FC000FB60F868FFF78EFF00BF1037BD4680BD8D
:101FD00080B584B000AF78607B689B6BFB60FB686A
:101FE0001B68FA681268526822F003025A60FB68A4
:101FF0005B6D43F01002FB685A65FB68012283F8B1
:102000005120F868FFF778FF00BF1037BD4680BD4C
:1020100080B584B000AF78607B689B6BFB60FB6829
:102020000022DA87FB680022DA86F868FFF764FF8F
:1020300000BF1037BD4680BD80B584B000AFF860EA
:10204000B9603B601346FB714CE03B68B3F1FF3F66
:1020500048D0FEF77BFA0246BB69D21A3B689A4227
:1020600002D23B68002B3DD1FB681B68FA681268FE
:10207000526822F0E0025A60FB685B68B3F5827F29
:1020800011D1FB689B68B3F5004F04D0FB689B68D7
:10209000B3F5806F07D1FB681B68FA681268126895
:1020A00022F040021A60FB689B6AB3F5005F0FD113
:1020B000FB681B68FA681268126822F400521A6002
:1020C000FB681B68FA681268126842F400521A60D2
:1020D000FB68012283F85120FB68002283F850201E
:1020E00003230FE0FB681B689A68BB681A40BB6853
:1020F0009A420CBF01230023DBB21A46FB799A42B5
:10210000A3D1002318461037BD4680BD80B588B0E6
:1021100002AFF860B9607A601B4B1B681B4AA2FBD8
:1021200003235B0D4FF47A7202FB03F37B61FB68C0
:102130005B68B3F5827F12D17B680093BB68002295
:102140008021F868FFF778FF0346002B16D0FB6864
:102150005B6D43F02002FB685A6503230FE07B6947
:10216000002B0AD07B69013B7B61FB681B689B6885
:1021700003F08003802BF2D000E000BF002318465C
:102180001837BD4680BD00BF0C800020819F5E16C1
:1021900080B582B000AF78607B68002B01D101234D
:1021A0001DE07B6893F83D30DBB2002B06D17B68E5
:1021B000002283F83C20786800F015F87B68022242
:1021C00083F83D207B681A687B6804331946104603
:1021D00000F068F97B68012283F83D20002318464F
:1021E0000837BD4680BD80B483B000AF786000BFC3
:1021F0000C37BD465DF8047B704780B485B000AFF6
:1022000078607B681B687A681268D26842F00102C5
:10221000DA607B681B689B6803F00703FB60FB6860
:10222000062B07D07B681B687A681268126842F038
:1022300001021A60002318461437BD465DF8047B7E
:10224000704780B582B000AF78607B681B681B69FF
:1022500003F00203022B22D17B681B68DB6803F0CA
:102260000203022B1BD17B681B686FF002021A610C
:102270007B6801221A777B681B689B6903F0030364
:10228000002B03D0786800F0EEF805E0786800F0E5
:10229000E0F8786800F0F1F87B6800221A777B6834
:1022A0001B681B6903F00403042B22D17B681B68A5
:1022B000DB6803F00403042B1BD17B681B686FF001
:1022C00004021A617B6802221A777B681B689B698B
:1022D00003F44073002B03D0786800F0C4F805E0E5
:1022E000786800F0B6F8786800F0C7F87B680022DC
:1022F0001A777B681B681B6903F00803082B22D13F
:102300007B681B68DB6803F00803082B1BD17B6824
:102310001B686FF008021A617B6804221A777B68D9
:102320001B68DB6903F00303002B03D0786800F01F
:102330009AF805E0786800F08CF8786800F09DF86D
:102340007B6800221A777B681B681B6903F0100307
:10235000102B22D17B681B68DB6803F01003102B65
:102360001BD17B681B686FF010021A617B68082222
:102370001A777B681B68DB6903F44073002B03D07A
:10238000786800F070F805E0786800F062F8786826
:1023900000F073F87B6800221A777B681B681B6962
:1023A00003F00103012B0ED17B681B68DB6803F08F
:1023B0000103012B07D17B681B686FF001021A61D2
:1023C000786804F0D1FA7B681B681B6903F080030E
:1023D000802B0ED17B681B68DB6803F08003802BA9
:1023E00007D17B681B686FF080021A61786800F083
:1023F00003F97B681B681B6903F04003402B0ED177
:102400007B681B68DB6803F04003402B07D17B68C7
:102410001B686FF040021A61786800F038F87B683A
:102420001B681B6903F02003202B0ED17B681B68FF
:10243000DB6803F02003202B07D17B681B686FF05B
:1024400020021A61786800F0CDF800BF0837BD4659
:1024500080BD80B483B000AF786000BF0C37BD464C
:102460005DF8047B704780B483B000AF786000BF34
:102470000C37BD465DF8047B704780B483B000AF75
:10248000786000BF0C37BD465DF8047B704780B4B0
:1024900083B000AF786000BF0C37BD465DF8047BA9
:1024A0007047000080B485B000AF786039607B6809
:1024B0001B68FB607B68404A934213D07B68B3F192
:1024C000804F0FD07B683D4A93420BD07B683C4ADB
:1024D000934207D07B683B4A934203D07B683A4AD9
:1024E000934208D1FB6823F07003FB603B685B6894
:1024F000FA681343FB607B682F4A93422BD07B68BA
:10250000B3F1804F27D07B682C4A934223D07B685D
:102510002B4A93421FD07B682A4A93421BD07B6888
:10252000294A934217D07B68284A934213D07B688C
:10253000274A93420FD07B68264A93420BD07B6890
:10254000254A934207D07B68244A934203D07B6894
:10255000234A934208D1FB6823F44073FB603B6835
:10256000DB68FA681343FB60FB6823F080023B687A
:102570005B691343FB607B68FA681A603B689A6882
:102580007B68DA623B681A687B689A627B680A4AF1
:10259000934203D07B680C4A934203D13B681A698B
:1025A0007B681A637B6801225A6100BF1437BD46FD
:1025B0005DF8047B704700BF00000140000400404C
:1025C00000080040000C00400004014000400140B1
:1025D000004401400048014000180040001C004039
:1025E0000020004080B483B000AF786000BF0C379B
:1025F000BD465DF8047B704780B483B000AF78605F
:1026000000BF0C37BD465DF8047B704780B582B0D3
:1026100000AF78607B68002B01D101233FE07B682D
:1026200093F83930DBB2002B06D17B68002283F8A7
:102630003820786804F058FA7B68242283F839201F
:102640007B681B687A681268D26822F40052DA60EC
:10265000786800F067FA7B681B687A68126812690C
:1026600022F490421A617B681B687A68126852698A
:1026700022F02A025A617B681B687A681268D26865
:1026800042F40052DA607B680022DA637B68202221
:1026900083F839207B68202283F83A2000231846EB
:1026A0000837BD4680BD000080B588B000AF7860B7
:1026B0007B681B681B68FB617B681B68DB68BB6110
:1026C0007B681B685B697B6100233B610023FB60C7
:1026D000FB6903F00F033B613B69002B0DD1FB69E4
:1026E00003F02003002B08D0BB6903F02003002B6C
:1026F00003D0786800F095F9D1E03B69002B00F039
:10270000B0807B6903F00103002B05D1BB6903F4A2
:102710009073002B00F0A580FB6903F00103002BF0
:102720000AD0BB6903F48073002B05D07B68DB6B98
:1027300043F001027B68DA63FB6903F00403002BBA
:102740000AD07B6903F00103002B05D07B68DB6BAB
:1027500043F002027B68DA63FB6903F00203002B9B
:102760000AD07B6903F00103002B05D07B68DB6B8B
:1027700043F004027B68DA63FB6903F00803002B73
:102780000FD0BB6903F02003002B04D17B6903F059
:102790000103002B05D07B68DB6B43F008027B68EC
:1027A000DA637B68DB6B002B78D0FB6903F02003D6
:1027B000002B07D0BB6903F02003002B02D0786800
:1027C00000F02FF97B681B685B6903F04003402B26
:1027D0000CBF01230023DBB2FB607B68DB6B03F0E3
:1027E0000803002B02D1FB68002B31D0786800F081
:1027F00079F87B681B685B6903F04003402B23D1A9
:102800007B681B687A681268526922F040025A613C
:102810007B685B6B002B13D07B685B6B214A1A656E
:102820007B685B6B1846FEF7A5F80346002B16D0B5
:102830007B685B6B1B6D7A68526B104698470EE0A5
:10284000786800F045F80AE0786800F041F806E0A2
:10285000786800F03DF87B680022DA631EE000BF74
:102860001CE0FB6903F08003002B08D0BB6903F078
:102870008003002B03D0786800F066F80FE0FB6956
:1028800003F04003002B0AD0BB6903F04003002B88
:1028900005D0786800F0ADF800BF00E000BF203739
:1028A000BD4680BD2129000880B483B000AF7860A8
:1028B00000BF0C37BD465DF8047B704780B483B021
:1028C00000AF786000BF0C37BD465DF8047B7047F1
:1028D00080B483B000AF786000BF0C37BD465DF8B0
:1028E000047B704780B483B000AF78607B681B685E
:1028F0007A681268D26822F49072DA607B681B688A
:102900007A681268526922F001025A617B682022BB
:1029100083F83A2000BF0C37BD465DF8047B704752
:1029200080B584B000AF78607B689B6BFB60FB6810
:102930000022DA85FB680022DA84F868FFF7C8FF16
:1029400000BF1037BD4680BD80B485B000AF786051
:102950007B6893F83930DBB2212B43D17B689B68CD
:10296000B3F5805F19D17B681B6AFB607B681B68CD
:10297000FA681288C2F308025A607B681B69002B50
:1029800005D17B681B6A9A1C7B681A620EE07B6823
:102990001B6A5A1C7B681A6208E07B681A687B68AD
:1029A0001B6A581C796808621B7853607B68DB8C53
:1029B0009BB2013B9BB27A681946D184002B0FD1A0
:1029C0007B681B687A681268D26822F08002DA603D
:1029D0007B681B687A681268D26842F04002DA604D
:1029E000002300E0022318461437BD465DF8047B3F
:1029F000704780B582B000AF78607B681B687A68EA
:102A00001268D26822F04002DA607B68202283F8E4
:102A100039207868FFF748FF002318460837BD467D
:102A200080BD80B584B000AF78607B6893F83A30A1
:102A3000DBB2222B71D17B689B68B3F5805F23D119
:102A40007B689B6AFB607B681B69002B0ED17B68EF
:102A50001B685B689BB2C3F308039AB2FB681A80D9
:102A60007B689B6A9A1C7B689A6229E07B681B687A
:102A70005B689BB2DBB29AB2FB681A807B689B6A88
:102A80005A1C7B689A621BE07B681B69002B0AD189
:102A90007B689B6A591C7A6891627A6812685268EE
:102AA000D2B21A700CE07B689B6A591C7A689162FA
:102AB0007A6812685268D2B202F07F02D2B21A70FB
:102AC0007B68DB8D9BB2013B9BB27A681946D1854E
:102AD000002B20D17B681B687A681268D26822F0CC
:102AE0002002DA607B681B687A681268D26822F478
:102AF0008072DA607B681B687A681268526922F01B
:102B000001025A617B68202283F83A207868FFF737
:102B1000D5FE002302E0002300E002231846103710
:102B2000BD4680BD2DE9F04FA3B000AFF867FB6F45
:102B30001968FB6F1B681B6923F44052FB6FDB684D
:102B400013430B61FB6F9A68FB6F1B691A43FB6FA2
:102B50005B691A43FB6FDB691343C7F88430FB6F73
:102B60001968FB6F1B68DB6823F4164222F00C0225
:102B7000D7F884301343CB60FB6F1968FB6F1B6879
:102B80005B6923F44072FB6F9B6913434B61FB6FDE
:102B9000DB69B3F5004F40F07181FB6F1B68B44AED
:102BA000934205D0FB6F1B68B24A934240F0B1805C
:102BB000FEF74AFFC7F88000FB6F1D68D7F880302A
:102BC00019464FF000020B461446DB1844EB040490
:102BD0005B1844EB0204E0007864786C40EA5370C0
:102BE0007864DB003B64D7E9103413EB010844EB55
:102BF000020940464946FB6F5B684FF00004DB1852
:102C000044EB04041A462346FDF7E2FA03460C4659
:102C10001A46994BA3FB02235B091E01D7F88030AB
:102C200019464FF000020B461446DB1844EB04042F
:102C30005B1844EB0204E000F863F86B40EA537061
:102C4000F863DB00BB63D7E90E3413EB010844EBF8
:102C5000020940464946FB6F5B684FF00004DB18F1
:102C600044EB04041A462346FDF7B2FA03460C4629
:102C70001A46814BA3FB02135B09642101FB03F39A
:102C8000D31ADB0032337C4AA2FB03235B095B00CF
:102C900003F4F8731E44D7F8803019464FF0000251
:102CA0000B461446DB1844EB04045B1844EB0204A7
:102CB000E0007863786B40EA53707863DB003B6335
:102CC000D7E90C3413EB010844EB020940464946AE
:102CD000FB6F5B684FF00004DB1844EB04041A46FA
:102CE0002346FDF775FA03460C461A46624BA3FBD2
:102CF00002135B09642101FB03F3D31ADB003233B7
:102D00005D4AA2FB03235B0903F007033344AB6076
:102D100040E2FEF785FEC7F88000FB6F1A683A674D
:102D2000D7F8803019464FF000020B461446DB18E6
:102D300044EB04045B1844EB0204E000F862F86A18
:102D400040EA5370F862DB00BB62D7E90A345D18D1
:102D500044EB020628463146FB6F5B684FF00004E7
:102D6000DB1844EB04041A462346FDF731FA034608
:102D70000C461A46404BA3FB02235B091E01D7F801
:102D8000803019464FF000020B461446DB1844EB26
:102D900004045B1844EB02044FEAC40B4BEA537B78
:102DA0004FEAC30A53465C4613EB010A44EB020B9D
:102DB00050465946FB6F5B684FF00004DB1844EB4C
:102DC00004041A462346FDF703FA03460C461A4646
:102DD000294BA3FB02135B09642101FB03F3D31A04
:102DE000DB003233244AA2FB03235B095B0003F4BC
:102DF000F8731E44D7F8803019464FF000020B4696
:102E00001446DB1844EB04045B1844EB02044FEA5D
:102E1000C40949EA53794FEAC30843464C4613EBC9
:102E2000010844EB020940464946FB6F5B684FF0DE
:102E30000004DB1844EB04041A462346FDF7C8F9E6
:102E400003460C461A460C4BA3FB02135B09642194
:102E500001FB03F3D31ADB003233074AA2FB03233F
:102E60005B0903F0070333443A6F936092E100BFBC
:102E700000100140001401401F85EB51FB6F1A68E0
:102E8000C14B9A4205D0FB6F1A68C04B9A4240F082
:102E9000BF80FEF7D9FDC7F88000FB6F1E68D7F82A
:102EA000803019464FF000020B461446DB1844EB05
:102EB00004045B1844EB0204E0007862786A40EA9C
:102EC00053707862DB003B62D7E9083413EB0108EA
:102ED00044EB020940464946FB6F5B684FF0000433
:102EE000A200FA65FA6D42EA9372FA659B00BB652F
:102EF000D7E91623FDF76CF903460C461A46A44B96
:102F0000A3FB02235B091D01D7F8803019464FF05F
:102F100000020B461446DB1844EB04045B1844EB38
:102F20000204E000F861F86940EA5370F861DB00E0
:102F3000BB61D7E9063413EB010844EB02094046B4
:102F40004946FB6F5B684FF00004A2007A657A6D1A
:102F500042EA93727A659B003B65D7E91423FDF73B
:102F600037F903460C461A46894BA3FB02135B094B
:102F7000642101FB03F3D31A1B013233844AA2FB01
:102F800003235B0903F0F0031D44D7F88030194692
:102F90004FF000020B461446DB1844EB04045B18A8
:102FA00044EB0204E0007861786940EA537078618C
:102FB000DB003B61D7E9043413EB010844EB020961
:102FC00040464946FB6F5B684FF00004A200FA647C
:102FD000FA6C42EA9372FA649B00BB64D7E912234D
:102FE000FDF7F6F803460C461A46694BA3FB02139D
:102FF0005B09642101FB03F3D31A1B013233644ADA
:10300000A2FB03235B0903F00F032B44B360C1E071
:10301000FEF706FDC7F88000FB6F1B68BB65D7F89D
:10302000803019464FF000020B461446DB1844EB83
:1030300004045B1844EB0204E60046EA5376DD0024
:103040002B4634465D1844EB020628463146FB6F9A
:103050005B684FF00004A5007D677D6F45EA9375BE
:103060007D679C003C67D7E91C23FDF7B1F8034658
:103070000C461A46464BA3FB02135B091D01D7F809
:10308000803019464FF000020B461446DB1844EB23
:1030900004045B1844EB0204E000F860F86840EABE
:1030A0005370F860D800B860D7E9023413EB010818
:1030B00044EB020940464946FB6F5B684FF0000451
:1030C000A600FE66FE6E46EA9376FE669C00BC662F
:1030D000D7E91A23FDF77CF803460C461A462C4B19
:1030E000A3FB02135B09642101FB03F3D31A1B0149
:1030F0003233274AA2FB03135B0903F0F0031D449C
:10310000D7F8803019464FF000020B461446DB1802
:1031100044EB04045B1844EB0204E0007860786838
:1031200040EA53707860D800386097E8180013EBD5
:10313000010844EB020940464946FB6F5B684FF0CB
:103140000004A6007E667E6E46EA93767E669C004C
:103150003C66D7E91823FDF73BF803460C461A46B0
:103160000B4BA3FB02135B09642101FB03F3D31A8E
:103170001B013233064AA2FB03135B0903F00F0362
:103180002B44BA6D936005E000100140001401402B
:103190001F85EB5100BF8C37BD46BDE8F08F00BFE7
:1031A00080B500AF002210210248FEF707F800BFEB
:1031B00080BD00BF0000024080B500AF0122102199
:1031C0000248FDF7FBFF00BF80BD00BF00000240CA
:1031D00080B500AFFFF7E4FF002202210748FDF7AA
:1031E000EDFF0520FDF7BEF9012202210348FDF79E
:1031F000E5FFFFF7E1FF00BF80BD00BF000C02400C
:1032000080B582B000AF0346FB710D4B1B684FF0D9
:10321000FF31184601F0ACFB0A4AFB791370FFF747
:10322000BFFF00224FF480710748FDF7C7FF01225E
:1032300004490648FEF7B2FC00BF0837BD4680BD12
:10324000F86A01202C20012000080240E0690120DA
:1032500080B584B000AF78603960164B1B684FF0C2
:10326000FF31184601F084FB0023FB600AE0FB6895
:10327000114A1344FA6879680A4412781A70FB6894
:103280000133FB60FA683B689A42F0D3FFF788FF8E
:1032900001224FF480710948FDF790FF3B689BB213
:1032A0001A4605490648FEF779FC00BF1037BD46AF
:1032B00080BD00BFF86A01202C8000200008024079
:1032C000E069012080B584B000AF78607B685A1C4B
:1032D0007A601B78FB7334E07B685A1C7A601B7839
:1032E000FB72FB7A1846FFF78BFF7B685A1C7A60EB
:1032F0001B78BB72BB7A9BB203F08003BB81BB7AA5
:1033000003F07F03BB72BB7A002B08D0BB7A19464F
:103310007868FFF79DFFBB7A7A6813447B60BB89AE
:10332000002B0ED07B685A1C7A601B78BB81BB894E
:10333000FF2B02D14FF4FA73BB81BB891846FDF70E
:1033400011F9FB7B5A1EFA73002BC5D100BF103751
:10335000BD4680BD90B585B000AF04460846114615
:103360001A462346FB710346BB710B467B7113461D
:103370003B712A20FFF744FF00233B73FB797B73EB
:103380000023BB737B79FB7307F10C030421184600
:10339000FFF75EFF2B20FFF733FFBB797B733B7991
:1033A000FB7307F10C0304211846FFF751FF2C2093
:1033B000FFF726FF00BF1437BD4690BD80B500AFB4
:1033C000FFF706FF0548FFF77DFF0548FFF77AFF87
:1033D0000448FFF777FF00BF80BD00BFCC6E000838
:1033E000086F0008186F000890B583B000AF04465E
:1033F000084611461A462346FB800346BB800B460F
:103400007B8013463B80FB889F2B2FD8BB887F2B6C
:103410002CD8FA887B881344013B9F2B28DCBA8880
:103420003B881344013B7F2B24DCFB88D8B2BB884C
:10343000D9B2FB88DAB27B88DBB21344DBB2013B42
:10344000DCB2BB88DAB23B88DBB21344DBB2013BAF
:10345000DBB22246FFF77EFF7B883A8802FB03F34C
:103460005B001946B869FFF7F3FE04E000BF02E015
:1034700000BF00E000BF0C37BD4690BD80B400AF78
:1034800000BFBD465DF8047B7047000080B485B086
:1034900000AFEFF30583BB60BB68002B0FD1EFF3E8
:1034A00010837B607B68002B05D1EFF311833B60B9
:1034B0003B68002B07D00E4B1B68022B03D16FF02B
:1034C0000503FB600CE00A4B1B68002B05D1084B81
:1034D00001221A600023FB6002E04FF0FF33FB6023
:1034E000FB6818461437BD465DF8047B704700BF83
:1034F0003020012080B584B000AFEFF30583BB60BE
:10350000BB68002B0FD1EFF310837B607B68002B2F
:1035100005D1EFF311833B603B68002B07D00F4BC5
:103520001B68022B03D16FF00503FB6010E00B4B0F
:103530001B68012B09D1FFF7A1FF084B02221A607B
:1035400001F074FE0023FB6002E04FF0FF33FB60EC
:10355000FB6818461037BD4680BD00BF30200120F3
:1035600080B590B004AFF860B9607A6000233B6129
:10357000EFF30583FB61FB69002B40F08F80EFF3D5
:103580001083BB61BB69002B05D1EFF311837B6115
:103590007B69002B03D0444B1B68022B7ED0FB6859
:1035A000002B7BD08023BB6218237B620023FB624D
:1035B0004FF0FF333B627B68002B45D07B681B6874
:1035C000002B02D07B681B68FB627B689B69002B29
:1035D00002D07B689B697B627B6A002B08D07B6A88
:1035E000382B05D87B685B6803F00103002B01D002
:1035F000002354E07B685B69002B03D07B685B6928
:103600009B08BB627B689B68002B0ED07B68DB68E5
:103610005B2B0AD97B681B69002B06D07B685B6932
:10362000002B02D001233B6210E07B689B68002BDB
:103630000CD17B68DB68002B08D17B681B69002BF1
:1036400004D100233B6201E000233B623B6A012B73
:1036500010D17B681B697A689268029201937B6A39
:103660000093BB68BA6AF96AF86801F00DFC03467A
:103670003B6113E03B6A002B10D1BB6A9AB207F1A1
:10368000100301937B6A0093BB68F96AF86801F044
:1036900055FC0346012B01D000233B613B691846D2
:1036A0003037BD4680BD00BF3020012080B586B0D8
:1036B00000AF7860EFF305833B613B69002B0FD1CE
:1036C000EFF31083FB60FB68002B05D1EFF3118350
:1036D000BB60BB68002B07D00A4B1B68022B03D1D1
:1036E0006FF005037B6107E000237B617B68002BA3
:1036F00002D0786801F066FD7B6918461837BD4630
:1037000080BD00BF3020012080B485B000AFF860DC
:10371000B9607A60FB68074A1A60BB68064A1A609B
:103720007B6880221A6000BF1437BD465DF8047BB9
:10373000704700BF342001209020012080B485B064
:1037400000AFF860B9607A60FB68074A1A60BB682E
:10375000064A1A607B684FF480721A6000BF143703
:10376000BD465DF8047B704790220120EC220120C9
:1037700080B483B000AF78607B6803F108027B6897
:103780005A607B684FF0FF329A607B6803F1080251
:103790007B68DA607B6803F108027B681A617B68EA
:1037A00000221A6000BF0C37BD465DF8047B7047ED
:1037B00080B483B000AF78607B6800221A6100BFDC
:1037C0000C37BD465DF8047B704780B485B000AF10
:1037D000786039607B685B68FB603B68FA685A60B8
:1037E000FB689A683B689A60FB689B683A685A6015
:1037F000FB683A689A603B687A681A617B681B6864
:103800005A1C7B681A6000BF1437BD465DF8047B04
:10381000704780B485B000AF786039603B681B6842
:10382000BB60BB68B3F1FF3F03D17B681B69FB60E2
:103830000CE07B680833FB6002E0FB685B68FB60C0
:10384000FB685B681A68BB689A42F6D9FB685A68DD
:103850003B685A603B685B683A689A603B68FA6804
:103860009A60FB683A685A603B687A681A617B68BC
:103870001B685A1C7B681A6000BF1437BD465DF890
:10388000047B704780B485B000AF78607B681B69AB
:10389000FB607B685B687A6892689A607B689B686B
:1038A0007A6852685A60FB685A687B689A4203D10A
:1038B0007B689A68FB685A607B6800221A61FB6823
:1038C0001B685A1EFB681A60FB681B681846143791
:1038D000BD465DF8047B704780B485B000AFF860EA
:1038E000B9607A60FB68043BFB60FB684FF0807254
:1038F0001A60FB68043BFB60BB6823F00102FB68B5
:103900001A60FB68043BFB600C4AFB681A60FB68AA
:10391000143BFB607A68FB681A60FB68043BFB6041
:10392000FB686FF002021A60FB68203BFB60FB68DB
:1039300018461437BD465DF8047B704741390008CE
:1039400080B485B000AF00237B60114B1B68B3F1DE
:10395000FF3F09D04FF0500383F31188BFF36F8FFF
:10396000BFF34F8FFB60FEE74FF0500383F31188E6
:10397000BFF36F8FBFF34F8FBB6000BF7B68002B1F
:10398000FCD000BF1437BD465DF8047B704700BF14
:1039900008000020000000000000000000000000FF
:1039A000074B19680868B0E8F04F80F30988BFF347
:1039B0006F8F4FF0000080F311887047AFF30080E5
:1039C0000C63012000BF00BF08480068006880F356
:1039D00008884FF0000080F3148862B661B6BFF328
:1039E0004F8FBFF36F8F00DF00BF00BF08ED00E017
:1039F00080B586B000AF444B1B68444A934209D15E
:103A00004FF0500383F31188BFF36F8FBFF34F8FD5
:103A10003B61FEE73C4B1B683D4A934209D14FF0A6
:103A2000500383F31188BFF36F8FBFF34F8FFB6099
:103A3000FEE7384B7B617B691B78DBB27B607B697F
:103A4000FF221A707B691B78DBB2FB70FB78DBB25C
:103A500003F05003DAB2304B1A70304B07221A6071
:103A600009E02E4B1B68013B2C4A1360FB78DBB24C
:103A70005B00DBB2FB70FB78DBB203F08003802BD2
:103A8000EFD0264B1B68C3F10703042B09D04FF07E
:103A9000500383F31188BFF36F8FBFF34F8FBB6069
:103AA000FEE71E4B1B681B021C4A13601B4B1B6866
:103AB00003F4E063194A13607B68DAB27B691A7019
:103AC000174A174B1B6843F470031360144A144BD6
:103AD0001B6843F07043136000F0D6F8114B0022CE
:103AE0001A6000F0F5F8104A0F4B1B6843F0404392
:103AF0001360FFF769FF01F06FFDFFF721FF00235F
:103B000018461837BD4680BD00ED00E071C20F4178
:103B100070C20F4100E400E0EC260120F0260120F5
:103B200020ED00E00800002034EF00E080B483B016
:103B300000AF4FF0500383F31188BFF36F8FBFF3D3
:103B40004F8F7B600E4B1B6801330D4A13600C4B8B
:103B50001B68012B0ED10B4B1B68DBB2002B09D06D
:103B60004FF0500383F31188BFF36F8FBFF34F8F74
:103B70003B60FEE700BF0C37BD465DF8047B704735
:103B80000800002004ED00E080B483B000AF114BCA
:103B90001B68002B09D14FF0500383F31188BFF34A
:103BA0006F8FBFF34F8F7B60FEE70A4B1B68013BB3
:103BB000084A1360074B1B68002B04D100233B60AD
:103BC0003B6883F3118800BF0C37BD465DF8047B6A
:103BD000704700BF08000020000000000000000047
:103BE000EFF30980BFF36F8F154B1A681EF0100FAB
:103BF00008BF20ED108A20E9F04F10602DE9090080
:103C00004FF0500080F31188BFF34F8FBFF36F8FD9
:103C100001F0E2FC4FF0000080F3118809BC196844
:103C20000868B0E8F04F1EF0100F08BFB0EC108A23
:103C300080F30988BFF36F8F704700BFAFF3008038
:103C40000C63012000BF00BF80B582B000AF4FF011
:103C5000500383F31188BFF36F8FBFF34F8F7B60E7
:103C600001F002FC0346002B03D0064B4FF08052BC
:103C70001A6000233B603B6883F3118800BF08375C
:103C8000BD4680BD04ED00E080B400AF0B4B0022C8
:103C90001A600B4B00221A600A4A0B4B1B680B4937
:103CA000A1FB03139B09013B1360044B07221A601D
:103CB00000BFBD465DF8047B704700BF10E000E028
:103CC00018E000E014E000E00C800020D34D62100A
:103CD000DFF80C00016841F470010160704700BF1B
:103CE00088ED00E080B485B000AFEFF30583FB60A2
:103CF000FB680F2B13D9164AFB6813441B78FB7221
:103D0000144B1B78FA7A9A4209D24FF0500383F38E
:103D10001188BFF36F8FBFF34F8F7B60FEE70E4BB1
:103D20001B6803F4E0620D4B1B689A4209D94FF0FF
:103D3000500383F31188BFF36F8FBFF34F8F3B6046
:103D4000FEE700BF1437BD465DF8047B704700BF37
:103D5000F0E300E0EC2601200CED00E0F02601206D
:103D600080B58AB000AF78600023FB6101F0C2FA31
:103D7000574B1B68002B01D100F00CF9554B1A680A
:103D80007B681340002B40F08C807B68002B1CD09C
:103D900008227B6813447B607B6803F00703002BD9
:103DA00013D07B6823F0070308337B607B6803F044
:103DB0000703002B09D04FF0500383F31188BFF3A2
:103DC0006F8FBFF34F8F7B61FEE77B68002B68D05E
:103DD000414B1B687A689A4263D8404B3B623F4B29
:103DE0001B687B6204E07B6A3B627B6A1B687B62C8
:103DF0007B6A5A687B689A4203D27B6A1B68002BF5
:103E0000F1D1334B1B687A6A9A424AD03B6A1B68ED
:103E100008221344FB617B6A1A683B6A1A607B6A5A
:103E20005A687B68D21A08235B009A421ED97A6AC4
:103E30007B681344BB61BB6903F00703002B09D007
:103E40004FF0500383F31188BFF36F8FBFF34F8F91
:103E50003B61FEE77B6A5A687B68D21ABB695A608D
:103E60007B6A7A685A60B86900F0F6F81A4B1A68EB
:103E70007B6A5B68D31A184A1360174B1A68184B91
:103E80001B689A4203D2144B1B68154A13607B6A65
:103E90005A68104B1B681A437B6A5A607B6A00227F
:103EA0001A6001F035FAFB6903F00703002B09D013
:103EB0004FF0500383F31188BFF36F8FBFF34F8F21
:103EC000FB60FEE7FB6918462837BD4680BD00BF92
:103ED000FC6201200863012000630120F4620120DC
:103EE0000463012080B586B000AF78607B687B6199
:103EF0007B68002B46D008235B427A6913447B61C0
:103F00007B693B613B695A68204B1B681340002B5F
:103F100009D14FF0500383F31188BFF36F8FBFF3C4
:103F20004F8FFB60FEE73B691B68002B09D04FF009
:103F3000500383F31188BFF36F8FBFF34F8FBB60C4
:103F4000FEE73B695A68114B1B681340002B19D0E0
:103F50003B691B68002B15D13B695A680B4B1B68EA
:103F6000DB431A403B695A6001F0C4F93B695A6867
:103F7000074B1B681344064A1360386900F06CF85D
:103F800001F0C6F900BF1837BD4680BD08630120A7
:103F90000063012080B485B000AF4FF47053BB6064
:103FA000274BFB60FB6803F00703002B0CD0FB687A
:103FB0000733FB60FB6823F00703FB60BA68FB680C
:103FC000D31A1F4A1344BB60FB687B601D4A7B68A1
:103FD00013601C4B00225A607A68BB681344FB6074
:103FE0000822FB689B1AFB60FB6823F00703FB6059
:103FF000FB68154A1360144B1B6800225A60124B71
:104000001B6800221A607B683B603B68FA68D21A22
:104010003B685A600C4B1A683B681A603B685B68E7
:104020000A4A13603B685B68094A1360094B4FF00A
:1040300000421A6000BF1437BD465DF8047B70472C
:10404000F4260120F4620120FC62012004630120B7
:10405000006301200863012080B485B000AF786060
:10406000284BFB6002E0FB681B68FB60FB681A687A
:104070007B689A42F7D3FB68BB60FB685B68BA68F1
:104080001A447B689A4208D1FB685A687B685B686F
:104090001A44FB685A60FB687B607B68BB607B6886
:1040A0005B68BA681A44FB681B689A4218D1FB68BF
:1040B0001A68154B1B689A420DD07B685A68FB68DA
:1040C0001B685B681A447B685A60FB681B681A6847
:1040D0007B681A6008E00C4B1A687B681A6003E082
:1040E000FB681A687B681A60FA687B689A4202D09B
:1040F000FB687A681A6000BF1437BD465DF8047B20
:10410000704700BFF4620120FC62012080B584B0DA
:1041100000AF786039607B68FB60FB68002B09D1D9
:104120004FF0500383F31188BFF36F8FBFF34F8FAE
:10413000BB60FEE7FFF7FAFCFB681A68FB68DB6B05
:10414000F968096C01FB03F31A44FB689A60FB6889
:1041500000229A63FB681A68FB685A60FB681A6859
:10416000FB68DB6B013BF968096C01FB03F31A4444
:10417000FB68DA60FB68FF2283F84420FB68FF22BB
:1041800083F845203B68002B14D1FB681B69002B8A
:104190001AD0FB681033184601F0C8FA0346002B0A
:1041A00012D00D4B4FF080521A60BFF34F8FBFF308
:1041B0006F8F09E0FB6810331846FFF7D9FAFB68E8
:1041C00024331846FFF7D4FAFFF7DEFC0123184624
:1041D0001037BD4680BD00BF04ED00E080B58EB055
:1041E00002AFF860B9607A603B60FB68002B09D1D0
:1041F0004FF0500383F31188BFF36F8FBFF34F8FDE
:10420000BB62FEE73B68002B09D14FF0500383F3FC
:104210001188BFF36F8FBFF34F8F7B62FEE77B6820
:10422000002B02D0BB68002B01D0012300E000234B
:10423000002B09D14FF0500383F31188BFF36F8F28
:10424000BFF34F8F3B62FEE77B68002B02D1BB6858
:10425000002B01D1012300E00023002B09D14FF0F6
:10426000500383F31188BFF36F8FBFF34F8FFB6150
:10427000FEE750237B617B69502B09D04FF0500340
:1042800083F31188BFF36F8FBFF34F8FBB61FEE7DE
:104290007B693B68FB62FB6A002B0DD0FB6A012245
:1042A00083F8462097F83820FB6A009313467A6813
:1042B000B968F86800F044F8FB6A18463037BD4624
:1042C00080BD80B58AB002AFF860B9601346FB715B
:1042D000FB68002B09D14FF0500383F31188BFF323
:1042E0006F8FBFF34F8F3B61FEE7BB68002B02D19E
:1042F0000023FB6104E0FB68BA6802FB03F3FB6187
:10430000FB6950331846FFF72BFDB861BB69002BE2
:1043100011D0BB697B617B6950337B61BB69002233
:1043200083F84620FA79BB69009313467A69B96825
:10433000F86800F005F8BB6918462037BD4680BD17
:1043400080B584B000AFF860B9607A60FB70BB687C
:10435000002B03D1BB69BA691A6002E0BB697A68B5
:104360001A60BB69FA68DA63BB69BA681A6401212A
:10437000B869FFF7CBFEBB69FA7883F84C2000BF21
:104380001037BD4680BD000080B58EB000AFF8602C
:10439000B9607A603B6000237B63FB683B633B6BE7
:1043A000002B09D14FF0500383F31188BFF36F8FB7
:1043B000BFF34F8FBB62FEE7BB68002B03D13B6BA3
:1043C0001B6C002B01D1012300E00023002B09D13D
:1043D0004FF0500383F31188BFF36F8FBFF34F8FFC
:1043E0007B62FEE73B68022B03D13B6BDB6B012B4F
:1043F00001D1012300E00023002B09D14FF050032D
:1044000083F31188BFF36F8FBFF34F8F3B62FEE7DB
:1044100001F042FB0346002B02D17B68002B01D147
:10442000012300E00023002B09D14FF0500383F358
:104430001188BFF36F8FBFF34F8FFB61FEE7FFF76C
:1044400075FB3B6B9A6B3B6BDB6B9A4202D33B6811
:10445000022B29D13A68B968386B00F0A9FBF862E1
:104460003B6B5B6A002B10D03B6B2433184601F08A
:104470005DF90346002B13D03F4B4FF080521A607A
:10448000BFF34F8FBFF36F8F0AE0FB6A002B07D09B
:10449000394B4FF080521A60BFF34F8FBFF36F8FCD
:1044A000FFF772FB012363E07B68002B03D1FFF76A
:1044B0006BFB00235CE07B6B002B06D107F1140340
:1044C000184601F095F901237B63FFF75DFB00F0CF
:1044D00011FFFFF72BFB3B6B93F844305BB2B3F15A
:1044E000FF3F03D13B6B002283F844203B6B93F8E2
:1044F00045305BB2B3F1FF3F03D13B6B002283F841
:104500004520FFF741FB3A1D07F1140311461846F9
:1045100001F084F90346002B24D1386B00F040FCF5
:104520000346002B18D03B6B10337A6811461846AF
:1045300001F0AEF8386B00F0CBFB00F0E9FE03466B
:10454000002B7FF47CAF0C4B4FF080521A60BFF30E
:104550004F8FBFF36F8F72E7386B00F0B9FB00F03D
:10456000D7FE6CE7386B00F0B3FB00F0D1FE002300
:1045700018463837BD4680BD04ED00E080B58EB0EA
:1045800000AFF860B9607A603B60FB683B633B6BEF
:10459000002B09D14FF0500383F31188BFF36F8FC5
:1045A000BFF34F8F7B62FEE7BB68002B03D13B6BF1
:1045B0001B6C002B01D1012300E00023002B09D14B
:1045C0004FF0500383F31188BFF36F8FBFF34F8F0A
:1045D0003B62FEE73B68022B03D13B6BDB6B012B9D
:1045E00001D1012300E00023002B09D14FF050033B
:1045F00083F31188BFF36F8FBFF34F8FFB61FEE72B
:10460000FFF770FBEFF311824FF0500383F3118833
:10461000BFF36F8FBFF34F8FBA617B61BB69FB62E2
:104620003B6B9A6B3B6BDB6B9A4202D33B68022B72
:104630002CD13B6B93F8453087F82B303A68B9683A
:10464000386B00F0B5FA97F92B30B3F1FF3F12D178
:104650003B6B5B6A002B16D03B6B2433184601F092
:1046600065F80346002B0ED07B68002B0BD07B68CF
:1046700001221A6007E097F82B300133DBB25AB2FF
:104680003B6B83F8452001237B6301E000237B63C0
:10469000FB6A3B613B6983F311887B6B18463837B3
:1046A000BD4680BD80B58EB000AF786039607B6854
:1046B0003B633B6B002B09D14FF0500383F3118810
:1046C000BFF36F8FBFF34F8F3B62FEE73B6B1B6CFB
:1046D000002B09D04FF0500383F31188BFF36F8F85
:1046E000BFF34F8FFB61FEE73B6B1B68002B03D1D1
:1046F0003B6B9B68002B01D1012300E00023002BC2
:1047000009D14FF0500383F31188BFF36F8FBFF3CC
:104710004F8FBB61FEE7FFF7E5FAEFF311824FF031
:10472000500383F31188BFF36F8FBFF34F8F7A610C
:104730003B617B69FB623B6B9B6BBB623B6BDA6BE8
:10474000BB6A9A422BD93B6B93F8453087F82730E8
:10475000BB6A5A1C3B6B9A6397F92730B3F1FF3F52
:1047600012D13B6B5B6A002B16D03B6B243318468F
:1047700000F0DCFF0346002B0ED03B68002B0BD073
:104780003B6801221A6007E097F827300133DBB25B
:104790005AB23B6B83F8452001237B6301E0002381
:1047A0007B63FB6AFB60FB6883F311887B6B1846B5
:1047B0003837BD4680BD000080B58CB000AFF860D2
:1047C000B9607A600023FB62FB68BB62BB6A002BA6
:1047D00009D14FF0500383F31188BFF36F8FBFF3FC
:1047E0004F8F3B62FEE7BB68002B03D1BB6A1B6C9B
:1047F000002B01D1012300E00023002B09D14FF051
:10480000500383F31188BFF36F8FBFF34F8FFB61AA
:10481000FEE701F041F90346002B02D17B68002B33
:1048200001D1012300E00023002B09D14FF05003F8
:1048300083F31188BFF36F8FBFF34F8FBB61FEE728
:10484000FFF774F9BB6A9B6B7B627B6A002B1FD0FE
:10485000B968B86A00F016FA7B6A5A1EBB6A9A6396
:10486000BB6A1B69002B0FD0BB6A1033184600F0DF
:104870005DFF0346002B07D03C4B4FF080521A607F
:10488000BFF34F8FBFF36F8FFFF77EF9012369E00E
:104890007B68002B03D1FFF777F9002362E0FB6A06
:1048A000002B06D107F11003184600F0A1FF0123E9
:1048B000FB62FFF769F900F01DFDFFF737F9BB6AEE
:1048C00093F844305BB2B3F1FF3F03D1BB6A0022DF
:1048D00083F84420BB6A93F845305BB2B3F1FF3FE5
:1048E00003D1BB6A002283F84520FFF74DF93A1D3A
:1048F00007F110031146184600F090FF0346002B05
:1049000023D1B86A00F036FA0346002B17D0BB6AF1
:1049100024337A681146184600F0BAFEB86A00F0EF
:10492000D7F900F0F5FC0346002B89D10F4B4FF06F
:1049300080521A60BFF34F8FBFF36F8F80E7B86A62
:1049400000F0C6F900F0E4FC7AE7B86A00F0C0F9BC
:1049500000F0DEFCB86A00F00DFA0346002B3FF4CD
:104960006FAF002318463037BD4680BD04ED00E030
:1049700080B58EB000AF7860396000237B637B68C0
:10498000FB6200233B63FB6A002B09D14FF050030D
:1049900083F31188BFF36F8FBFF34F8F3B62FEE746
:1049A000FB6A1B6C002B09D04FF0500383F3118876
:1049B000BFF36F8FBFF34F8FFB61FEE701F06CF821
:1049C0000346002B02D13B68002B01D1012300E0FC
:1049D0000023002B09D14FF0500383F31188BFF35C
:1049E0006F8FBFF34F8FBB61FEE7FFF79FF8FB6A46
:1049F0009B6BBB62BB6A002B24D0BB6A5A1EFB6A4E
:104A00009A63FB6A1B68002B04D101F0B7F90246D8
:104A1000FB6A9A60FB6A1B69002B0FD0FB6A10339C
:104A2000184600F083FE0346002B07D0534B4FF08F
:104A300080521A60BFF34F8FBFF36F8FFFF7A4F858
:104A4000012396E03B68002B10D13B6B002B09D073
:104A50004FF0500383F31188BFF36F8FBFF34F8F75
:104A60007B61FEE7FFF790F8002382E07B6B002B71
:104A700006D107F10C03184600F0BAFE01237B6350
:104A8000FFF782F800F036FCFFF750F8FB6A93F866
:104A900044305BB2B3F1FF3F03D1FB6A002283F8DD
:104AA0004420FB6A93F845305BB2B3F1FF3F03D17A
:104AB000FB6A002283F84520FFF766F83A4607F1C3
:104AC0000C031146184600F0A9FE0346002B32D114
:104AD000F86A00F04FF90346002B26D0FB6A1B68EA
:104AE000002B09D1FFF722F8FB6A9B68184600F0FB
:104AF000F1FF3863FFF748F8FB6A24333A68114640
:104B0000184600F0C5FDF86A00F0E2F800F000FC7D
:104B10000346002B7FF469AF184B4FF080521A60A8
:104B2000BFF34F8FBFF36F8F5FE7F86A00F0D0F8E5
:104B300000F0EEFB59E7F86A00F0CAF800F0E8FB75
:104B4000F86A00F017F90346002B3FF44EAF3B6BB9
:104B5000002B0DD0FEF7EAFFF86A00F011F878623A
:104B6000FB6A9B68796A184601F088F8FFF70CF831
:104B7000002318463837BD4680BD00BF04ED00E075
:104B800080B485B000AF78607B685B6A002B06D08C
:104B90007B681B6B1B68C3F13803FB6001E00023DB
:104BA000FB60FB6818461437BD465DF8047B704710
:104BB00080B586B000AFF860B9607A6000237B6191
:104BC000FB689B6B3B61FB681B6C002B0DD1FB688A
:104BD0001B68002B4DD1FB689B68184600F0E2FF74
:104BE0007861FB6800229A6043E07B68002B19D152
:104BF000FB685868FB681B6C1A46B96802F02AF912
:104C0000FB685A68FB681B6C1A44FB685A60FB68B7
:104C10005A68FB689B689A422BD3FB681A68FB684A
:104C20005A6026E0FB68D868FB681B6C1A46B968B6
:104C300002F010F9FB68DA68FB681B6C5B421A44EF
:104C4000FB68DA60FB68DA68FB681B689A4207D287
:104C5000FB689A68FB681B6C5B421A44FB68DA606D
:104C60007B68022B05D13B69002B02D03B69013BDD
:104C70003B613B695A1CFB689A637B69184618378D
:104C8000BD4680BD80B582B000AF786039607B687A
:104C90001B6C002B18D07B68DA687B681B6C1A448D
:104CA0007B68DA607B68DA687B689B689A4203D32A
:104CB0007B681A687B68DA607B68D9687B681B6CE4
:104CC0001A46386802F0C6F800BF0837BD4680BDF6
:104CD00080B584B000AF7860FEF728FF7B6893F85A
:104CE0004530FB7311E07B685B6A002B12D07B6858
:104CF0002433184600F01AFD0346002B01D000F0C3
:104D0000EDFDFB7B013BDBB2FB7397F90F30002B12
:104D1000E9DC00E000BF7B68FF2283F84520FEF756
:104D200033FFFEF703FF7B6893F84430BB7311E059
:104D30007B681B69002B12D07B681033184600F08B
:104D4000F5FC0346002B01D000F0C8FDBB7B013B06
:104D5000DBB2BB7397F90E30002BE9DC00E000BF3B
:104D60007B68FF2283F84420FEF70EFF00BF103758
:104D7000BD4680BD80B584B000AF7860FEF7D6FE3A
:104D80007B689B6B002B02D10123FB6001E00023B9
:104D9000FB60FEF7F9FEFB6818461037BD4680BD84
:104DA00080B584B000AF7860FEF7C0FE7B689A6B78
:104DB0007B68DB6B9A4202D10123FB6001E0002398
:104DC000FB60FEF7E1FEFB6818461037BD4680BD6C
:104DD00080B485B000AF786039600023FB6014E0D8
:104DE0000E4AFB6852F83330002B0BD10B49FB689D
:104DF0003A6841F83320094AFB68DB0013447A68BB
:104E00005A6005E0FB680133FB60FB68072BE7D9BC
:104E100000BF1437BD465DF8047B70473C69012034
:104E200080B586B000AFF860B9607A60FB687B61DE
:104E3000FEF77CFE7B6993F844305BB2B3F1FF3F31
:104E400003D17B69002283F844207B6993F84530C5
:104E50005BB2B3F1FF3F03D17B69002283F84520A9
:104E6000FEF792FE7B699B6B002B06D17B69243396
:104E70007A68B968184600F02FFC7869FFF728FFB8
:104E800000BF1837BD4680BD80B58EB004AFF86056
:104E9000B9607A603B607B6B002B09D14FF0500307
:104EA00083F31188BFF36F8FBFF34F8F3B62FEE731
:104EB000BB6B002B09D14FF0500383F31188BFF374
:104EC0006F8FBFF34F8FFB61FEE75C233B613B6954
:104ED0005C2B09D04FF0500383F31188BFF36F8F21
:104EE000BFF34F8FBB61FEE73B69BB6B002B1ED04E
:104EF0007B6B002B1BD0BB6B7B627B6A7A6B1A636C
:104F00007B6A022283F85920002303937B6A029371
:104F100007F1140301933B6B00933B687A68B9680F
:104F2000F86800F050F8786A00F0DCF801E000233F
:104F30007B617B6918462837BD4680BD80B58CB043
:104F400004AFF860B9603B601346FB80FB889B00B0
:104F50001846FEF705FF78617B69002B0ED05C20B8
:104F6000FEF7FEFEF861FB69002B03D0FB697A694E
:104F70001A6305E07869FEF7B5FF01E00023FB61E5
:104F8000FB69002B17D0FB69002283F85920FA88AF
:104F900000230393FB690293FB6A0193BB6A0093AE
:104FA0003B68B968F86800F00EF8F86900F09AF804
:104FB0000123BB6102E04FF0FF33BB61BB691846C0
:104FC0002037BD4680BD80B588B000AFF860B960BD
:104FD0007A603B603B6B186B7B689B001A46A5218F
:104FE00001F043FF3B6B1A6B7B6803F18043013B8D
:104FF0009B001344BB61BB6923F00703BB61BB6922
:1050000003F00703002B09D04FF0500383F31188FE
:10501000BFF36F8FBFF34F8F7B61FEE7BB68002B41
:105020001FD00023FB6112E0BA68FB6913441978B2
:105030003A6BFB69134434330A461A70BA68FB6949
:1050400013441B78002B06D0FB690133FB61FB691D
:105050000F2BE9D900E000BF3B6B002283F843200F
:1050600003E03B6B002283F83420BB6A372B01D965
:105070003723BB623B6BBA6ADA623B6BBA6ADA64AB
:105080003B6B00221A653B6B04331846FEF790FB1E
:105090003B6B18331846FEF78BFB3B6B3A6B1A6180
:1050A000BB6AC3F138023B6B9A613B6B3A6B5A6245
:1050B0003B6B00225A653B6B002283F858203A680C
:1050C000F968B869FEF708FC02463B6B1A60FB6A98
:1050D000002B02D0FB6A3A6B1A6000BF2037BD4636
:1050E00080BD000080B582B000AF7860FEF71EFD85
:1050F0002D4B1B6801332C4A13602C4B1B68002B73
:1051000009D12A4A7B681360274B1B68012B10D1F9
:1051100000F008FC0DE0264B1B68002B09D1234B47
:105120001B68DA6A7B68DB6A9A4202D81F4A7B688E
:105130001360204B1B6801331E4A13601D4B1A6815
:105140007B685A647B68DA6A1B4B1B689A4203D9F6
:105150007B68DB6A184A13607B68DA6A13469B0037
:1051600013449B00154A1A447B68043319461046C1
:10517000FEF72BFBFEF708FD0D4B1B68002B0ED036
:105180000A4B1B68DA6A7B68DB6A9A4207D20C4BCF
:105190004FF080521A60BFF34F8FBFF36F8F00BF85
:1051A0000837BD4680BD00BFE06701200C630120C9
:1051B000EC670120FC670120E867012010630120F3
:1051C00004ED00E080B584B000AF78600023FB60A0
:1051D0007B68002B16D0134B1B68002B09D04FF0B7
:1051E000500383F31188BFF36F8FBFF34F8FBB6002
:1051F000FEE700F07FF80021786800F0D3FD00F0B2
:1052000087F8F860FB68002B07D1074B4FF08052FE
:105210001A60BFF34F8FBFF36F8F00BF1037BD46CB
:1052200080BD00BF0868012004ED00E080B58AB0B1
:1052300004AF0023BB6000237B603A46391D07F1B1
:1052400008031846FEF760FA39687B68BA6802926C
:1052500001930023009300230A4620492048FFF7CA
:1052600013FE02461F4B1A601E4B1B68002B02D018
:1052700001237B6101E000237B617B69012B02D16B
:1052800000F0E4FD78617B69012B15D14FF05003EC
:1052900083F31188BFF36F8FBFF34F8F3B61124BC6
:1052A0004FF0FF321A60114B01221A60104B00229E
:1052B0001A60FEF79DFB0DE07B69B3F1FF3F09D15A
:1052C0004FF0500383F31188BFF36F8FBFF34F8FFD
:1052D000FB60FEE700BF1837BD4680BD946E000836
:1052E000F55800080468012000680120EC670120DF
:1052F000E467012080B400AF044B1B680133034A0C
:10530000136000BFBD465DF8047B7047086801204C
:1053100080B584B000AF0023FB600023BB60414B2D
:105320001B68002B09D14FF0500383F31188BFF3A2
:105330006F8FBFF34F8F3B60FEE7FEF7F7FB394BF4
:105340001B68013B374A1360364B1B68002B62D148
:10535000354B1B68002B5ED02FE0344BDB68DB68DD
:10536000FB60FB6818331846FEF78CFAFB680433C1
:105370001846FEF787FAFB68DA6A2D4B1B689A42DB
:1053800003D9FB68DB6A2A4A1360FB68DA6A1346B2
:105390009B0013449B00274A1A44FB6804331946B8
:1053A0001046FEF712FAFB68DA6A234B1B68DB6AC9
:1053B0009A4202D3214B01221A601C4B1B68002B1E
:1053C000CBD1FB68002B01D000F046FB1C4B1B68C7
:1053D0007B607B68002B10D000F046F80346002B62
:1053E00002D0164B01221A607B68013B7B607B6810
:1053F000002BF1D1124B00221A60104B1B68002BBE
:1054000009D00123BB600F4B4FF080521A60BFF3ED
:105410004F8FBFF36F8FFEF7B7FBBB68184610378F
:10542000BD4680BD08680120E0670120A06701201B
:10543000E8670120106301200C630120F46701205C
:10544000F067012004ED00E080B483B000AF054BAD
:105450001B687B607B6818460C37BD465DF8047B93
:10546000704700BFE467012080B586B000AF00231D
:105470007B614E4B1B68002B40F088804C4B1B68B7
:1054800001333B614A4A3B6913603B69002B1FD1E2
:10549000484B1B681B68002B09D04FF0500383F367
:1054A0001188BFF36F8FBFF34F8F3B60FEE7414B17
:1054B0001B68FB60404B1B683E4A13603E4AFB681A
:1054C00013603E4B1B6801333C4A136000F0C4FA82
:1054D0003B4B1B683A699A4249D3364B1B681B68A1
:1054E000002B04D1364B4FF0FF321A603FE0314BB6
:1054F0001B68DB68DB68BB60BB685B687B603A6924
:105500007B689A4203D22E4A7B6813602FE0BB6807
:1055100004331846FEF7B6F9BB689B6A002B04D02B
:10552000BB6818331846FEF7ADF9BB68DA6A254B3D
:105530001B689A4203D9BB68DB6A224A1360BB68C6
:10554000DA6A13469B0013449B001F4A1A44BB6847
:10555000043319461046FEF738F9BB68DA6A1B4B6C
:105560001B68DB6A9A42B8D301237B61B5E7174B0E
:105570001B68DA6A144913469B0013449B000B44D2
:105580001B68012B07D901237B6104E0104B1B68CA
:1055900001330F4A13600F4B1B68002B01D001230E
:1055A0007B617B6918461837BD4680BD08680120BD
:1055B000E4670120986701209C670120F8670120BB
:1055C00000680120E8670120106301200C630120BE
:1055D000F0670120F467012080B485B000AF274B4D
:1055E0001B68002B03D0264B01221A6040E0244B9D
:1055F00000221A60234B1B68FB600FE0FB68002B46
:1056000009D14FF0500383F31188BFF36F8FBFF3BD
:105610004F8F7B60FEE7FB68013BFB601A49FA682D
:1056200013469B0013449B000B441B68002BE5D0E2
:10563000FA6813469B0013449B00134A1344BB6053
:10564000BB685B685A68BB685A60BB685A68BB68CD
:1056500008339A4204D1BB685B685A68BB685A60D9
:10566000BB685B68DB68094A1360064AFB68136025
:1056700000BF1437BD465DF8047B70470868012001
:10568000F4670120E8670120106301200C6301200A
:1056900080B584B000AF786039607B68002B09D199
:1056A0004FF0500383F31188BFF36F8FBFF34F8F19
:1056B000FB60FEE7074B1B68183319467868FEF756
:1056C000A8F80121386800F06DFB00BF1037BD4617
:1056D00080BD00BF0C63012080B586B000AFF860CC
:1056E000B9607A60FB68002B09D14FF0500383F357
:1056F0001188BFF36F8FBFF34F8F7B61FEE70A4BBB
:105700001B6818331946F868FEF75FF87B68002BB2
:1057100002D04FF0FF33BB607968B86800F042FBFD
:1057200000BF1837BD4680BD0C63012080B586B030
:1057300000AF78607B68DB68DB683B613B69002B0E
:1057400009D14FF0500383F31188BFF36F8FBFF37C
:105750004F8FFB60FEE73B6918331846FEF792F85F
:105760001D4B1B68002B1DD13B6904331846FEF707
:1057700089F83B69DA6A194B1B689A4203D93B697D
:10578000DB6A164A13603B69DA6A13469B001344CE
:105790009B00134A1A443B69043319461046FEF72E
:1057A00014F805E03B69183319460E48FEF70DF86A
:1057B0003B69DA6A0C4B1B68DB6A9A4205D9012304
:1057C0007B610A4B01221A6001E000237B617B6947
:1057D00018461837BD4680BD08680120E8670120DB
:1057E00010630120A06701200C630120F4670120F1
:1057F00080B483B000AF7860064B1A687B681A608B
:10580000054B1A687B685A6000BF0C37BD465DF8CF
:10581000047B7047F8670120E467012080B588B0F9
:1058200000AF786039607B68002B09D14FF05003DE
:1058300083F31188BFF36F8FBFF34F8F3B61FEE798
:105840003B68002B09D14FF0500383F31188BFF35D
:105850006F8FBFF34F8FFB60FEE7FEF767F91D4BBD
:105860001B68BB617B685B68BA69D31A7B613B6864
:105870001B68B3F1FF3F02D10023FB6123E07B688B
:105880001A68154B1B689A4207D07B685A68BB6937
:105890009A4202D80123FB6115E03B681A687B69D4
:1058A0009A420BD93B681A687B69D21A3B681A6026
:1058B0007868FFF79DFF0023FB6104E03B6800224E
:1058C0001A600123FB61FEF75FF9FB691846203778
:1058D000BD4680BDE4670120F867012080B400AFB9
:1058E000034B01221A6000BFBD465DF8047B704780
:1058F000F467012080B582B000AF786000F052F804
:10590000064B1B68012BF9D9054B4FF080521A60EA
:10591000BFF34F8FBFF36F8FF0E700BF106301201D
:1059200004ED00E080B582B000AF00237B600CE0A6
:105930007A6813469B0013449B00124A134418468E
:10594000FDF716FF7B6801337B607B68372BEFD94F
:105950000D48FDF70DFF0D48FDF70AFF0C48FDF758
:1059600007FF0C48FDF704FF0B48FDF701FF0B4B49
:10597000054A1A600A4B054A1A6000BF0837BD463F
:1059800080BD00BF10630120706701208467012083
:10599000A0670120B4670120CC670120986701202F
:1059A0009C67012080B582B000AF19E0FEF7BEF819
:1059B0000F4BDB68DB687B607B6804331846FDF7C0
:1059C00061FF0C4B1B68013B0A4A13600A4B1B68C2
:1059D000013B094A1360FEF7D7F8786800F00EF82B
:1059E000054B1B68002BE1D100BF0837BD4680BDC9
:1059F000B4670120E0670120C867012080B584B04A
:105A000000AF78607B6893F85930002B08D17B6831
:105A10001B6B1846FEF766FA7868FEF763FA17E024
:105A20007B6893F85930012B03D17868FEF75AFA56
:105A30000EE07B6893F85930022B09D04FF05003E9
:105A400083F31188BFF36F8FBFF34F8FFB60FEE7C7
:105A500000BF1037BD4680BD80B483B000AF0C4B93
:105A60001B681B68002B04D10A4B4FF0FF321A60F1
:105A700008E0074B1B68DB68DB687B607B685B6862
:105A8000044A136000BF0C37BD465DF8047B7047C5
:105A9000986701200068012080B483B000AF0B4BF1
:105AA0001B68002B02D101237B6008E0084B1B68B8
:105AB000002B02D102237B6001E000237B607B6826
:105AC00018460C37BD465DF8047B7047EC67012033
:105AD0000868012080B584B000AF78607B68BB6047
