:020000040800F2
:1000000000000220357D0008417C00084F7C00087C
:10001000557C00085B7C0008617C00080000000043
:10002000000000000000000000000000A1460008E1
:10003000677C000800000000E1480008494900080A
:10004000857D0008857D0008857D0008857D000888
:10005000857D0008857D0008857D0008857D000878
:10006000857D0008857D0008857D0008857D000868
:10007000857D0008857D0008857D0008857D000858
:10008000857D0008857D0008857D0008857D000848
:10009000857D0008857D0008857D0008857D000838
:1000A000857D0008757C0008857D0008857D000839
:1000B000857D0008857D0008857D0008857D000818
:1000C000857D0008857D0008857D0008857D000808
:1000D000857D0008857D0008857D0008857D0008F8
:1000E000857D0008857D0008857D0008857D0008E8
:1000F000857D0008857D0008857D0008897C0008D5
:10010000857D0008857D0008857D00089D7C0008B0
:10011000857D0008857D0008857D0008857D0008B7
:10012000857D0008857D0008857D0008857D0008A7
:10013000857D0008857D0008857D0008857D000897
:10014000857D0008857D0008857D0008857D000887
:10015000857D0008857D0008857D0008857D000877
:10016000857D0008857D0008857D0008857D000867
:10017000857D0008857D0008857D00080000000061
:08018000857D0008857D000863
:1001900010B5054C237833B9044B13B10448AFF3C1
:1001A00000800123237010BD900600200000000095
:1001B000B8AB000808B5034B1BB103490348AFF3C4
:1001C000008008BD0000000094060020B8AB0008C5
:1001D00001F0FF01102A2BDB10F0070F08D010F8F8
:1001E000013B013A8B422DD010F0070F42B3F6D1FC
:1001F000F0B441EA012141EA014122F007047FF015
:1002000000070023F0E80256083C85EA010586EA6B
:10021000010685FA47F5A3FA87F586FA47F6A5FAA7
:1002200087F68EB9EED1F0BC01F0FF0102F00702B3
:1002300032B110F8013B013A83EA010313B1F8D15E
:100240000020704701387047002D06BF354603383F
:10025000073815F0010F07D1013015F4807F02BF78
:10026000013015F4C03F0130F0BC0138704700BFC9
:10027000034613F8012B002AFBD1181A01387047E6
:1002800081F0004102E000BF83F0004330B54FEA47
:1002900041044FEA430594EA050F08BF90EA020FB4
:1002A0001FBF54EA000C55EA020C7FEA645C7FEA47
:1002B000655C00F0E2804FEA5454D4EB5555B8BF6A
:1002C0006D420CDD2C4480EA020281EA030382EADB
:1002D000000083EA010180EA020281EA0303362D6D
:1002E00088BF30BD11F0004F4FEA01314FF4801C40
:1002F0004CEA113102D0404261EB410113F0004F52
:100300004FEA03334CEA133302D0524263EB430308
:1003100094EA050F00F0A780A4F10104D5F1200EA6
:100320000DDB02FA0EFC22FA05F2801841F1000101
:1003300003FA0EF2801843FA05F359410EE0A5F1D5
:1003400020050EF1200E012A03FA0EFC28BF4CF006
:10035000020C43FA05F3C01851EBE37101F00045BC
:1003600007D54FF0000EDCF1000C7EEB00006EEBC9
:100370000101B1F5801F1BD3B1F5001F0CD3490853
:100380005FEA30004FEA3C0C04F101044FEA4452AA
:1003900012F5800F80F09A80BCF1004F08BF5FEA31
:1003A000500C50F1000041EB045141EA050130BD11
:1003B0005FEA4C0C404141EB010111F4801FA4F1B4
:1003C0000104E9D191F0000F04BF01460020B1FA09
:1003D00081F308BF2033A3F10B03B3F120020CDA41
:1003E0000C3208DD02F1140CC2F10C0201FA0CF01F
:1003F00021FA02F10CE002F11402D8BFC2F1200C84
:1004000001FA02F120FA0CFCDCBF41EA0C01904039
:10041000E41AA2BF01EB0451294330BD6FEA040482
:100420001F3C1CDA0C340EDC04F11404C4F120026D
:1004300020FA04F001FA02F340EA030021FA04F37F
:1004400045EA030130BDC4F10C04C4F1200220FAD6
:1004500002F001FA04F340EA0300294630BD21FA14
:1004600004F0294630BD94F0000F83F4801306BFDA
:1004700081F480110134013D4EE77FEA645C18BFCE
:100480007FEA655C29D094EA050F08BF90EA020F65
:1004900005D054EA000C04BF1946104630BD91EA5D
:1004A000030F1EBF0021002030BD5FEA545C05D160
:1004B0004000494128BF41F0004130BD14F580049F
:1004C0003CBF01F5801130BD01F0004545F0FE4113
:1004D00041F470014FF0000030BD7FEA645C1ABF48
:1004E000194610467FEA655C1CBF0B46024650EA7F
:1004F000013406BF52EA033591EA030F41F40021AB
:1005000030BD00BF90F0000F04BF0021704730B530
:100510004FF4806404F132044FF000054FF0000105
:1005200050E700BF90F0000F04BF0021704730B5C6
:100530004FF4806404F1320410F0004548BF40429B
:100540004FF000013EE700BF42004FEAE2014FEAF0
:1005500031014FEA02701FBF12F07F4393F07F4FCB
:1005600081F06051704792F0000F14BF93F07F4FFD
:10057000704730B54FF4607401F0004521F0004140
:1005800020E700BF50EA010208BF704730B54FF0C6
:1005900000050AE050EA010208BF704730B511F0CB
:1005A000004502D5404261EB41014FF4806404F103
:1005B00032045FEA915C3FF4DCAE4FF003025FEA85
:1005C000DC0C18BF03325FEADC0C18BF033202EB0D
:1005D000DC02C2F1200300FA03FC20FA02F001FA67
:1005E00003FE40EA0E0021FA02F11444C1E600BF06
:1005F00070B54FF0FF0C4CF4E06C1CEA11541DBFB9
:100600001CEA135594EA0C0F95EA0C0F00F0DEF883
:100610002C4481EA030621EA4C5123EA4C5350EA68
:10062000013518BF52EA033541F4801143F48013B9
:1006300038D0A0FB02CE4FF00005E1FB02E506F04A
:100640000042E0FB03E54FF00006E1FB03569CF09F
:10065000000F18BF4EF0010EA4F1FF04B6F5007FA5
:1006600064F5407404D25FEA4E0E6D4146EB060617
:1006700042EAC62141EA55514FEAC52040EA5E50A0
:100680004FEACE2EB4F1FD0C88BFBCF5E06F1ED84A
:10069000BEF1004F08BF5FEA500E50F1000041EB81
:1006A000045170BD06F0004646EA010140EA02002E
:1006B00081EA0301B4EB5C04C2BFD4EB0C0541EA50
:1006C000045170BD41F480114FF0000E013C00F365
:1006D000AB8014F1360FDEBF002001F0004170BD89
:1006E000C4F10004203C35DA0C341BDC04F11404A2
:1006F000C4F1200500FA05F320FA04F001FA05F22E
:1007000040EA020001F0004221F0004110EBD370FA
:1007100021FA04F642EB06015EEA430E08BF20EA26
:10072000D37070BDC4F10C04C4F1200500FA04F3C9
:1007300020FA05F001FA04F240EA020001F000415B
:1007400010EBD37041F100015EEA430E08BF20EACE
:10075000D37070BDC4F1200500FA05F24EEA020E16
:1007600020FA04F301FA05F243EA020321FA04F045
:1007700001F0004121FA04F220EA020000EBD370FC
:100780005EEA430E08BF20EAD37070BD94F0000FFC
:100790000FD101F00046400041EB010111F4801F30
:1007A00008BF013CF7D041EA060195F0000F18BFE1
:1007B000704703F00046520043EB030313F4801F1D
:1007C00008BF013DF7D043EA0603704794EA0C0FD7
:1007D0000CEA135518BF95EA0C0F0CD050EA4106ED
:1007E00018BF52EA4306D1D181EA030101F000416A
:1007F0004FF0000070BD50EA410606BF1046194692
:1008000052EA430619D094EA0C0F02D150EA01369D
:1008100013D195EA0C0F05D152EA03361CBF1046DE
:1008200019460AD181EA030101F0004141F0FE417D
:1008300041F470014FF0000070BD41F0FE4141F401
:10084000780170BD70B54FF0FF0C4CF4E06C1CEA01
:1008500011541DBF1CEA135594EA0C0F95EA0C0FB6
:1008600000F0A7F8A4EB050481EA030E52EA033571
:100870004FEA013100F088804FEA03334FF0805592
:1008800045EA131343EA12634FEA022245EA1115BF
:1008900045EA10654FEA00260EF000419D4208BF70
:1008A000964244F1FD0404F5407402D25B084FEA1D
:1008B0003202B61A65EB03055B084FEA32024FF4C9
:1008C00080104FF4002CB6EB020E75EB030E22BF26
:1008D000B61A754640EA0C005B084FEA3202B6EBE6
:1008E000020E75EB030E22BFB61A754640EA5C0095
:1008F0005B084FEA3202B6EB020E75EB030E22BF25
:10090000B61A754640EA9C005B084FEA3202B6EB25
:10091000020E75EB030E22BFB61A754640EADC00E4
:1009200055EA060E18D04FEA051545EA16754FEA46
:1009300006164FEAC30343EA52734FEAC2025FEA64
:100940001C1CC0D111F4801F0BD141EA00014FF0F3
:1009500000004FF0004CB6E711F4801F04BF0143C4
:100960000020B4F1FD0C88BFBCF5E06F3FF6AFAEE0
:10097000B5EB030C04BFB6EB020C5FEA500C50F170
:10098000000041EB045170BD0EF0004E4EEA1131F3
:1009900014EB5C04C2BFD4EB0C0541EA045170BDFA
:1009A00041F480114FF0000E013C90E645EA060E3E
:1009B0008DE60CEA135594EA0C0F08BF95EA0C0F6C
:1009C0003FF43BAF94EA0C0F0AD150EA01347FF4B4
:1009D00034AF95EA0C0F7FF425AF104619462CE78B
:1009E00095EA0C0F06D152EA03353FF4FDAE1046EE
:1009F000194622E750EA410618BF52EA43067FF43F
:100A0000C5AE50EA41047FF40DAF52EA43057FF4CE
:100A1000EBAE12E74FF0FF3C06E000BF4FF0010CD9
:100A200002E000BF4FF0010C4DF804CD4FEA410C3D
:100A30007FEA6C5C4FEA430C18BF7FEA6C5C1BD00A
:100A400001B050EA410C0CBF52EA430C91EA030F8B
:100A500002BF90EA020F0020704710F1000F91EAE8
:100A6000030F58BF994208BF90422CBFD8176FEAB6
:100A7000E37040F0010070474FEA410C7FEA6C5C84
:100A800002D150EA013C07D14FEA430C7FEA6C5C8B
:100A9000D6D152EA033CD3D05DF8040B704700BFB7
:100AA0008446104662468C461946634600E000BF05
:100AB00001B5FFF7B7FF002848BF10F1000F01BDD7
:100AC0004DF808EDFFF7F4FF0CBF012000205DF8A2
:100AD00008FB00BF4DF808EDFFF7EAFF34BF012027
:100AE00000205DF808FB00BF4DF808EDFFF7E0FFC0
:100AF00094BF012000205DF808FB00BF4DF808ED11
:100B0000FFF7CEFF94BF012000205DF808FB00BF77
:100B10004DF808EDFFF7C4FF34BF012000205DF859
:100B200008FB00BF4FEA410C7FEA6C5C02D150EA3F
:100B3000013C0AD14FEA430C7FEA6C5C02D152EAD5
:100B4000033C02D14FF0000070474FF001007047A6
:100B50004FEA410212F5001215D211D56FF47873E5
:100B6000B3EB625212D94FEAC12343F0004343EA88
:100B7000505311F0004F23FA02F018BF4042704763
:100B80004FF00000704750EA013005D111F00040ED
:100B900008BF6FF0004070474FF00000704700BF83
:100BA00053B94AB9002908BF00281CBF4FF0FF31D4
:100BB0004FF0FF3000F07AB9ADF1080C6DE904CECA
:100BC00000F006F8DDF804E0DDE9022304B0704728
:100BD0002DE9F0478C460D460446089E002B51D166
:100BE0008A4217466DD9B2FA82FEBEF1000F0BD0D1
:100BF000CEF1200C01FA0EF520FA0CFC02FA0EF7E9
:100C00004CEA050C00FA0EF44FEA174A250CBCFB1F
:100C1000FAF81FFA87F90AFB18CC45EA0C4508FBDD
:100C200009F3AB420AD9ED1908F1FF3280F02381B4
:100C3000AB4240F22081A8F102083D44ED1AA4B273
:100C4000B5FBFAF00AFB105544EA054400FB09F92C
:100C5000A14509D9E41900F1FF3380F00A81A145CB
:100C600040F2078102383C44A4EB090440EA084002
:100C70000021002E61D024FA0EF40023346073604A
:100C8000BDE8F0878B4207D9002E54D0002186E8BA
:100C900021000846BDE8F087B3FA83F1002940F04F
:100CA0008E80AB4202D3824200F2FA80841A65EB56
:100CB00003050120AC46002E3FD086E81010BDE8A9
:100CC000F08712B90127B7FBF2F7B7FA87FEBEF13A
:100CD000000F34D1EB1B3A0C1FFA87FC0121B3FB48
:100CE000F2F8250C02FB183345EA03450CFB08F328
:100CF000AB4207D9ED1908F1FF3002D2AB4200F246
:100D0000D1808046ED1AA3B2B5FBF2F002FB10557C
:100D100043EA05440CFB00FCA44507D9E41900F1A3
:100D2000FF3302D2A44500F2B8801846A4EB0C04AD
:100D300040EA08409DE731463046BDE8F087CEF1F5
:100D4000200405FA0EF307FA0EF720FA04F83A0C1D
:100D500025FA04F448EA0308B4FBF2F14FEA184517
:100D600002FB11441FFA87FC45EA044501FB0CF322
:100D7000AB4200FA0EF409D9ED1901F1FF3080F011
:100D80008A80AB4240F2878002393D44EB1A1FFA59
:100D900088F5B3FBF2F002FB103345EA034500FB94
:100DA0000CF3AB4207D9ED1900F1FF386FD2AB421B
:100DB0006DD902383D44EB1A40EA01418FE7C1F199
:100DC000200722FA07F88B4005FA01F448EA0303EA
:100DD00020FA07FE4FEA134CFD404EEA040EB5FB25
:100DE000FCF94FEA1E440CFB19551FFA83F844EA3C
:100DF000054509FB08F4AC4202FA01F200FA01FAD7
:100E000008D9ED1809F1FF3043D2AC4241D9A9F11C
:100E100002091D442D1B1FFA8EFEB5FBFCF00CFBD6
:100E200010554EEA054400FB08F8A04507D9E41820
:100E300000F1FF3529D2A04527D902381C4440EAE9
:100E40000940A4EB0804A0FB02894C45C6464D4668
:100E500015D312D056B1BAEB0E0364EB050404FAB5
:100E600007F7CB401F43CC40376074600021BDE8DA
:100E7000F0871846F8E69046E0E6C245EAD2B8EBBD
:100E8000020E69EB03050138E4E72846D7E7404640
:100E900091E78146BEE7014678E702383C4445E7E2
:100EA000084608E7A8F102083D442BE7704700BF59
:100EB00080B500AF00220821024800F0FDFE00BF0F
:100EC00080BD00BF0010024080B500AF01220821A4
:100ED000024800F0F1FE00BF80BD00BF00100240DC
:100EE00080B582B000AFFFF7E3FF20233B714723BB
:100EF0007B71391D4FF0FF330222044801F0B7FB2C
:100F0000FFF7E2FF00BF0837BD4680BD08F10020B3
:100F100080B582B000AF0D4BA9221A70FFF7C8FF51
:100F20004FF0FF3301220949094801F0A0FBF91DE8
:100F30004FF0FF330122064801F0CBFCFFF7C4FF5E
:100F4000FB795BB218460837BD4680BDAC06002071
:100F500008F1002080B582B000AF0D4BAB221A70B3
:100F6000FFF7A6FF4FF0FF3301220949094801F0BE
:100F70007EFBF91D4FF0FF330122064801F0A9FC6A
:100F8000FFF7A2FFFB795BB218460837BD4680BD6C
:100F9000AC06002008F1002080B582B000AF0D4BF8
:100FA000AD221A70FFF784FF4FF0FF330122094989
:100FB000094801F05CFBF91D4FF0FF3301220648A0
:100FC00001F087FCFFF780FFFB795BB2184608371A
:100FD000BD4680BDAC06002008F1002080B500AF02
:100FE0000E4A0E4B1B6843F4007313600B4A0B4B05
:100FF0001B6843F480631360084A084B1B6843F482
:1010000080731360032000F0F8F8002006F0BEFDA6
:1010100006F0E0FC0023184680BD00BF003C024003
:1010200080B400AF064B1B781A46064B1B6813446E
:10103000044A136000BFBD465DF8047B704700BFE3
:1010400004000020F8EF002080B400AF034B1B68C1
:101050001846BD465DF8047B704700BFF8EF0020DE
:1010600080B584B000AF7860FFF7EEFFB8607B68B2
:10107000FB60FB68B3F1FF3F05D0094B1B781A46B4
:10108000FB681344FB6000BFFFF7DEFF0246BB684E
:10109000D21AFB689A42F7D300BF1037BD4680BD15
:1010A0000400002080B485B000AF78607B6803F056
:1010B0000703FB600C4BDB68BB60BA684FF6FF03AD
:1010C0001340BB60FB681A02BB68134343F0BF6365
:1010D00043F40033BB60044ABB68D36000BF1437DD
:1010E000BD465DF8047B704700ED00E080B400AFC2
:1010F000044BDB681B0A03F007031846BD465DF886
:10110000047B704700ED00E080B483B000AF03467D
:10111000FB7197F90730002B0BDB094997F9073072
:101120005B09FA7902F01F02012000FA02F241F88D
:10113000232000BF0C37BD465DF8047B704700BF1D
:1011400000E100E080B483B000AF03463960FB717A
:1011500097F90730002B0ADB0D4997F907303A68F9
:10116000D2B21201D2B20B4483F800230AE009493B
:10117000FB7903F00F03043B3A68D2B21201D2B2FA
:101180000B441A7600BF0C37BD465DF8047B7047F0
:1011900000E100E000ED00E080B489B000AFF8604D
:1011A000B9607A60FB6803F00703FB61FB69C3F178
:1011B0000703042B28BF0423BB61FB690433062B00
:1011C00002D9FB69033B00E000237B610122BB697C
:1011D00002FA03F35A1EBB681A407B699A40012148
:1011E0007B6901FA03F3591E7B680B4013431846D1
:1011F0002437BD465DF8047B704780B582B000AFF0
:1012000078607868FFF74EFF00BF0837BD4680BDA5
:1012100080B586B000AF0346B9607A60FB730023E7
:101220007B61FFF763FF78617A68B9687869FFF7D7
:10123000B3FF024697F90F3011461846FFF782FFB9
:1012400000BF1837BD4680BD80B582B000AF0346F1
:10125000FB7197F907301846FFF756FF00BF0837B4
:10126000BD4680BD80B586B000AF786000237B614D
:10127000FFF7EAFE38617B68002B01D1012399E07A
:101280007B68002283F834207B68022283F83520B3
:101290007B681B687A681268126822F001021A6083
:1012A0000FE0FFF7D1FE02463B69D31A052B08D9A0
:1012B0007B6820225A657B68032283F8352003234C
:1012C00078E07B681B681B6803F00103002BE8D102
:1012D0007B681B681B687B617A69384B13407B61B4
:1012E0007B685A687B689B681A437B68DB681A4393
:1012F0007B681B691A437B685B691A437B689B693F
:101300001A437B68DB691A437B681B6A13437A695B
:1013100013437B617B685B6A042B07D17B68DA6AC5
:101320007B681B6B13437A6913437B617B681B6883
:101330007A691A607B681B685B697B617B6923F053
:1013400007037B617B685B6A7A6913437B617B6817
:101350005B6A042B17D17B689B6A7A6913437B61B4
:101360007B68DB6A002B0ED0786800F091FA0346A8
:10137000002B08D07B6840225A657B68012283F8E5
:101380003520012316E07B681B687A695A6178680A
:1013900000F048FA0346FB607B68DB6D3F229A4011
:1013A000FB689A607B6800225A657B68012283F89B
:1013B0003520002318461837BD4680BD3F8010F009
:1013C00080B586B000AFF860B9607A603B600023FA
:1013D000FB75FB689B6D3B61FB6893F83430012B18
:1013E00001D1022340E0FB68012283F83420FB682E
:1013F00093F83530DBB2012B2FD1FB68022283F842
:101400003520FB6800225A653B687A68B968F8683D
:1014100000F0DAF9FB68DB6D3F229A403B699A6085
:10142000FB681B68FA681268126842F016021A60BC
:10143000FB681B6C002B07D0FB681B68FA681268FE
:10144000126842F008021A60FB681B68FA681268AA
:10145000126842F001021A6005E0FB68002283F87E
:1014600034200223FB75FB7D18461837BD4680BD2E
:1014700080B483B000AF78607B6893F83530DBB21E
:10148000022B04D07B6880225A6501230CE07B6824
:10149000052283F835207B681B687A681268126819
:1014A00022F001021A60002318460C37BD465DF891
:1014B000047B704780B586B000AF78600023BB60C6
:1014C000924B1B68924AA2FB03239B0A7B617B68B9
:1014D0009B6D3B613B691B68FB607B68DB6D082291
:1014E0009A40FB681340002B1AD07B681B681B686E
:1014F00003F00403002B13D07B681B687A68126822
:10150000126822F004021A607B68DB6D08229A40A0
:101510003B699A607B685B6D43F001027B685A65AA
:101520007B68DB6D01229A40FB681340002B12D0D0
:101530007B681B685B6903F08003002B0BD07B6822
:10154000DB6D01229A403B699A607B685B6D43F0DA
:1015500002027B685A657B68DB6D04229A40FB6857
:101560001340002B12D07B681B681B6803F002033A
:10157000002B0BD07B68DB6D04229A403B699A609C
:101580007B685B6D43F004027B685A657B68DB6DAA
:1015900010229A40FB681340002B43D07B681B68E5
:1015A0001B6803F00803002B3CD07B68DB6D102226
:1015B0009A403B699A607B681B681B6803F4802330
:1015C000002B18D07B681B681B6803F40023002BDA
:1015D00008D17B681B6C002B24D07B681B6C78685F
:1015E00098471FE07B689B6C002B1BD07B689B6C33
:1015F0007868984716E07B681B681B6803F4807363
:10160000002B07D17B681B687A681268126822F089
:1016100008021A607B681B6C002B03D07B681B6C74
:10162000786898477B68DB6D20229A40FB681340FE
:10163000002B00F08E807B681B681B6803F0100392
:10164000002B00F086807B68DB6D20229A403B698E
:101650009A607B6893F83530DBB2052B36D17B6816
:101660001B687A681268126822F016021A607B689A
:101670001B687A681268526922F080025A617B689E
:101680001B6C002B03D17B689B6C002B07D07B6805
:101690001B687A681268126822F008021A607B6878
:1016A000DB6D3F229A403B699A607B68002283F899
:1016B00034207B68012283F835207B681B6D002B6A
:1016C0007DD07B681B6D7868984778E07B681B68E5
:1016D0001B6803F48023002B1CD07B681B681B68ED
:1016E00003F40023002B08D17B685B6C002B30D007
:1016F0007B685B6C786898472BE07B68DB6B002B22
:1017000027D07B68DB6B7868984722E01C000020BC
:10171000B5814E1B7B681B681B6803F48073002B2C
:101720000FD17B681B687A681268126822F0100279
:101730001A607B68002283F834207B68012283F8DA
:1017400035207B68DB6B002B03D07B68DB6B786814
:1017500098477B685B6D002B32D07B685B6D03F034
:101760000103002B22D07B68052283F835207B689B
:101770001B687A681268126822F001021A60BB685E
:101780000133BB607A69934207D87B681B681B688A
:1017900003F00103002BF2D100E000BF7B680022C0
:1017A00083F834207B68012283F835207B68DB6C6A
:1017B000002B05D07B68DB6C7868984700E000BFA1
:1017C0001837BD4680BD00BF80B485B000AFF8605B
:1017D000B9607A603B60FB681B68FA68126812683F
:1017E00022F480221A60FB681B683A685A60FB6822
:1017F0009B68402B08D1FB681B687A689A60FB687D
:101800001B68BA68DA6007E0FB681B68BA689A6010
:10181000FB681B687A68DA6000BF1437BD465DF864
:10182000047B704780B485B000AF78607B681B682C
:10183000DBB2103B144AA2FB03231B09FB60134AD3
:10184000FB6813441B781A467B68DA65FB68032B38
:1018500009D97B681B6823F47F7323F003031A1DE7
:101860007B689A6507E07B681B6823F47F7323F02D
:1018700003037A6893657B689B6D18461437BD46F1
:101880005DF8047B704700BFABAAAAAA18AC000899
:1018900080B485B000AF78600023FB737B689B6ADF
:1018A000BB607B689B69002B1FD1BB68032B55D89D
:1018B00001A252F823F000BFC9180008DB18000885
:1018C000C91800085D1900087B68DB6A03F08073A3
:1018D000002B45D00123FB7342E07B68DB6AB3F148
:1018E000C07F3FD10123FB733CE07B689B69B3F56C
:1018F000005F21D1BB68032B36D801A252F823F038
:1019000011190008171900081119000829190008F1
:101910000123FB732FE07B68DB6A03F08073002BED
:1019200024D00123FB7321E07B68DB6AB3F1C07F25
:101930001ED10123FB731BE0BB68022B02D9032BD2
:1019400003D018E00123FB7315E07B68DB6A03F02A
:101950008073002B0ED00123FB730BE000BF0AE065
:1019600000BF08E000BF06E000BF04E000BF02E0E7
:1019700000BF00E000BFFB7B18461437BD465DF892
:10198000047B704780B489B000AF78603960002371
:101990007B6100233B610023BB610023FB616BE1A2
:1019A0000122FB6902FA03F37B613B681A687B69D9
:1019B00013403B613A697B699A4240F05A813B6827
:1019C0005B68012B0BD03B685B68022B07D03B6840
:1019D0005B68112B03D03B685B68122B30D17B68AE
:1019E0009B68BB61FB695B00032202FA03F3DB43E4
:1019F000BA691340BB613B68DA68FB695B0002FAB5
:101A000003F3BA691343BB617B68BA699A607B6868
:101A10005B68BB610122FB6902FA03F3DB43BA692D
:101A20001340BB613B685B681B0903F00102FB6963
:101A300002FA03F3BA691343BB617B68BA695A605F
:101A40007B68DB68BB61FB695B00032202FA03F37E
:101A5000DB43BA691340BB613B689A68FB695B0072
:101A600002FA03F3BA691343BB617B68BA69DA60AF
:101A70003B685B68022B03D03B685B68122B23D169
:101A8000FB69DA087B68083253F82230BB61FB69D6
:101A900003F007039B000F2202FA03F3DB43BA694A
:101AA0001340BB613B681A69FB6903F007039B00A5
:101AB00002FA03F3BA691343BB61FB69DA087B6876
:101AC0000832B96943F822107B681B68BB61FB6967
:101AD0005B00032202FA03F3DB43BA691340BB61E4
:101AE0003B685B6803F00302FB695B0002FA03F3E7
:101AF000BA691343BB617B68BA691A603B685B686B
:101B000003F08053002B00F0B4800023FB605F4A99
:101B10005E4B5B6C43F4804353645C4B5B6C03F43F
:101B20008043FB60FB685A4AFB699B08023352F80A
:101B30002330BB61FB6903F003039B000F2202FA11
:101B400003F3DB43BA691340BB617B68514A93429C
:101B50002BD07B68504A934225D07B684F4A9342F2
:101B60001FD07B684E4A934219D07B684D4A9342FE
:101B700013D07B684C4A93420DD07B684B4A93420A
:101B800007D07B684A4A934201D107230EE008231D
:101B90000CE006230AE0052308E0042306E0032303
:101BA00004E0022302E0012300E00023FA6902F0CE
:101BB000030292009340BA691343BB613449FB6945
:101BC0009B080233BA6941F823203A4B1B68BB617A
:101BD0003B69DB43BA691340BB613B685B6803F454
:101BE0008033002B03D0BA693B691343BB61314A90
:101BF000BB6913602F4B5B68BB613B69DB43BA6910
:101C00001340BB613B685B6803F40033002B03D0D7
:101C1000BA693B691343BB61264ABB695360254BD4
:101C20009B68BB613B69DB43BA691340BB613B689E
:101C30005B6803F48013002B03D0BA693B6913433C
:101C4000BB611C4ABB6993601A4BDB68BB613B6993
:101C5000DB43BA691340BB613B685B6803F4001364
:101C6000002B03D0BA693B691343BB61114ABB69BE
:101C7000D360FB690133FB61FB690F2B7FF690AEEC
:101C800000BF2437BD465DF8047B70470038024032
:101C900000380140000002400004024000080240F9
:101CA000000C0240001002400014024000180240E4
:101CB000001C0240003C014080B483B000AF78605B
:101CC0000B467B8013467B707B78002B03D07A8891
:101CD0007B689A6103E07B881A047B689A6100BF85
:101CE0000C37BD465DF8047B7047000080B586B0B8
:101CF00000AF78607B68002B01D101235BE27B6839
:101D00001B6803F00103002B75D0A34B9B6803F005
:101D10000C03042B0CD0A04B9B6803F00C03082B86
:101D200012D19D4B5B6803F48003B3F5800F0BD198
:101D3000994B1B6803F40033002B5BD07B685B6816
:101D4000002B57D1012336E27B685B68B3F5803FF7
:101D500006D1914A904B1B6843F4803313601DE019
:101D60007B685B68B3F5A02F0CD18B4A8A4B1B684C
:101D700043F480231360884A874B1B6843F4803305
:101D800013600BE0844A844B1B6823F48033136098
:101D9000814A814B1B6823F4802313607B685B6856
:101DA000002B13D0FFF750F9386108E0FFF74CF92A
:101DB00002463B69D31A642B01D90323FBE1764B1E
:101DC0001B6803F40033002BF0D014E0FFF73CF95C
:101DD000386108E0FFF738F902463B69D31A642BF3
:101DE00001D90323E7E16C4B1B6803F40033002B9C
:101DF000F0D100E000BF7B681B6803F00203002BFA
:101E000063D0654B9B6803F00C03002B0BD0624B37
:101E10009B6803F00C03082B1CD15F4B5B6803F439
:101E20008003002B16D15C4B1B6803F00203002BD0
:101E300005D07B68DB68012B01D00123BBE156494B
:101E4000554B1B6823F0F8027B681B69DB001343CA
:101E50000B603AE07B68DB68002B20D04F4B0122FF
:101E60001A60FFF7F1F8386108E0FFF7EDF8024675
:101E70003B69D31A022B01D903239CE1464B1B6813
:101E800003F00203002BF0D04349434B1B6823F0BF
:101E9000F8027B681B69DB0013430B6015E03F4BC6
:101EA00000221A60FFF7D0F8386108E0FFF7CCF89D
:101EB00002463B69D31A022B01D903237BE1364B3F
:101EC0001B6803F00203002BF0D17B681B6803F052
:101ED0000803002B30D07B685B69002B16D0304B99
:101EE00001221A60FFF7B0F8386108E0FFF7ACF89C
:101EF00002463B69D31A022B01D903235BE1264B2F
:101F00005B6F03F00203002BF0D015E0244B00229E
:101F10001A60FFF799F8386108E0FFF795F8024674
:101F20003B69D31A022B01D9032344E11A4B5B6F9F
:101F300003F00203002BF0D17B681B6803F004035D
:101F4000002B00F0A0800023FB75134B1B6C03F0EB
:101F50008053002B0FD10023BB600F4A0E4B1B6C2C
:101F600043F0805313640C4B1B6C03F08053BB6035
:101F7000BB680123FB750B4B1B6803F48073002BBC
:101F800021D1084A074B1B6843F480731360FFF7A5
:101F90005BF8386111E000BF0038024000004742A2
:101FA000800E474200700040FFF74EF802463B6942
:101FB000D31A022B01D90323FDE0814B1B6803F4E4
:101FC0008073002BF0D07B689B68012B06D17D4A83
:101FD0007C4B1B6F43F0010313671CE07B689B681D
:101FE000052B0CD1774A774B1B6F43F00403136723
:101FF000744A744B1B6F43F0010313670BE0714A83
:10200000704B1B6F23F0010313676E4A6D4B1B6F00
:1020100023F0040313677B689B68002B15D0FFF740
:1020200013F838610AE0FFF70FF802463B69D31A4C
:1020300041F28832934201D90323BCE0614B1B6F0C
:1020400003F00203002BEED014E0FEF7FDFF386131
:102050000AE0FEF7F9FF02463B69D31A41F28832E3
:10206000934201D90323A6E0564B1B6F03F00203F2
:10207000002BEED1FB7D012B05D1524A514B1B6C3D
:1020800023F0805313647B689B69002B00F09280DF
:102090004C4B9B6803F00C03082B5CD07B689B695E
:1020A000022B41D1484B00221A60FEF7CDFF386168
:1020B00008E0FEF7C9FF02463B69D31A022B01D99B
:1020C000032378E03F4B1B6803F00073002BF0D133
:1020D0003C497B68DA697B681B6A1A437B685B6AE8
:1020E0009B011A437B689B6A5B08013B1B041A43F4
:1020F0007B68DB6A1B0613434B60334B01221A607B
:10210000FEF7A2FF386108E0FEF79EFF02463B693A
:10211000D31A022B01D903234DE02A4B1B6803F08D
:102120000073002BF0D045E0274B00221A60FEF729
:102130008BFF386108E0FEF787FF02463B69D31A40
:10214000022B01D9032336E01E4B1B6803F00073FA
:10215000002BF0D12EE07B689B69012B01D101237C
:1021600029E0184B5B68FB60FB6803F480027B6826
:10217000DB699A421CD1FB6803F03F027B681B6A53
:102180009A4215D1FA6847F6C07313407A68526ACA
:1021900093420DD1FB6803F440327B689B6A9A42FC
:1021A00006D1FB6803F070627B68DB6A9A4201D05B
:1021B000012300E0002318461837BD4680BD00BF4C
:1021C00000700040003802406000474280B584B093
:1021D00000AF786039607B68002B01D10123CCE02F
:1021E000684B1B6803F00F023B689A420CD2654BA8
:1021F0003A68D2B21A70634B1B6803F00F023B6857
:102200009A4201D00123B8E07B681B6803F0020307
:10221000002B20D07B681B6803F00403002B05D043
:10222000594A594B9B6843F4E05393607B681B68A1
:1022300003F00803002B05D0534A534B9B6843F42B
:10224000604393605049504B9B6823F0F0027B68D9
:102250009B6813438B607B681B6803F00103002BB2
:1022600044D07B685B68012B07D1474B1B6803F4A4
:102270000033002B19D101237FE07B685B68022BC0
:1022800003D07B685B68032B07D13F4B1B6803F0CF
:102290000073002B09D101236FE03B4B1B6803F057
:1022A0000203002B01D1012367E03749364B9B68BD
:1022B00023F003027B685B6813438B60FEF7C4FE68
:1022C000F8600AE0FEF7C0FE0246FB68D31A41F24E
:1022D0008832934201D903234FE02B4B9B6803F0D4
:1022E0000C027B685B689B009A42EBD1254B1B6814
:1022F00003F00F023B689A420CD9224B3A68D2B2E3
:102300001A70204B1B6803F00F023B689A4201D001
:10231000012332E07B681B6803F00403002B08D024
:102320001949194B9B6823F4E0527B68DB6813431F
:102330008B607B681B6803F00803002B09D01249EF
:10234000114B9B6823F460427B681B69DB001343DD
:102350008B6000F021F801460B4B9B681B0903F0D2
:102360000F030A4AD35C21FA03F3094A1360094BAD
:102370001B68184605F00AFC002318461037BD46B6
:1023800080BD00BF003C02400038024074C7000816
:102390001C000020000000202DE9F04F87B000AFA6
:1023A0000022FA6000227A610022BA6000223A61BB
:1023B000514A926802F00C02042A07D0082A08D079
:1023C000002A40F090804D4B3B618FE04C4B3B61CD
:1023D0008CE0494A526802F03F02FA60464A52686D
:1023E00002F48002002A23D0434B5B689B094FF024
:1023F000000440F2FF114FF0000203EA010304EA77
:1024000002043F4A02FB04F1002202FB03F20A44E9
:102410003B49A3FB010153181946FB684FF0000428
:102420001A462346FEF7BCFB03460C467B614CE094
:10243000314A5268920911464FF0000240F2FF15EE
:102440004FF0000605EA010506EA02062946324673
:102450004FEA421B4BEAD16B4FEA411A51465A46AA
:10246000AA46B34655465E464D1B62EB0606294614
:102470003246940144EA91648B015B1A64EB0204D6
:102480004FEAC40949EA53794FEAC30843464C4628
:1024900055465E46ED1846EB04062B463446A2022E
:1024A0007A607A6842EA93527A609B023B6097E8CE
:1024B000180018462146FB684FF000041A462346D0
:1024C000FEF76EFB03460C467B610B4B5B681B0CF7
:1024D00003F0030301335B00BB607A69BB68B2FBA6
:1024E000F3F33B6102E0054B3B6100BF3B691846DB
:1024F0001C37BD46BDE8F08F003802400024F400D0
:1025000040787D0180B400AF034B1B681846BD4680
:102510005DF8047B704700BF1C00002080B500AF51
:10252000FFF7F0FF0146054B9B685B0B03F00703C9
:10253000034AD35C21FA03F3184680BD00380240F9
:1025400084C7000880B483B000AF786039607B68CE
:102550000F221A60124B9B6803F003027B685A60DB
:102560000F4B9B6803F0F0027B689A600C4B9B68F2
:1025700003F4E0527B68DA60094B9B68DB0803F4E4
:10258000E0527B681A61074B1B6803F00F023B683F
:102590001A6000BF0C37BD465DF8047B704700BF72
:1025A00000380240003C024080B582B000AF786045
:1025B0007B68002B01D1012355E07B6800229A62E1
:1025C0007B6893F85130DBB2002B06D17B68002288
:1025D00083F85020786805F029FA7B68022283F896
:1025E00051207B681B687A681268126822F04002EA
:1025F0001A607B681B687A6851687A689268114330
:102600007A68D26811437A68126911437A6852690C
:1026100011437A68926902F4007211437A68D269B0
:1026200011437A68126A11437A68926A0A431A60FF
:102630007B681B687A689269120C02F004017A6860
:10264000526A0A435A607B681B687A681268D269CA
:1026500022F40062DA617B6800225A657B680122FD
:1026600083F85120002318460837BD4680BD80B549
:1026700088B000AFF860B9603B601346FB80002370
:10268000FB77FB6893F85030012B01D102231CE14A
:10269000FB68012283F85020FEF7D6FCB861FB8866
:1026A000FB82FB6893F85130DBB2012B02D002238E
:1026B000FB7701E1BB68002B02D0FB88002B02D125
:1026C0000123FB77F8E0FB68032283F85120FB68C5
:1026D00000225A65FB68BA681A63FB68FA889A8612
:1026E000FB68FA88DA86FB6800229A63FB6800229E
:1026F0009A87FB680022DA87FB6800225A64FB682D
:1027000000221A64FB689B68B3F5004F07D1FB6891
:102710001B68FA681268126842F480421A60FB680B
:102720001B681B6803F04003402B07D0FB681B6845
:10273000FA681268126842F040021A60FB68DB68AF
:10274000B3F5006F4BD1FB685B68002B02D0FB8AAE
:10275000012B3ED1FB681B68FA68126B1288DA60A5
:10276000FB681B6B9A1CFB681A63FB68DB8E9BB2D1
:10277000013B9AB2FB68DA862BE0FB681B689B681A
:1027800003F00203022B12D1FB681B68FA68126B7C
:102790001288DA60FB681B6B9A1CFB681A63FB6883
:1027A000DB8E9BB2013B9AB2FB68DA8611E0FEF742
:1027B0004BFC0246BB69D21A3B689A4203D33B6882
:1027C000B3F1FF3F02D13B68002B02D10323FB771B
:1027D00072E0FB68DB8E9BB2002BCED14CE0FB6835
:1027E0005B68002B02D0FB8A012B40D1FB681B6881
:1027F0000C33FA68126B12781A70FB681B6B5A1C48
:10280000FB681A63FB68DB8E9BB2013B9AB2FB68E4
:10281000DA862CE0FB681B689B6803F00203022B3E
:1028200013D1FB681B680C33FA68126B12781A70AC
:10283000FB681B6B5A1CFB681A63FB68DB8E9BB240
:10284000013B9AB2FB68DA8611E0FEF7FDFB024617
:10285000BB69D21A3B689A4203D33B68B3F1FF3F8E
:1028600002D13B68002B02D10323FB7724E0FB68F5
:10287000DB8E9BB2002BCDD1BA693968F86800F0C5
:10288000EDFD0346002B02D0FB6820225A65FB6851
:102890009B68002B0AD100233B61FB681B68DB6847
:1028A0003B61FB681B689B683B613B69FB685B6D38
:1028B000002B01D00123FB77FB68012283F8512014
:1028C000FB68002283F85020FB7F18462037BD4666
:1028D00080BD80B588B002AFF860B9603B60134638
:1028E000FB800023FB75FB685B68B3F5827F12D128
:1028F000FB689B68002B0ED1FB68042283F85120F3
:10290000FA883B6800931346BA68B968F86800F023
:10291000E6F80346DFE0FB6893F85030012B01D165
:102920000223D8E0FB68012283F85020FEF78CFBDD
:102930003861FB6893F85130DBB2012B02D00223DF
:10294000FB75BFE0BB68002B02D0FB88002B02D1D7
:102950000123FB75B6E0FB68042283F85120FB6875
:1029600000225A65FB68BA689A63FB68FA889A87FE
:10297000FB68FA88DA87FB6800221A63FB6800228A
:102980009A86FB680022DA86FB6800221A64FB68DC
:1029900000225A64FB689B68B3F5004F07D1FB68BF
:1029A0001B68FA681268126822F480421A60FB6899
:1029B0001B681B6803F04003402B07D0FB681B68B3
:1029C000FA681268126842F040021A60FB68DB681D
:1029D000002B61D12DE0FB681B689B6803F00103AD
:1029E000012B14D1FB689B6BFA6812680C321278C9
:1029F000D2B21A70FB689B6B5A1CFB689A63FB6827
:102A0000DB8F9BB2013B9AB2FB68DA8711E0FEF7DD
:102A10001BFB02463B69D21A3B689A4203D33B68D0
:102A2000B3F1FF3F02D13B68002B02D10323FB75BA
:102A300048E0FB68DB8F9BB2002BCCD131E0FB6818
:102A40001B689B6803F00103012B13D1FB689B6B90
:102A5000FA681268D26892B21A80FB689B6B9A1C63
:102A6000FB689A63FB68DB8F9BB2013B9AB2FB6801
:102A7000DA8711E0FEF7E8FA02463B69D21A3B68B2
:102A80009A4203D33B68B3F1FF3F02D13B68002B6E
:102A900002D10323FB7515E0FB68DB8F9BB2002B93
:102AA000CDD13A693968F86800F072FC0346002B12
:102AB00002D0FB6820225A65FB685B6D002B01D0B9
:102AC0000123FB75FB68012283F85120FB6800227B
:102AD00083F85020FB7D18461837BD4680BD80B571
:102AE0008CB000AFF860B9607A607B800123FB6234
:102AF000002387F82B30FB6893F85030012B01D16D
:102B0000022388E1FB68012283F85020FEF79CFA3B
:102B10007862FB6893F8513087F82330FB685B6874
:102B2000FB617B887B8397F82330012B0FD0FB69F7
:102B3000B3F5827F07D1FB689B68002B03D197F820
:102B40002330042B03D0022387F82B3059E1BB68D4
:102B5000002B05D07B68002B02D07B88002B03D193
:102B6000012387F82B304CE1FB6893F85130DBB23E
:102B7000042B03D0FB68052283F85120FB68002258
:102B80005A65FB687A689A63FB687A88DA87FB681B
:102B90007A889A87FB68BA681A63FB687A88DA864B
:102BA000FB687A889A86FB6800221A64FB68002218
:102BB0005A64FB681B681B6803F04003402B07D076
:102BC000FB681B68FA681268126842F040021A60DB
:102BD000FB68DB68B3F5006F78D1FB685B68002B9E
:102BE00002D07B8B012B66D1FB681B68FA68126BE5
:102BF0001288DA60FB681B6B9A1CFB681A63FB681F
:102C0000DB8E9BB2013B9AB2FB68DA8653E0FB682D
:102C10001B689B6803F00203022B1BD1FB68DB8E51
:102C20009BB2002B16D0FB6A012B13D1FB681B68EB
:102C3000FA68126B1288DA60FB681B6B9A1CFB68DF
:102C40001A63FB68DB8E9BB2013B9AB2FB68DA86A3
:102C50000023FB62FB681B689B6803F00103012BE8
:102C600019D1FB68DB8F9BB2002B14D0FB689B6BE8
:102C7000FA681268D26892B21A80FB689B6B9A1C41
:102C8000FB689A63FB68DB8F9BB2013B9AB2FB68DF
:102C9000DA870123FB62FEF7D7F902467B6AD21A74
:102CA000BB6B9A4207D3BB6BB3F1FF3F03D0032347
:102CB00087F82B30A5E0FB68DB8E9BB2002BA6D1FA
:102CC000FB68DB8F9BB2002BA1D17CE0FB685B68CB
:102CD000002B02D07B8B012B6BD1FB681B680C3364
:102CE000FA68126B12781A70FB681B6B5A1CFB682F
:102CF0001A63FB68DB8E9BB2013B9AB2FB68DA86F3
:102D000057E0FB681B689B6803F00203022B1CD191
:102D1000FB68DB8E9BB2002B17D0FB6A012B14D112
:102D2000FB681B680C33FA68126B12781A70FB6828
:102D30001B6B5A1CFB681A63FB68DB8E9BB2013B62
:102D40009AB2FB68DA860023FB62FB681B689B680B
:102D500003F00103012B19D1FB68DB8F9BB2002B21
:102D600014D0FB689B6BFA681268D268D2B21A70F2
:102D7000FB689B6B5A1CFB689A63FB68DB8F9BB2FA
:102D8000013B9AB2FB68DA870123FB62FEF75CF92C
:102D900002467B6AD21ABB6B9A4203D3BB6BB3F178
:102DA000FF3F02D1BB6B002B03D1032387F82B30ED
:102DB00027E0FB68DB8E9BB2002BA2D1FB68DB8F88
:102DC0009BB2002B9DD17A6AB96BF86800F046FB84
:102DD0000346002B06D0012387F82B30FB68202206
:102DE0005A650EE0FB689B68002B0AD100237B61CB
:102DF000FB681B68DB687B61FB681B689B687B6109
:102E00007B69FB68012283F85120FB68002283F86C
:102E1000502097F82B3018463037BD4680BD000053
:102E200080B586B000AFF860B9601346FB80002320
:102E3000FB75FB6893F85030012B01D1022393E01E
:102E4000FB68012283F85020FB6893F85130DBB215
:102E5000012B02D00223FB7581E0BB68002B02D05E
:102E6000FB88002B02D10123FB7578E0FB6803226D
:102E700083F85120FB6800225A65FB68BA681A6320
:102E8000FB68FA889A86FB68FA88DA86FB68002273
:102E90009A63FB6800225A64FB6800221A64FB688C
:102EA00000229A87FB680022DA87FB689B68B3F5EB
:102EB000004F07D1FB681B68FA681268126842F479
:102EC00080421A60FB689B6C294A1A64FB689B6C01
:102ED000284ADA63FB689B6C274ADA64FB689B6CC0
:102EE00000221A65FB68986CFB681B6B1946FB682F
:102EF0001B680C331A46FB68DB8E9BB2FEF760FA48
:102F00000346002B0CD0FB685B6D43F01002FB689E
:102F10005A650123FB75FB68012283F851201EE0EE
:102F2000FB681B681B6803F04003402B07D0FB685D
:102F30001B68FA681268126842F040021A60FB6867
:102F40001B68FA681268526842F020025A60FB68F7
:102F50001B68FA681268526842F002025A60FB6805
:102F6000002283F85020FB7D18461837BD4680BDEF
:102F700039320008913100085532000880B588B018
:102F800000AF78607B681B685B68FB617B681B68CF
:102F90009B68BB61BB6903F04003002B0ED1BB698A
:102FA00003F00103002B09D0FB6903F04003002B61
:102FB00004D07B681B6C78689847CFE0BB6903F04E
:102FC0000203002B09D0FB6903F08003002B04D01F
:102FD0007B685B6C78689847C0E0BB6903F02003AE
:102FE000002B0AD1BB6903F04003002B05D1BB695C
:102FF00003F48073002B00F0B180FB6903F0200321
:10300000002B00F0AB80BB6903F04003002B23D002
:103010007B6893F85130DBB2032B11D07B685B6D7A
:1030200043F004027B685A6500237B617B681B6860
:10303000DB687B617B681B689B687B617B690BE05D
:1030400000233B617B681B68DB683B617B681B6816
:103050009B683B613B6981E0BB6903F02003002B67
:1030600014D07B685B6D43F001027B685A650023D6
:10307000FB607B681B689B68FB607B681B687A68E9
:103080001268126822F040021A60FB68BB6903F400
:103090008073002B0CD07B685B6D43F008027B686B
:1030A0005A650023BB607B681B689B68BB60BB687C
:1030B0007B685B6D002B50D07B681B687A68126858
:1030C000526822F0E0025A607B68012283F85120A6
:1030D000FB6903F00203002B04D1FB6903F0010339
:1030E000002B34D07B681B687A681268526822F023
:1030F00003025A607B68DB6C002B11D07B68DB6CB1
:10310000184A1A657B68DB6C1846FEF7B1F903466E
:10311000002B05D07B685B6D43F040027B685A65ED
:103120007B689B6C002B16D07B689B6C0D4A1A65E4
:103130007B689B6C1846FEF79BF90346002B0AD070
:103140007B685B6D43F040027B685A6503E07868FA
:1031500000F014F800E000BF00BF00BF2037BD46FC
:1031600080BD00BF9532000880B483B000AF7860A6
:1031700000BF0C37BD465DF8047B704780B483B058
:1031800000AF786000BF0C37BD465DF8047B704728
:1031900080B586B000AF78607B689B6B7B61FDF784
:1031A00053FF38617B681B681B6803F48073B3F5B9
:1031B000807F3BD07B691B687A691268526822F075
:1031C00020025A607B691B687A691268526822F093
:1031D00002025A603A696421786900F03FF90346B7
:1031E000002B05D07B695B6D43F020027B695A653B
:1031F0007B699B68002B0AD10023FB607B691B68FD
:10320000DB68FB607B691B689B68FB60FB687B6914
:103210000022DA867B69012283F851207B695B6D8D
:10322000002B03D07869FFF7A9FF02E0786904F06A
:103230009DFB1837BD4680BD80B584B000AF786077
:103240007B689B6BFB60F868FFF78EFF00BF103751
:10325000BD4680BD80B584B000AF78607B689B6B55
:10326000FB60FB681B68FA681268526822F0030270
:103270005A60FB685B6D43F01002FB685A65FB689F
:10328000012283F85120F868FFF778FF00BF10375C
:10329000BD4680BD80B584B000AF78607B689B6B15
:1032A000FB60FB680022DA87FB680022DA86F86898
:1032B000FFF764FF00BF1037BD4680BD80B584B006
:1032C00000AFF860B9603B601346FB714CE03B68AF
:1032D000B3F1FF3F48D0FDF7B7FE0246BB69D21AF3
:1032E0003B689A4202D23B68002B3DD1FB681B68C9
:1032F000FA681268526822F0E0025A60FB685B6864
:10330000B3F5827F11D1FB689B68B3F5004F04D001
:10331000FB689B68B3F5806F07D1FB681B68FA6890
:103320001268126822F040021A60FB689B6AB3F5CB
:10333000005F0FD1FB681B68FA681268126822F4FC
:1033400000521A60FB681B68FA681268126842F43F
:1033500000521A60FB68012283F85120FB680022AA
:1033600083F8502003230FE0FB681B689A68BB6852
:103370001A40BB689A420CBF01230023DBB21A46F5
:10338000FB799A42A3D1002318461037BD4680BD71
:1033900080B586B002AFF860B9607A60FB685B68A0
:1033A000B3F5827F11D1FB689B68B3F5004F04D061
:1033B000FB689B68B3F5806F07D1FB681B68FA68F0
:1033C0001268126822F040021A60FB685B68B3F56D
:1033D000827F2AD1FB689B68B3F5806F12D07B682F
:1033E0000093BB6800228021F868FFF767FF03465F
:1033F000002B2DD0FB685B6D43F02002FB685A6503
:10340000032326E07B680093BB6800220121F86853
:10341000FFF754FF0346002B1AD0FB685B6D43F0A7
:103420002002FB685A65032313E07B680093BB68A6
:1034300000220121F868FFF741FF0346002B07D067
:10344000FB685B6D43F02002FB685A65032300E0D4
:10345000002318461037BD4680BD000080B588B0F7
:1034600002AFF860B9607A601B4B1B681B4AA2FB75
:1034700003235B0D4FF47A7202FB03F37B61FB685D
:103480005B68B3F5827F12D17B680093BB68002232
:103490008021F868FFF712FF0346002B16D0FB6867
:1034A0005B6D43F02002FB685A6503230FE07B69E4
:1034B000002B0AD07B69013B7B61FB681B689B6822
:1034C00003F08003802BF2D000E000BF00231846F9
:1034D0001837BD4680BD00BF1C000020819F5E16CE
:1034E00080B582B000AF78607B68002B01D10123EA
:1034F0001DE07B6893F83D30DBB2002B06D17B6882
:10350000002283F83C20786800F015F87B680222DE
:1035100083F83D207B681A687B680433194610469F
:1035200000F068F97B68012283F83D2000231846EB
:103530000837BD4680BD80B483B000AF786000BF5F
:103540000C37BD465DF8047B704780B485B000AF92
:1035500078607B681B687A681268D26842F0010262
:10356000DA607B681B689B6803F00703FB60FB68FD
:10357000062B07D07B681B687A681268126842F0D5
:1035800001021A60002318461437BD465DF8047B1B
:10359000704780B582B000AF78607B681B681B699C
:1035A00003F00203022B22D17B681B68DB6803F067
:1035B0000203022B1BD17B681B686FF002021A61A9
:1035C0007B6801221A777B681B689B6903F0030301
:1035D000002B03D0786800F0EEF805E0786800F082
:1035E000E0F8786800F0F1F87B6800221A777B68D1
:1035F0001B681B6903F00403042B22D17B681B6842
:10360000DB6803F00403042B1BD17B681B686FF09D
:1036100004021A617B6802221A777B681B689B6927
:1036200003F44073002B03D0786800F0C4F805E081
:10363000786800F0B6F8786800F0C7F87B68002278
:103640001A777B681B681B6903F00803082B22D1DB
:103650007B681B68DB6803F00803082B1BD17B68C1
:103660001B686FF008021A617B6804221A777B6876
:103670001B68DB6903F00303002B03D0786800F0BC
:103680009AF805E0786800F08CF8786800F09DF80A
:103690007B6800221A777B681B681B6903F01003A4
:1036A000102B22D17B681B68DB6803F01003102B02
:1036B0001BD17B681B686FF010021A617B680822BF
:1036C0001A777B681B68DB6903F44073002B03D017
:1036D000786800F070F805E0786800F062F87868C3
:1036E00000F073F87B6800221A777B681B681B69FF
:1036F00003F00103012B0ED17B681B68DB6803F02C
:103700000103012B07D17B681B686FF001021A616E
:10371000786804F045F97B681B681B6903F0800337
:10372000802B0ED17B681B68DB6803F08003802B45
:1037300007D17B681B686FF080021A61786800F01F
:1037400003F97B681B681B6903F04003402B0ED113
:103750007B681B68DB6803F04003402B07D17B6864
:103760001B686FF040021A61786800F038F87B68D7
:103770001B681B6903F02003202B0ED17B681B689C
:10378000DB6803F02003202B07D17B681B686FF0F8
:1037900020021A61786800F0CDF800BF0837BD46F6
:1037A00080BD80B483B000AF786000BF0C37BD46E9
:1037B0005DF8047B704780B483B000AF786000BFD1
:1037C0000C37BD465DF8047B704780B483B000AF12
:1037D000786000BF0C37BD465DF8047B704780B44D
:1037E00083B000AF786000BF0C37BD465DF8047B46
:1037F0007047000080B485B000AF786039607B68A6
:103800001B68FB607B68404A934213D07B68B3F12E
:10381000804F0FD07B683D4A93420BD07B683C4A77
:10382000934207D07B683B4A934203D07B683A4A75
:10383000934208D1FB6823F07003FB603B685B6830
:10384000FA681343FB607B682F4A93422BD07B6856
:10385000B3F1804F27D07B682C4A934223D07B68FA
:103860002B4A93421FD07B682A4A93421BD07B6825
:10387000294A934217D07B68284A934213D07B6829
:10388000274A93420FD07B68264A93420BD07B682D
:10389000254A934207D07B68244A934203D07B6831
:1038A000234A934208D1FB6823F44073FB603B68D2
:1038B000DB68FA681343FB60FB6823F080023B6817
:1038C0005B691343FB607B68FA681A603B689A681F
:1038D0007B68DA623B681A687B689A627B680A4A8E
:1038E000934203D07B680C4A934203D13B681A6928
:1038F0007B681A637B6801225A6100BF1437BD469A
:103900005DF8047B704700BF0000014000040040E8
:1039100000080040000C004000040140004001404D
:10392000004401400048014000180040001C0040D5
:103930000020004080B483B000AF786000BF0C3737
:10394000BD465DF8047B704780B483B000AF7860FB
:1039500000BF0C37BD465DF8047B704780B500AFF3
:10396000002210210248FEF7A7F900BF80BD00BF6A
:103970000000024080B500AF012210210248FEF78E
:103980009BF900BF80BD00BF0000024080B500AFC2
:10399000FFF7E4FF002202210748FEF78DF905201A
:1039A000FDF75EFB012202210348FEF785F9FFF7D0
:1039B000E1FF00BF80BD00BF000C024080B582B0B7
:1039C00000AF0346FB710D4B1B684FF0FF311846EB
:1039D00001F04EFE0A4AFB791370FFF7BFFF002289
:1039E0004FF480710748FEF767F901220449064841
:1039F000FFF716FA00BF0837BD4680BD00F1002072
:103A0000B0A600200008024044F0002080B584B039
:103A100000AF78603960164B1B684FF0FF311846D5
:103A200001F026FE0023FB600AE0FB68114A134404
:103A3000FA6879680A4412781A70FB680133FB60EF
:103A4000FA683B689A42F0D3FFF788FF01224FF4EF
:103A500080710948FEF730F93B689BB21A46054968
:103A60000648FFF7DDF900BF1037BD4680BD00BF37
:103A700000F10020B00600200008024044F00020C1
:103A800080B584B000AF78607B685A1C7A601B7880
:103A9000FB7334E07B685A1C7A601B78FB72FB7AFC
:103AA0001846FFF78BFF7B685A1C7A601B78BB7245
:103AB000BB7A9BB203F08003BB81BB7A03F07F0328
:103AC000BB72BB7A002B08D0BB7A19467868FFF727
:103AD0009DFFBB7A7A6813447B60BB89002B0ED0B4
:103AE0007B685A1C7A601B78BB81BB89FF2B02D193
:103AF0004FF4FA73BB81BB891846FDF7B1FAFB7B23
:103B00005A1EFA73002BC5D100BF1037BD4680BDC9
:103B100090B585B000AF0446084611461A462346C4
:103B2000FB710346BB710B467B7113463B712A2028
:103B3000FFF744FF00233B73FB797B730023BB73C8
:103B40007B79FB7307F10C0304211846FFF75EFF36
:103B50002B20FFF733FFBB797B733B79FB7307F1B6
:103B60000C0304211846FFF751FF2C20FFF726FF16
:103B700000BF1437BD4690BD80B500AFFFF706FF0C
:103B80000548FFF77DFF0548FFF77AFF0448FFF778
:103B900077FF00BF80BD00BFD8C6000814C700086B
:103BA00024C7000880B500AF8023A0220021002098
:103BB000FFF7AEFF4FF420410248FFF727FF00BF99
:103BC00080BD00BFB006002090B585B000AF0446B0
:103BD000084611461A462346FB710346BB710B4645
:103BE0007B7113463B71FB79802B5AD83B8C1B0AA7
:103BF0009AB23B8C1B029BB21344BB8197F82430D2
:103C0000002B24D1294B1B684FF0FF31184601F0DF
:103C10002FFDBB79FB730EE0FA7913469B0013442A
:103C20005B011A46FB7B13442149BA8921F8132012
:103C3000FB7B0133FB73FA7B7B799A42ECD91B4BFC
:103C4000186800230022002101F01EFA2AE0174B19
:103C50001B684FF0FF31184601F00AFDBB79BB73BA
:103C600013E0BB7B03F00203002B0BD1FA79134660
:103C70009B0013445B011A46BB7B13440C49BA8971
:103C800021F81320BB7B0133BB73BA7B7B799A424B
:103C9000E7D9064B186800230022002101F0F4F94F
:103CA00000E000BF1437BD4690BD00BF00F100200A
:103CB000B006002090B587B000AF04460846114614
:103CC0001A462346FB710346BB710B467B711346B4
:103CD0003B71FB79A02B5AD83B8D1B0A9AB23B8DC6
:103CE0001B029BB21344FB8197F82C30002B24D18C
:103CF000294B1B684FF0FF31184601F0B9FCBB7926
:103D00007B610EE07A6913469B0013445B011A46FF
:103D1000FB7913442149FA8921F813207B69013387
:103D20007B617A797B699A42ECDA1B4B1868002335
:103D30000022002101F0A8F92AE0174B1B684FF080
:103D4000FF31184601F094FCBB793B6113E03B69FD
:103D500003F00203002B0BD13A6913469B00134476
:103D60005B011A46FB7913440C49FA8921F81320A8
:103D70003B6901333B617A793B699A42E7DA064B4A
:103D8000186800230022002101F07EF900E000BF46
:103D90001C37BD4690BD00BF00F10020B0060020DA
:103DA00090B587B000AF0446084611461A46234630
:103DB000FB710346BB710B467B7113463B713B8D18
:103DC0001B0A9AB23B8D1B029BB21344FB81194B19
:103DD0001B684FF0FF31184601F04AFCBB797B614C
:103DE00018E0FB793B610EE07A6913469B001344AF
:103DF0005B011A463B6913440F49FA8921F81320E5
:103E00003B6901333B617A793B699A42ECDA7B6921
:103E100001337B613A797B699A42E2DA054B186893
:103E200000230022002101F02FF900BF1C37BD46FE
:103E300090BD00BF00F10020B006002080B584B026
:103E400000AF0346FB80FB881B0A9AB2FB881B026B
:103E50009BB213447B81104B1B684FF0FF31184617
:103E600001F006FC0023FB6007E00C49FB687A893F
:103E700021F81320FB680133FB60FB68B3F5A04F0A
:103E8000F3DB054B186800230022002101F0FCF849
:103E900000BF1037BD4680BD00F10020B0060020F5
:103EA00082B080B487B000AF7B620346FB800B46D4
:103EB000BB801346FB7000237B6134E0BA6AFB7859
:103EC000203B97F8251001FB03F319467B690B444F
:103ED0005B0013441B88FB6000233B611AE0FA6817
:103EE0003B6902FA03F303F40043002B0FD0BA88B6
:103EF0007B691A4413469B0013445B011A46FB88F6
:103F00001A443B6913440E49BA8D21F813203B69CA
:103F100001333B6197F824301A463B699A42DED858
:103F20007B6901337B6197F825301A467B699A4299
:103F3000C4D800BF1C37BD465DF8047B02B0704793
:103F4000B006002082B080B588B004AF3A60FB6153
:103F50000346FB800B46BB80BB8C1B0A9AB2BB8C12
:103F60001B029BB21344FB813B8D1B0A9AB23B8D13
:103F70001B029BB21344BB81244B1B684FF0FF31E3
:103F8000184601F075FB2DE0FB883A7F13449F2B08
:103F900013DD0023FB807B7F9AB2BB881344BB8078
:103FA000BB887A7F13447F2B21DC3B681B78202B56
:103FB00003D13B6801333B6014E03B681A78B98851
:103FC000F888BB890293FB8901933B6A0093FB69E4
:103FD000FFF766FF3B7F9AB2FB881344FB803B6888
:103FE00001333B603B681B78002BCDD100E000BF64
:103FF000064B186800230022002101F045F800BF9D
:104000001037BD46BDE8804002B0704700F1002087
:1040100080B483B000AF03463960FB713B6893F80E
:10402000803019463B68FA795A543B6893F88130DE
:104030007E2B07D83B6893F881300133DAB23B68B6
:1040400083F881203B6893F880300133DAB23B6813
:1040500083F880203B6893F8803003F07F03DAB266
:104060003B6883F8802000BF0C37BD465DF8047BB9
:104070007047000080B586B000AF3A601A4603462C
:10408000FB710B46BB711346BB803B6893F88130D4
:10409000002B6CD0BB881B0A9AB2BB881B029BB258
:1040A0001344BB814FF4F8537B813B6893F8803015
:1040B000013B7B6100233B612F4B1B684FF0FF31BD
:1040C000184601F0D5FA43E03A687B69134493F946
:1040D0000030462B07DD3A687B69134447221A708B
:1040E0007B89FB8111E03A687B69134493F90030C6
:1040F00013F1450F07DA3A687B691344BA221A7044
:104100007B89FB8101E0BB89FB813A687B691344B1
:1041100093F900309B105BB2DAB2BB7913447B7227
:104120007A7A13469B0013445B011A46FB791A44C2
:104130003B6913441149FA8921F813207B69013B3B
:104140007B617B6903F07F037B613B6901333B61EA
:104150003B6893F881301A463B699A42B4DC064BBF
:10416000186800230022002100F08EFF00E000BF4D
:104170001837BD4680BD00BF00F10020B00600200A
:1041800080B400AF00BFBD465DF8047B70470000FF
:1041900080B485B000AFEFF30583BB60BB68002B34
:1041A0000FD1EFF310837B607B68002B05D1EFF319
:1041B00011833B603B68002B07D00E4B1B68022B22
:1041C00003D16FF00503FB600CE00A4B1B68002B6A
:1041D00005D1084B01221A600023FB6002E04FF07A
:1041E000FF33FB60FB6818461437BD465DF8047B5F
:1041F000704700BFB4A6002080B584B000AFEFF3D5
:104200000583BB60BB68002B0FD1EFF310837B608D
:104210007B68002B05D1EFF311833B603B68002BDB
:1042200007D00F4B1B68022B03D16FF00503FB6017
:1042300010E00B4B1B68012B09D1FFF7A1FF084BC6
:1042400002221A6001F072FE0023FB6002E04FF0D0
:10425000FF33FB60FB6818461037BD4680BD00BFCA
:10426000B4A6002080B590B004AFF860B9607A6061
:1042700000233B61EFF30583FB61FB69002B40F0FA
:104280008F80EFF31083BB61BB69002B05D1EFF387
:1042900011837B617B69002B03D0444B1B68022B8D
:1042A0007ED0FB68002B7BD08023BB6218237B620F
:1042B0000023FB624FF0FF333B627B68002B45D04D
:1042C0007B681B68002B02D07B681B68FB627B68E5
:1042D0009B69002B02D07B689B697B627B6A002B09
:1042E00008D07B6A382B05D87B685B6803F0010334
:1042F000002B01D0002354E07B685B69002B03D0C6
:104300007B685B699B08BB627B689B68002B0ED057
:104310007B68DB685B2B0AD97B681B69002B06D0A6
:104320007B685B69002B02D001233B6210E07B6855
:104330009B68002B0CD17B68DB68002B08D17B6865
:104340001B69002B04D100233B6201E000233B6288
:104350003B6A012B10D17B681B697A6892680292D4
:1043600001937B6A0093BB68BA6AF96AF86801F046
:104370000BFC03463B6113E03B6A002B10D1BB6A88
:104380009AB207F1100301937B6A0093BB68F96A44
:10439000F86801F053FC0346012B01D000233B6178
:1043A0003B6918463037BD4680BD00BFB4A600202B
:1043B00080B586B000AF7860EFF305833B613B6961
:1043C000002B0FD1EFF31083FB60FB68002B05D1AE
:1043D000EFF31183BB60BB68002B07D00A4B1B684F
:1043E000022B03D16FF005037B6107E000237B61A3
:1043F0007B68002B02D0786801F064FD7B69184669
:104400001837BD4680BD00BFB4A6002080B485B07B
:1044100000AFF860B9607A60FB68074A1A60BB6851
:10442000064A1A607B6880221A6000BF1437BD46B6
:104430005DF8047B704700BFB8A6002014A70020D9
:1044400080B485B000AFF860B9607A60FB68074A55
:104450001A60BB68064A1A607B684FF480721A6063
:1044600000BF1437BD465DF8047B704714A90020D7
:1044700070A9002080B483B000AF78607B6803F13E
:1044800008027B685A607B684FF0FF329A607B6855
:1044900003F108027B68DA607B6803F108027B683D
:1044A0001A617B6800221A6000BF0C37BD465DF8B8
:1044B000047B704780B483B000AF78607B680022D3
:1044C0001A6100BF0C37BD465DF8047B704780B4AD
:1044D00085B000AF786039607B685B68FB603B68E3
:1044E000FA685A60FB689A683B689A60FB689B6848
:1044F0003A685A60FB683A689A603B687A681A6161
:104500007B681B685A1C7B681A6000BF1437BD4665
:104510005DF8047B704780B485B000AF7860396087
:104520003B681B68BB60BB68B3F1FF3F03D17B688E
:104530001B69FB600CE07B680833FB6002E0FB68F2
:104540005B68FB60FB685B681A68BB689A42F6D9D7
:10455000FB685A683B685A603B685B683A689A60D7
:104560003B68FA689A60FB683A685A603B687A6808
:104570001A617B681B685A1C7B681A6000BF14377D
:10458000BD465DF8047B704780B485B000AF7860AD
:104590007B681B69FB607B685B687A6892689A60DD
:1045A0007B689B687A6852685A60FB685A687B68C7
:1045B0009A4203D17B689A68FB685A607B68002244
:1045C0001A61FB681B685A1EFB681A60FB681B684F
:1045D00018461437BD465DF8047B704780B485B03B
:1045E00000AFF860B9607A60FB68043BFB60FB6871
:1045F0004FF080721A60FB68043BFB60BB6823F0DD
:104600000102FB681A60FB68043BFB600C4AFB6814
:104610001A60FB68143BFB607A68FB681A60FB68F1
:10462000043BFB60FB686FF002021A60FB68203BF2
:10463000FB60FB6818461437BD465DF8047B704785
:104640004546000880B485B000AF00237B60114B65
:104650001B68B3F1FF3F09D04FF0500383F311887B
:10466000BFF36F8FBFF34F8FFB60FEE74FF0500338
:1046700083F31188BFF36F8FBFF34F8FBB6000BF11
:104680007B68002BFCD000BF1437BD465DF8047B6F
:10469000704700BF1800002000000000000000006C
:1046A000074B19680868B0E8F04F80F30988BFF33A
:1046B0006F8F4FF0000080F311887047AFF30080D8
:1046C00090E9002000BF00BF08480068006880F340
:1046D00008884FF0000080F3148862B661B6BFF31B
:1046E0004F8FBFF36F8F00DF00BF00BF08ED00E00A
:1046F00080B586B000AF444B1B68444A934209D151
:104700004FF0500383F31188BFF36F8FBFF34F8FC8
:104710003B61FEE73C4B1B683D4A934209D14FF099
:10472000500383F31188BFF36F8FBFF34F8FFB608C
:10473000FEE7384B7B617B691B78DBB27B607B6972
:10474000FF221A707B691B78DBB2FB70FB78DBB24F
:1047500003F05003DAB2304B1A70304B07221A6064
:1047600009E02E4B1B68013B2C4A1360FB78DBB23F
:104770005B00DBB2FB70FB78DBB203F08003802BC5
:10478000EFD0264B1B68C3F10703042B09D04FF071
:10479000500383F31188BFF36F8FBFF34F8FBB605C
:1047A000FEE71E4B1B681B021C4A13601B4B1B6859
:1047B00003F4E063194A13607B68DAB27B691A700C
:1047C000174A174B1B6843F470031360144A144BC9
:1047D0001B6843F07043136000F0D6F8114B0022C1
:1047E0001A6000F0F5F8104A0F4B1B6843F0404385
:1047F0001360FFF769FF01F06FFDFFF723FF002350
:1048000018461837BD4680BD00ED00E071C20F416B
:1048100070C20F4100E400E070AD002074AD0020D4
:1048200020ED00E01800002034EF00E080B483B0F9
:1048300000AF4FF0500383F31188BFF36F8FBFF3C6
:104840004F8F7B600E4B1B6801330D4A13600C4B7E
:104850001B68012B0ED10B4B1B68DBB2002B09D060
:104860004FF0500383F31188BFF36F8FBFF34F8F67
:104870003B60FEE700BF0C37BD465DF8047B704728
:104880001800002004ED00E080B483B000AF114BAD
:104890001B68002B09D14FF0500383F31188BFF33D
:1048A0006F8FBFF34F8F7B60FEE70A4B1B68013BA6
:1048B000084A1360074B1B68002B04D100233B60A0
:1048C0003B6883F3118800BF0C37BD465DF8047B5D
:1048D000704700BF1800002000000000000000002A
:1048E000EFF30980BFF36F8F154B1A681EF0100F9E
:1048F00008BF20ED108A20E9F04F10602DE9090073
:104900004FF0500080F31188BFF34F8FBFF36F8FCC
:1049100001F0E2FC4FF0000080F3118809BC196837
:104920000868B0E8F04F1EF0100F08BFB0EC108A16
:1049300080F30988BFF36F8F704700BFAFF300802B
:1049400090E9002000BF00BF80B582B000AF4FF0FB
:10495000500383F31188BFF36F8FBFF34F8F7B60DA
:1049600001F002FC0346002B03D0064B4FF08052AF
:104970001A6000233B603B6883F3118800BF08374F
:10498000BD4680BD04ED00E080B400AF0B4B0022BB
:104990001A600B4B00221A600A4A0B4B1B680B492A
:1049A000A1FB03139B09013B1360044B07221A6010
:1049B00000BFBD465DF8047B704700BF10E000E01B
:1049C00018E000E014E000E01C000020D34D62106D
:1049D000DFF80C00016841F470010160704700BF0E
:1049E00088ED00E080B485B000AFEFF30583FB6095
:1049F000FB680F2B13D9164AFB6813441B78FB7214
:104A0000144B1B78FA7A9A4209D24FF0500383F381
:104A10001188BFF36F8FBFF34F8F7B60FEE70E4BA4
:104A20001B6803F4E0620D4B1B689A4209D94FF0F2
:104A3000500383F31188BFF36F8FBFF34F8F3B6039
:104A4000FEE700BF1437BD465DF8047B704700BF2A
:104A5000F0E300E070AD00200CED00E074AD00204C
:104A600080B58AB000AF78600023FB6101F0C2FA24
:104A7000574B1B68002B01D100F00CF9554B1A68FD
:104A80007B681340002B40F08C807B68002B1CD08F
:104A900008227B6813447B607B6803F00703002BCC
:104AA00013D07B6823F0070308337B607B6803F037
:104AB0000703002B09D04FF0500383F31188BFF395
:104AC0006F8FBFF34F8F7B61FEE77B68002B68D051
:104AD000414B1B687A689A4263D8404B3B623F4B1C
:104AE0001B687B6204E07B6A3B627B6A1B687B62BB
:104AF0007B6A5A687B689A4203D27B6A1B68002BE8
:104B0000F1D1334B1B687A6A9A424AD03B6A1B68E0
:104B100008221344FB617B6A1A683B6A1A607B6A4D
:104B20005A687B68D21A08235B009A421ED97A6AB7
:104B30007B681344BB61BB6903F00703002B09D0FA
:104B40004FF0500383F31188BFF36F8FBFF34F8F84
:104B50003B61FEE77B6A5A687B68D21ABB695A6080
:104B60007B6A7A685A60B86900F0F6F81A4B1A68DE
:104B70007B6A5B68D31A184A1360174B1A68184B84
:104B80001B689A4203D2144B1B68154A13607B6A58
:104B90005A68104B1B681A437B6A5A607B6A002272
:104BA0001A6001F035FAFB6903F00703002B09D006
:104BB0004FF0500383F31188BFF36F8FBFF34F8F14
:104BC000FB60FEE7FB6918462837BD4680BD00BF85
:104BD00080E900208CE9002084E9002078E90020A9
:104BE00088E9002080B586B000AF78607B687B6183
:104BF0007B68002B46D008235B427A6913447B61B3
:104C00007B693B613B695A68204B1B681340002B52
:104C100009D14FF0500383F31188BFF36F8FBFF3B7
:104C20004F8FFB60FEE73B691B68002B09D04FF0FC
:104C3000500383F31188BFF36F8FBFF34F8FBB60B7
:104C4000FEE73B695A68114B1B681340002B19D0D3
:104C50003B691B68002B15D13B695A680B4B1B68DD
:104C6000DB431A403B695A6001F0C4F93B695A685A
:104C7000074B1B681344064A1360386900F06CF850
:104C800001F0C6F900BF1837BD4680BD8CE9002091
:104C900084E9002080B485B000AF4FF47053BB604E
:104CA000274BFB60FB6803F00703002B0CD0FB686D
:104CB0000733FB60FB6823F00703FB60BA68FB68FF
:104CC000D31A1F4A1344BB60FB687B601D4A7B6894
:104CD00013601C4B00225A607A68BB681344FB6067
:104CE0000822FB689B1AFB60FB6823F00703FB604C
:104CF000FB68154A1360144B1B6800225A60124B64
:104D00001B6800221A607B683B603B68FA68D21A15
:104D10003B685A600C4B1A683B681A603B685B68DA
:104D20000A4A13603B685B68094A1360094B4FF0FD
:104D300000421A6000BF1437BD465DF8047B70471F
:104D400078AD002078E9002080E9002088E9002083
:104D500084E900208CE9002080B485B000AF786041
:104D6000284BFB6002E0FB681B68FB60FB681A686D
:104D70007B689A42F7D3FB68BB60FB685B68BA68E4
:104D80001A447B689A4208D1FB685A687B685B6862
:104D90001A44FB685A60FB687B607B68BB607B6879
:104DA0005B68BA681A44FB681B689A4218D1FB68B2
:104DB0001A68154B1B689A420DD07B685A68FB68CD
:104DC0001B685B681A447B685A60FB681B681A683A
:104DD0007B681A6008E00C4B1A687B681A6003E075
:104DE000FB681A687B681A60FA687B689A4202D08E
:104DF000FB687A681A6000BF1437BD465DF8047B13
:104E0000704700BF78E9002080E9002080B584B0B9
:104E100000AF786039607B68FB60FB68002B09D1CC
:104E20004FF0500383F31188BFF36F8FBFF34F8FA1
:104E3000BB60FEE7FFF7FAFCFB681A68FB68DB6BF8
:104E4000F968096C01FB03F31A44FB689A60FB687C
:104E500000229A63FB681A68FB685A60FB681A684C
:104E6000FB68DB6B013BF968096C01FB03F31A4437
:104E7000FB68DA60FB68FF2283F84420FB68FF22AE
:104E800083F845203B68002B14D1FB681B69002B7D
:104E90001AD0FB681033184601F0C8FA0346002BFD
:104EA00012D00D4B4FF080521A60BFF34F8FBFF3FB
:104EB0006F8F09E0FB6810331846FFF7DBFAFB68D9
:104EC00024331846FFF7D6FAFFF7DEFC0123184615
:104ED0001037BD4680BD00BF04ED00E080B58EB048
:104EE00002AFF860B9607A603B60FB68002B09D1C3
:104EF0004FF0500383F31188BFF36F8FBFF34F8FD1
:104F0000BB62FEE73B68002B09D14FF0500383F3EF
:104F10001188BFF36F8FBFF34F8F7B62FEE77B6813
:104F2000002B02D0BB68002B01D0012300E000233E
:104F3000002B09D14FF0500383F31188BFF36F8F1B
:104F4000BFF34F8F3B62FEE77B68002B02D1BB684B
:104F5000002B01D1012300E00023002B09D14FF0E9
:104F6000500383F31188BFF36F8FBFF34F8FFB6143
:104F7000FEE750237B617B69502B09D04FF0500333
:104F800083F31188BFF36F8FBFF34F8FBB61FEE7D1
:104F90007B693B68FB62FB6A002B0DD0FB6A012238
:104FA00083F8462097F83820FB6A009313467A6806
:104FB000B968F86800F044F8FB6A18463037BD4617
:104FC00080BD80B58AB002AFF860B9601346FB714E
:104FD000FB68002B09D14FF0500383F31188BFF316
:104FE0006F8FBFF34F8F3B61FEE7BB68002B02D191
:104FF0000023FB6104E0FB68BA6802FB03F3FB617A
:10500000FB6950331846FFF72BFDB861BB69002BD5
:1050100011D0BB697B617B6950337B61BB69002226
:1050200083F84620FA79BB69009313467A69B96818
:10503000F86800F005F8BB6918462037BD4680BD0A
:1050400080B584B000AFF860B9607A60FB70BB686F
:10505000002B03D1BB69BA691A6002E0BB697A68A8
:105060001A60BB69FA68DA63BB69BA681A6401211D
:10507000B869FFF7CBFEBB69FA7883F84C2000BF14
:105080001037BD4680BD000080B58EB000AFF8601F
:10509000B9607A603B6000237B63FB683B633B6BDA
:1050A000002B09D14FF0500383F31188BFF36F8FAA
:1050B000BFF34F8FBB62FEE7BB68002B03D13B6B96
:1050C0001B6C002B01D1012300E00023002B09D130
:1050D0004FF0500383F31188BFF36F8FBFF34F8FEF
:1050E0007B62FEE73B68022B03D13B6BDB6B012B42
:1050F00001D1012300E00023002B09D14FF0500320
:1051000083F31188BFF36F8FBFF34F8F3B62FEE7CE
:1051100001F042FB0346002B02D17B68002B01D13A
:10512000012300E00023002B09D14FF0500383F34B
:105130001188BFF36F8FBFF34F8FFB61FEE7FFF75F
:1051400075FB3B6B9A6B3B6BDB6B9A4202D33B6804
:10515000022B29D13A68B968386B00F0A9FBF862D4
:105160003B6B5B6A002B10D03B6B2433184601F07D
:105170005DF90346002B13D03F4B4FF080521A606D
:10518000BFF34F8FBFF36F8F0AE0FB6A002B07D08E
:10519000394B4FF080521A60BFF34F8FBFF36F8FC0
:1051A000FFF772FB012363E07B68002B03D1FFF75D
:1051B0006BFB00235CE07B6B002B06D107F1140333
:1051C000184601F095F901237B63FFF75DFB00F0C2
:1051D00011FFFFF72BFB3B6B93F844305BB2B3F14D
:1051E000FF3F03D13B6B002283F844203B6B93F8D5
:1051F00045305BB2B3F1FF3F03D13B6B002283F834
:105200004520FFF741FB3A1D07F1140311461846EC
:1052100001F084F90346002B24D1386B00F040FCE8
:105220000346002B18D03B6B10337A6811461846A2
:1052300001F0AEF8386B00F0CBFB00F0E9FE03465E
:10524000002B7FF47CAF0C4B4FF080521A60BFF301
:105250004F8FBFF36F8F72E7386B00F0B9FB00F030
:10526000D7FE6CE7386B00F0B3FB00F0D1FE0023F3
:1052700018463837BD4680BD04ED00E080B58EB0DD
:1052800000AFF860B9607A603B60FB683B633B6BE2
:10529000002B09D14FF0500383F31188BFF36F8FB8
:1052A000BFF34F8F7B62FEE7BB68002B03D13B6BE4
:1052B0001B6C002B01D1012300E00023002B09D13E
:1052C0004FF0500383F31188BFF36F8FBFF34F8FFD
:1052D0003B62FEE73B68022B03D13B6BDB6B012B90
:1052E00001D1012300E00023002B09D14FF050032E
:1052F00083F31188BFF36F8FBFF34F8FFB61FEE71E
:10530000FFF770FBEFF311824FF0500383F3118826
:10531000BFF36F8FBFF34F8FBA617B61BB69FB62D5
:105320003B6B9A6B3B6BDB6B9A4202D33B68022B65
:105330002CD13B6B93F8453087F82B303A68B9682D
:10534000386B00F0B5FA97F92B30B3F1FF3F12D16B
:105350003B6B5B6A002B16D03B6B2433184601F085
:1053600065F80346002B0ED07B68002B0BD07B68C2
:1053700001221A6007E097F82B300133DBB25AB2F2
:105380003B6B83F8452001237B6301E000237B63B3
:10539000FB6A3B613B6983F311887B6B18463837A6
:1053A000BD4680BD80B58EB000AF786039607B6847
:1053B0003B633B6B002B09D14FF0500383F3118803
:1053C000BFF36F8FBFF34F8F3B62FEE73B6B1B6CEE
:1053D000002B09D04FF0500383F31188BFF36F8F78
:1053E000BFF34F8FFB61FEE73B6B1B68002B03D1C4
:1053F0003B6B9B68002B01D1012300E00023002BB5
:1054000009D14FF0500383F31188BFF36F8FBFF3BF
:105410004F8FBB61FEE7FFF7E5FAEFF311824FF024
:10542000500383F31188BFF36F8FBFF34F8F7A61FF
:105430003B617B69FB623B6B9B6BBB623B6BDA6BDB
:10544000BB6A9A422BD93B6B93F8453087F82730DB
:10545000BB6A5A1C3B6B9A6397F92730B3F1FF3F45
:1054600012D13B6B5B6A002B16D03B6B2433184682
:1054700000F0DCFF0346002B0ED03B68002B0BD066
:105480003B6801221A6007E097F827300133DBB24E
:105490005AB23B6B83F8452001237B6301E0002374
:1054A0007B63FB6AFB60FB6883F311887B6B1846A8
:1054B0003837BD4680BD000080B58CB000AFF860C5
:1054C000B9607A600023FB62FB68BB62BB6A002B99
:1054D00009D14FF0500383F31188BFF36F8FBFF3EF
:1054E0004F8F3B62FEE7BB68002B03D1BB6A1B6C8E
:1054F000002B01D1012300E00023002B09D14FF044
:10550000500383F31188BFF36F8FBFF34F8FFB619D
:10551000FEE701F041F90346002B02D17B68002B26
:1055200001D1012300E00023002B09D14FF05003EB
:1055300083F31188BFF36F8FBFF34F8FBB61FEE71B
:10554000FFF774F9BB6A9B6B7B627B6A002B1FD0F1
:10555000B968B86A00F016FA7B6A5A1EBB6A9A6389
:10556000BB6A1B69002B0FD0BB6A1033184600F0D2
:105570005DFF0346002B07D03C4B4FF080521A6072
:10558000BFF34F8FBFF36F8FFFF77EF9012369E001
:105590007B68002B03D1FFF777F9002362E0FB6AF9
:1055A000002B06D107F11003184600F0A1FF0123DC
:1055B000FB62FFF769F900F01DFDFFF737F9BB6AE1
:1055C00093F844305BB2B3F1FF3F03D1BB6A0022D2
:1055D00083F84420BB6A93F845305BB2B3F1FF3FD8
:1055E00003D1BB6A002283F84520FFF74DF93A1D2D
:1055F00007F110031146184600F090FF0346002BF8
:1056000023D1B86A00F036FA0346002B17D0BB6AE4
:1056100024337A681146184600F0BAFEB86A00F0E2
:10562000D7F900F0F5FC0346002B89D10F4B4FF062
:1056300080521A60BFF34F8FBFF36F8F80E7B86A55
:1056400000F0C6F900F0E4FC7AE7B86A00F0C0F9AF
:1056500000F0DEFCB86A00F00DFA0346002B3FF4C0
:105660006FAF002318463037BD4680BD04ED00E023
:1056700080B58EB000AF7860396000237B637B68B3
:10568000FB6200233B63FB6A002B09D14FF0500300
:1056900083F31188BFF36F8FBFF34F8F3B62FEE739
:1056A000FB6A1B6C002B09D04FF0500383F3118869
:1056B000BFF36F8FBFF34F8FFB61FEE701F06CF814
:1056C0000346002B02D13B68002B01D1012300E0EF
:1056D0000023002B09D14FF0500383F31188BFF34F
:1056E0006F8FBFF34F8FBB61FEE7FFF79FF8FB6A39
:1056F0009B6BBB62BB6A002B24D0BB6A5A1EFB6A41
:105700009A63FB6A1B68002B04D101F0B7F90246CB
:10571000FB6A9A60FB6A1B69002B0FD0FB6A10338F
:10572000184600F083FE0346002B07D0534B4FF082
:1057300080521A60BFF34F8FBFF36F8FFFF7A4F84B
:10574000012396E03B68002B10D13B6B002B09D066
:105750004FF0500383F31188BFF36F8FBFF34F8F68
:105760007B61FEE7FFF790F8002382E07B6B002B64
:1057700006D107F10C03184600F0BAFE01237B6343
:10578000FFF782F800F036FCFFF750F8FB6A93F859
:1057900044305BB2B3F1FF3F03D1FB6A002283F8D0
:1057A0004420FB6A93F845305BB2B3F1FF3F03D16D
:1057B000FB6A002283F84520FFF766F83A4607F1B6
:1057C0000C031146184600F0A9FE0346002B32D107
:1057D000F86A00F04FF90346002B26D0FB6A1B68DD
:1057E000002B09D1FFF722F8FB6A9B68184600F0EE
:1057F000F1FF3863FFF748F8FB6A24333A68114633
:10580000184600F0C5FDF86A00F0E2F800F000FC70
:105810000346002B7FF469AF184B4FF080521A609B
:10582000BFF34F8FBFF36F8F5FE7F86A00F0D0F8D8
:1058300000F0EEFB59E7F86A00F0CAF800F0E8FB68
:10584000F86A00F017F90346002B3FF44EAF3B6BAC
:10585000002B0DD0FEF7EAFFF86A00F011F878622D
:10586000FB6A9B68796A184601F088F8FFF70CF824
:10587000002318463837BD4680BD00BF04ED00E068
:1058800080B485B000AF78607B685B6A002B06D07F
:105890007B681B6B1B68C3F13803FB6001E00023CE
:1058A000FB60FB6818461437BD465DF8047B704703
:1058B00080B586B000AFF860B9607A6000237B6184
:1058C000FB689B6B3B61FB681B6C002B0DD1FB687D
:1058D0001B68002B4DD1FB689B68184600F0E2FF67
:1058E0007861FB6800229A6043E07B68002B19D145
:1058F000FB685868FB681B6C1A46B96802F06EFAC0
:10590000FB685A68FB681B6C1A44FB685A60FB68AA
:105910005A68FB689B689A422BD3FB681A68FB683D
:105920005A6026E0FB68D868FB681B6C1A46B968A9
:1059300002F054FAFB68DA68FB681B6C5B421A449D
:10594000FB68DA60FB68DA68FB681B689A4207D27A
:10595000FB689A68FB681B6C5B421A44FB68DA6060
:105960007B68022B05D13B69002B02D03B69013BD0
:105970003B613B695A1CFB689A637B691846183780
:10598000BD4680BD80B582B000AF786039607B686D
:105990001B6C002B18D07B68DA687B681B6C1A4480
:1059A0007B68DA607B68DA687B689B689A4203D31D
:1059B0007B681A687B68DA607B68D9687B681B6CD7
:1059C0001A46386802F00AFA00BF0837BD4680BDA3
:1059D00080B584B000AF7860FEF728FF7B6893F84D
:1059E0004530FB7311E07B685B6A002B12D07B684B
:1059F0002433184600F01AFD0346002B01D000F0B6
:105A0000EDFDFB7B013BDBB2FB7397F90F30002B05
:105A1000E9DC00E000BF7B68FF2283F84520FEF749
:105A200033FFFEF703FF7B6893F84430BB7311E04C
:105A30007B681B69002B12D07B681033184600F07E
:105A4000F5FC0346002B01D000F0C8FDBB7B013BF9
:105A5000DBB2BB7397F90E30002BE9DC00E000BF2E
:105A60007B68FF2283F84420FEF70EFF00BF10374B
:105A7000BD4680BD80B584B000AF7860FEF7D6FE2D
:105A80007B689B6B002B02D10123FB6001E00023AC
:105A9000FB60FEF7F9FEFB6818461037BD4680BD77
:105AA00080B584B000AF7860FEF7C0FE7B689A6B6B
:105AB0007B68DB6B9A4202D10123FB6001E000238B
:105AC000FB60FEF7E1FEFB6818461037BD4680BD5F
:105AD00080B485B000AF786039600023FB6014E0CB
