:020000040800F2
:1000000000000220051F0008A91E0008AB1E000802
:10001000AD1E0008AF1E0008B11E00080000000061
:10002000000000000000000000000000B31E0008F7
:10003000B51E000800000000B71E0008551F00088C
:10004000551F0008551F0008551F0008551F0008C0
:10005000551F0008551F0008551F0008551F0008B0
:10006000551F0008551F0008551F0008551F0008A0
:10007000551F0008551F0008551F0008551F000890
:10008000B91E0008C51E0008551F0008551F0008AE
:10009000551F0008551F0008551F0008551F000870
:1000A000551F0008551F0008551F0008551F000860
:1000B000551F0008551F0008551F0008551F000850
:1000C000551F0008551F0008551F0008551F000840
:1000D000551F0008551F0008D11E0008551F0008B5
:1000E000551F0008551F0008551F0008551F000820
:1000F000551F0008551F0008551F0008551F000810
:10010000551F0008551F0008551F0008551F0008FF
:10011000551F0008551F0008DD1E0008551F000868
:10012000551F0008551F0008551F0008551F0008DF
:10013000551F0008551F0008551F0008551F0008CF
:10014000551F0008551F0008551F0008551F0008BF
:10015000551F0008551F0008551F0008551F0008AF
:10016000551F0008551F0008551F0008551F00089F
:10017000551F0008551F0008551F0008000000000B
:08018000551F0008551F00087F
:1001880010B5054C237833B9044B13B10448AFF3C9
:1001980000800123237010BD0C0000200000000027
:1001A800B01F000808B5034B1BB103490348AFF360
:1001B800008008BD0000000010000020B01F0008EB
:1001C80053B94AB9002908BF00281CBF4FF0FF31B6
:1001D8004FF0FF3000F07AB9ADF1080C6DE904CEAC
:1001E80000F006F8DDF804E0DDE9022304B070470A
:1001F8002DE9F0478C460D460446089E002B51D148
:100208008A4217466DD9B2FA82FEBEF1000F0BD0B2
:10021800CEF1200C01FA0EF520FA0CFC02FA0EF7CA
:100228004CEA050C00FA0EF44FEA174A250CBCFB01
:10023800FAF81FFA87F90AFB18CC45EA0C4508FBBF
:1002480009F3AB420AD9ED1908F1FF3280F0238196
:10025800AB4240F22081A8F102083D44ED1AA4B255
:10026800B5FBFAF00AFB105544EA054400FB09F90E
:10027800A14509D9E41900F1FF3380F00A81A145AD
:1002880040F2078102383C44A4EB090440EA0840E4
:100298000021002E61D024FA0EF40023346073602C
:1002A800BDE8F0878B4207D9002E54D0002186E89C
:1002B80021000846BDE8F087B3FA83F1002940F031
:1002C8008E80AB4202D3824200F2FA80841A65EB38
:1002D80003050120AC46002E3FD086E81010BDE88B
:1002E800F08712B90127B7FBF2F7B7FA87FEBEF11C
:1002F800000F34D1EB1B3A0C1FFA87FC0121B3FB2A
:10030800F2F8250C02FB183345EA03450CFB08F309
:10031800AB4207D9ED1908F1FF3002D2AB4200F227
:10032800D1808046ED1AA3B2B5FBF2F002FB10555E
:1003380043EA05440CFB00FCA44507D9E41900F185
:10034800FF3302D2A44500F2B8801846A4EB0C048F
:1003580040EA08409DE731463046BDE8F087CEF1D7
:10036800200405FA0EF307FA0EF720FA04F83A0CFF
:1003780025FA04F448EA0308B4FBF2F14FEA1845F9
:1003880002FB11441FFA87FC45EA044501FB0CF304
:10039800AB4200FA0EF409D9ED1901F1FF3080F0F3
:1003A8008A80AB4240F2878002393D44EB1A1FFA3B
:1003B80088F5B3FBF2F002FB103345EA034500FB76
:1003C8000CF3AB4207D9ED1900F1FF386FD2AB42FD
:1003D8006DD902383D44EB1A40EA01418FE7C1F17B
:1003E800200722FA07F88B4005FA01F448EA0303CC
:1003F80020FA07FE4FEA134CFD404EEA040EB5FB07
:10040800FCF94FEA1E440CFB19551FFA83F844EA1D
:10041800054509FB08F4AC4202FA01F200FA01FAB8
:1004280008D9ED1809F1FF3043D2AC4241D9A9F1FE
:1004380002091D442D1B1FFA8EFEB5FBFCF00CFBB8
:1004480010554EEA054400FB08F8A04507D9E41802
:1004580000F1FF3529D2A04527D902381C4440EACB
:100468000940A4EB0804A0FB02894C45C6464D464A
:1004780015D312D056B1BAEB0E0364EB050404FA97
:1004880007F7CB401F43CC40376074600021BDE8BC
:10049800F0871846F8E69046E0E6C245EAD2B8EB9F
:1004A800020E69EB03050138E4E72846D7E7404622
:1004B80091E78146BEE7014678E702383C4445E7C4
:1004C800084608E7A8F102083D442BE7704700BF3B
:1004D80008B50B4B1A6842F400721A601A6842F4A5
:1004E80080621A601A6842F480721A60032000F071
:1004F8002FF8002001F096FC01F0C6FB002008BD93
:10050800003C0240034A044B11681B780B441360FB
:10051800704700BF2800002000000020014B186829
:10052800704700BF2800002038B50446FFF7F6FFE3
:10053800631C1CBF054B1B78054618BFE418FFF762
:10054800EDFF401B8442FAD838BD00BF00000020F0
:10055800074AD36823F4E0631B041B0C43F0BF6312
:10056800000243F4003300F4E0600343D3607047B3
:1005780000ED00E0174B30B5DC68C4F30224C4F189
:100588000703251D042B28BF0423062D4FF0010562
:1005980005FA03F303F1FF338CBF033C0024194031
:1005A800A14005FA04F4013C2240002842EA010275
:1005B8004FEA0212ADBF00F1604000F00F00064B99
:1005C80000F56140B5BFD2B2D2B21A5480F8002308
:1005D80030BD00BF00ED00E014ED00E0002808DBAE
:1005E8004209012300F01F0003FA00F0014B43F811
:1005F8002200704700E100E00368DAB223F47F7359
:1006080023F003031821103AB2FBF1F20449032A3C
:1006180088BF0433895C8365C165806D704700BFFE
:10062800C81F000870B50446FFF778FF0546002C80
:1006380071D0002384F834302268022384F83530DE
:10064800136823F00103136021680B68D8073CD4B2
:100658000B68324D6268A0691D40A3681343E268C5
:1006680013432269134362691343E2690343134343
:10067800226A1343626A042A43EA050301BF266B10
:10068800E56A35432B430B604B69042A23F00703C3
:1006980043EA02030BD1A26AE56A13433DB1F8B9F4
:1006A800012A2DD001D3022A01D1EA012BD44B61B2
:1006B8002046FFF7A1FFE26D3F23934083600020AF
:1006C8000123606584F8353070BDFFF727FF401BB4
:1006D8000528B9D920236365032084F8350070BD47
:1006E800B0F5005F13D1032AE1D801A050F822F039
:1006F8000F070008B30600080F07000809070008DD
:10070800B5F1C07FD3D1402363650120E5E7022A14
:10071800F9D9032AC8E7012070BD00BF3F8010F057
:1007280090F83530022B03D08023436501207047B1
:100738000268052380F83530136823F0010313603D
:1007480000207047F7B5002301935A4B856D1F6849
:10075800C36D2E6808229A40164204460CD00168E0
:100768000868400708D5086820F004000860AA60F7
:10077800626D42F00102626501229A40164208D079
:1007880021684969090641BFAA60626D42F0020208
:10079800626504229A40164208D0216809688807D1
:1007A80041BFAA60626D42F00402626510229A405D
:1007B800164210D02368196809070CD5AA601A6870
:1007C800500335D51B68190301D4236C00E0A36CD2
:1007D8000BB120469847E16D20228A40164238D056
:1007E80023681868C60634D5AA6094F83520052A07
:1007F8001A6825D122F016021A605A6922F080027E
:100808005A61226C0AB9A26C1AB11A6822F008025D
:100818001A603F238B40AB60002384F834300123F7
:1008280084F83530236D0BB12046984703B0F0BDEE
:100838001A68D2055EBF1A6822F008021A60C4E777
:10084800500328D51B68190332D4636C0BB12046BA
:100858009847636D002BE9D0636DDA0719D5052336
:10086800226884F83530136823F0010313604FF4CD
:100878001653B7FBF3F7019B01339F42019302D351
:100888001368DB07F7D4002384F83430012384F895
:100898003530E36CC7E71A6812F4807208D119681A
:1008A80021F010011960012384F8342084F83530D0
:1008B800E36BCBE7080000202DE9F04F85B00B680B
:1008C800DFF8AC81684ADFF8AC910193002301247A
:1008D800019D9C402540AC4240F0B0804C6824F01B
:1008E800100C0CF1FF36012E4FEA430E12D8876820
:1008F800032606FA0EF627EA0607CE6806FA0EF66B
:100908003E4386604768C4F3001627EA05079E4001
:100918003E4346600326C76806FA0EF6F64307EA22
:10092800060A8F6807FA0EF747EA0A07BCF1020FB2
:10093800C76016D14FEAD30A00EB8A0A03F0070B07
:10094800DAF820704FEA8B0B4FF00F0C0CFA0BFC07
:1009580027EA0C0C0F6907FA0BF747EA0C07CAF8E5
:10096800207007683E4004F0030707FA0EFE4EEABF
:1009780006060660E60061D54FF0000BCDF80CB016
:10098800D8F84470394E47F48047C8F84470D8F80E
:10099800447007F480470397039F23F0030707F188
:1009A800804707F59C3703F0030CD7F808A04FEAF7
:1009B8008C0C4FF00F0E0EFA0CFEB0422AEA0E0E07
:1009C80043D006F58066B04241D006F58066B04255
:1009D8003FD006F58066B0423DD006F58066B0424D
:1009E8003BD048453BD006F50066B04239D006F505
:1009F8008066B04214BF0826072606FA0CF646EAB7
:100A08000E06BE601668EF4314F4803F0CBF3E40EC
:100A18002E431660566814F4003F0CBF3E402E4328
:100A28005660966814F4801F0CBF3E402E439660B3
:100A3800D668A40254BF3E402E43D6600133102B23
:100A48007FF445AF05B0BDE8F08F5E46D5E70126D7
:100A5800D3E70226D1E70326CFE70426CDE705260C
:100A6800CBE70626C9E700BF003C01400000024072
:100A780000380240001402400AB18161704709043D
:100A8800FBE700002DE9F341044608B901203FE0E7
:100A98000368DD0710D4236898075AD423681A0717
:100AA80000F19C8023685B0700F1BA80A0690028E8
:100AB80040F01B8100202BE0A44B9A6802F00C0246
:100AC800042A07D09A6802F00C02082A0AD15B6847
:100AD800590207D59D4B1B689A03DCD56368002B28
:100AE800D9D1D3E76368994DB3F5803F13D12B680B
:100AF80043F480332B60FFF711FD944D06462B68B5
:100B08009B03C8D4FFF70AFD801B6428F7D903208C
:100B180002B0BDE8F081B3F5A02F04D12B6843F4EF
:100B280080232B60E3E72A6822F480322A602A684F
:100B380022F480222A60002BDDD1FFF7EFFC064665
:100B48002B689F03A7D5FFF7E9FC801B6428F7D91A
:100B5800DDE77E4B9A6812F00C0F07D09A6802F016
:100B68000C02082A11D15B685E020ED4774B1A6812
:100B7800950702D5E268012A88D11A68216922F00E
:100B8800F80242EAC1021A6088E7E268704BB2B123
:100B980001221A60FFF7C2FC6C4D06462B689807C5
:100BA80007D52B68226923F0F80343EAC2032B60B8
:100BB80074E7FFF7B3FC801B0228EFD9A7E71A6098
:100BC800FFF7ACFC614D06462B6899077FF566AFC9
:100BD800FFF7A4FC801B0228F6D998E762695D4BF1
:100BE8007AB101221A60FFF799FC584D06466B6FDF
:100BF8009F073FF557AFFFF791FC801B0228F6D9F6
:100C080085E71A60FFF78AFC504D06466B6F980718
:100C18007FF548AFFFF782FC801B0228F6D976E7FC
:100C28004A4B1A6C12F0805228D101921A6C42F089
:100C380080521A641B6C03F080530193019B0126B8
:100C4800454D2B68D9051BD5A368404D012B27D1ED
:100C58002B6F43F001032B67FFF760FC3B4D074602
:100C680041F288382B6F9B0739D5002E3FF41EAF11
:100C7800364A136C23F08053136417E70026DFE726
:100C88002B6843F480732B60FFF748FC07462B68FA
:100C9800DA05D9D4FFF742FCC01B0228F7D936E79A
:100CA800052B04D12B6F43F004032B67D0E72A6F81
:100CB80022F001022A672A6F22F004022A67002B19
:100CC800CAD1FFF72BFC41F2883807462B6F9807EB
:100CD800CBD5FFF723FCC01B4045F7D917E7FFF733
:100CE8001DFCC01B4045BDD911E7184DAB6803F08A
:100CF8000C03082B47D0194E00230228336035D146
:100D0800FFF70CFC07462B68990129D4226AE3698E
:100D18001343626A43EA8213E26A43EA0263A26AFD
:100D28000A4C5208013A43EA02436B6001233360DC
:100D3800FFF7F4FB054623689A013FF5BBAEFFF7C2
:100D4800EDFB401B0228F6D9E1E600BF003802405F
:100D580000004742800E4742007000406000474252
:100D6800FFF7DCFBC01B0228CDD9D0E6FFF7D6FB86
:100D780004462B689B017FF59DAEFFF7CFFB001B58
:100D88000228F6D9C3E601283FF4C2AE6868E369D1
:100D980000F480029A427FF479AE226A00F03F03A1
:100DA80093427FF473AE626A47F6C073034093427E
:100DB8007FF46CAEA26A00F4403393427FF466AECF
:100DC800E36A00F07060C01A18BF0120A0E600BFF7
:100DD800134908B58B6803F00C03042B03D0082BC8
:100DE80003D0104808BD104808BD4A684B684968D8
:100DF80013F4800314BF0C480A48C1F3881118BFC4
:100E0800002302F03F02A1FB0001FFF7D9F9044BD0
:100E18005B68C3F3014301335B00B0FBF3F008BD2B
:100E2800003802400024F40040787D012DE9F041AB
:100E38000D46044610B90120BDE8F081444B1A68FC
:100E480002F00F028A4229D321688F072ED4C807DF
:100E580041D43F4B1A6802F00F02954267D32268CB
:100E680051076DD4130707D53A4A2169936823F4CB
:100E7800604343EAC1039360FFF7AAFF354B364A44
:100E88009B68C3F30313D35CD840344B1860344BCE
:100E9800186800F0C7FF0020BDE8F081CAB21A70D8
:100EA8001B6803F00F039942C5D1CDE7294B11F018
:100EB800040F1EBF9A6842F4E0529A600E0742BFC0
:100EC8009A6842F460429A609A68A06822F0F00238
:100ED80002439A60BBE762681E4B012A1DD11B685A
:100EE80013F4003FA7D01B4EB36823F0030313434A
:100EF800B360FFF713FB41F288380746B3686268AE
:100F080003F00C03B3EB820FA3D0FFF707FBC01B62
:100F18004045F3D90320BDE8F081911E01291B68E3
:100F280002D813F0007FDDE713F0020FDAE7EAB228
:100F38001A701B6803F00F039D427FF47CAF8EE7A5
:100F48000449E0688B6823F4E05303438B6089E726
:100F5800003C0240003802404320000808000020FE
:100F680004000020044B054A9B68C3F38223D35C2A
:100F7800034A1068D84070470038024053200008E0
:100F880008000020044B054A9B68C3F34233D35C36
:100F9800034A1068D84070470038024053200008C0
:100FA800080000200F2303600B4B9A6802F003022D
:100FB80042609A6802F0F00282609A6802F4E05295
:100FC800C2609B68DB0803F4E0530361034B1B68B2
:100FD80003F00F030B60704700380240003C0240EA
:100FE800F8B504460E4615461F4621688A6836EA53
:100FF800020301D00020F8BD6B1CF7D0FFF78EFA72
:10100800C01B8542F1D823685A6822F0E0025A6072
:101018006268B2F5827F0AD1A268B2F5004F02D0A9
:10102800B2F5806F03D11A6822F040021A60A26AF2
:10103800B2F5005F07D11A6822F400521A601A68E4
:1010480042F400521A60012384F85130002384F8D6
:1010580050300320F8BD000073B51346134A144EF0
:1010680015684268B5FBF6F64FF47A757543B2F524
:10107800827F044601950DD10A468021FFF7B0FF13
:1010880010B9002002B070BD636D43F020036365A2
:101098000320F7E7019B002BF3D0019B013B019351
:1010A80023689B681B06F5D4EBE700BF0800002007
:1010B80000366E0110B50446002836D0002383623E
:1010C80090F8513003F0FF021BB980F8502000F06F
:1010D800F7FD2168A068A269022384F851300B68E3
:1010E80023F040030B6063680343E068034320690F
:1010F800034360690343E0690343206A0343A06A2A
:10110800034302F4007003430B60120C636A02F09D
:1011180004021A434A60CB6923F40063CB610020C0
:101128000123606584F8513010BD012010BD2DE900
:10113800F3411E4690F85030012B04460D46904668
:1011480000F09B80012380F85030FFF7E7F907464D
:1011580094F85100C0B2012840F08D80002D5DD078
:10116800B8F1000F5AD0032384F851300020A36847
:101178006065A063A4F83680A087E0876064206477
:1011880020682563B3F5004F08BF0368A4F83480CE
:1011980004BF43F48043036003685B065EBF0368D3
:1011A80043F040030360E368B3F5006F63683ED122
:1011B80013B1B8F1010F07D135F8023BC3602563BD
:1011C800E38E013B9BB2E386E38E9BB2A3B93A461A
:1011D80031462046FFF740FF002849D1A36833B9BC
:1011E80001932368DA6801929B680193019B606D03
:1011F800003018BF012011E022689368980705D5D0
:10120800236B33F8021BD1602363D9E7FFF786F914
:10121800C01BB042D8D3711CD6D00320012384F858
:101228005130002384F8503002B0BDE8F08113B18A
:10123800B8F1010F08D12B780373236B01332363B3
:10124800E38E013B9BB2E386E38E9BB2002BBED0BC
:1012580023689A68920703D5226B12781A73ECE711
:10126800FFF75CF9C01B8642EED8731CECD0D4E7BC
:1012780020236365B2E70220D0E70220D4E7704755
:101288000368DA6842F00102DA609A6802F007023D
:10129800062A1EBF1A6842F001021A600020704731
:1012A800704770477047704703681A69910710B50F
:1012B80004460ED5DA6892070BD56FF002021A6160
:1012C8009B6901229B07027777D0FFF7EAFF00238B
:1012D800237723681A69500710D5DA6851070DD5A6
:1012E8006FF004021A619B69022213F4407F22778F
:1012F800204668D0FFF7D5FF0023237723681A69B3
:1013080012070FD5DA6810070CD56FF008021A61BA
:10131800DB6904229907227720465AD0FFF7C1FFDC
:101328000023237723681A69D20610D5DA68D00615
:101338000DD56FF010021A61DB69082213F4407FA3
:10134800227720464BD0FFF7ACFF00232377236892
:101358001A69D10708D5DA68D20705D56FF00102F6
:101368001A61204600F084FC23681A69100608D523
:10137800DA68110605D56FF080021A61204600F080
:10138800B6F823681A69520608D5DA68500605D5F2
:101398006FF040021A612046FFF785FF23681A693B
:1013A800910622D5DA6892061FD56FF020022046F2
:1013B8001A61BDE8104000F099B8FFF771FF2046A8
:1013C800FFF770FF83E7FFF76BFF2046FFF76AFF21
:1013D80092E7FFF765FF2046FFF764FFA0E7FFF7F6
:1013E8005FFF2046FFF75EFFAFE710BD304A036896
:1013F800904212D0B0F1804F0FD0A2F57C429042BB
:101408000BD002F58062904207D002F580629042CC
:1014180003D002F57842904219D14A6823F070034C
:101428001343234A904229D0B0F1804F26D0A2F529
:101438007C42904222D002F5806290421ED002F592
:10144800806290421AD002F57842904216D0194A2A
:10145800904213D002F5806290420FD002F580626C
:1014680090420BD0A2F59832904207D002F58062E4
:10147800904203D002F58062904203D1CA6823F4F7
:10148800407313434A6923F08003134303608B6856
:10149800C3620B688362064B984203D003F58063EE
:1014A800984201D10B69036301234361704700BF70
:1014B800000001400040014010B50446A0B190F87A
:1014C8003D3003F0FF021BB980F83C20FFF7D7FE40
:1014D800022384F83D302068211DFFF787FF012390
:1014E80084F83D30002010BD012010BD70477047C2
:1014F8000368DA6822F49072DA605A6922F001020D
:101508005A61202380F83A307047000038B50368E4
:10151800C1681A69044622F440520A431A612569CF
:10152800A268D968C0692A43656921F416412A432B
:1015380021F00C0102430A43DA605A69A16922F4D6
:1015480040720A43B0F5004F5A61254A29D19342A7
:1015580003D002F58062934220D1FFF713FD626841
:10156800256892184FF000034FF019015B41A0FB6A
:101578000101FEF725FE6421B0FBF1F401FB140321
:10158800DB003233B3FBF1F303F007025B0002EB3D
:10159800041203F4F8731344AB6038BDFFF7E2FCA0
:1015A800DDE7934202D00F4A934216D1FFF7EAFCD7
:1015B8006368256819219A00A0FB01019B0FFEF7BB
:1015C800FFFD6422B0FBF2F102FB11031B01323371
:1015D800B3FBF2F303EB0113DEE7FFF7C3FCE7E726
:1015E800001001400014014010B5044640B390F8C3
:1015F800393003F0FF021BB980F8382000F096FB61
:101608002268242384F83930D36823F40053D36044
:101618002046FFF77BFF23681A6922F490421A617B
:101628005A6922F02A025A61DA6842F40052DA60F2
:1016380000202023E06384F8393084F83A3010BD64
:10164800012010BD7047704790F83A30222B10B532
:1016580036D1836801690268B3F5805F836A23D154
:101668005268E9B9C2F3080223F8022B8362C48DD9
:10167800013CA4B2C4858CB90368DA6822F0200260
:10168800DA60DA6822F48072DA605A6922F00102BC
:101698005A61202380F83A30FFF7D5FF002010BDAB
:1016A800D2B223F8012BE1E721B9591C52688162B3
:1016B8001A70DCE75268591C816202F07F02F7E772
:1016C800022010BD7047000003681A68D96870B519
:1016D800160704465D6907D196065CD58D065AD56E
:1016E800BDE87040FFF7B0BF15F0010502D111F455
:1016F800907F50D0D00705D5CB0542BFE36B43F0B0
:101708000103E363560704D51DB1E36B43F00203FD
:10171800E363900704D51DB1E36B43F00403E3636F
:10172800130706D58E0600D41DB1E36B43F00803FA
:10173800E363E36B002B66D0950604D5880602D5D3
:101748002046FFF781FF23685D69E26B1107204699
:1017580002D415F040051AD0FFF7CAFE23685A696B
:10176800520610D55A69606B22F040025A6150B196
:10177800254B0365FEF7D4FF002844D0606BBDE815
:101788007040036D18472046FFF79CFF70BDFFF7B8
:1017980099FFE56370BD160627D50D0625D594F883
:1017A8003920212A2FD1A268B2F5805F226A17D189
:1017B8001188C1F308015960216979B9023222629E
:1017C800E28C013A92B2E284EAB9DA6822F0800245
:1017D800DA60DA6842F04002DA6070BD0132EEE7A2
:1017E800511C216212785A60EAE750060BD54A0666
:1017F80009D5DA6822F04002DA60202384F839300B
:101808002046FFF71FFF70BD1518000808B5806B4C
:101818000023C385C384FFF755FF08BD00221021AC
:101828000148FFF729B900BF0000024013B502AC18
:10183800002204F8010D4FF480710648FFF71CF9E7
:101848004FF0FF33012221460348FFF770FC02B036
:1018580010BD00BF000802408C00002070B50122B6
:1018680004460D4606484FF48071FFF705F9AAB201
:1018780021464FF0FF330348BDE87040FFF757BCDF
:10188800000802408C000020F8B50578461C05B910
:10189800F8BD344614F8020BFFF7C8FF767816F047
:1018A8007F0704D020463946FFF7D8FF3C4433066B
:1018B80008D52078FF2808BF4FF4FA70FEF734FEE9
:1018C800661C3446013DEDB22646E0E7F7B507460B
:1018D8002A2016461C460D46FFF7A8FF00218DF862
:1018E80004108DF8061004210DEB01008DF8057029
:1018F8008DF80760FFF7B2FF2B20FFF797FF042151
:101908000DEB01008DF805508DF80740FFF7A6FF95
:101918002C20FFF78BFF03B0F0BD0000012210213F
:101928000148FFF7A9B800BF000002402DE9F341C4
:101938001C468318802B154601EB0403C4BFC0F175
:101948008005ADB2A02BC8BFC1F1A0040F46064662
:10195800C8BFA4B2BDF82080FFF760FFF9B2F0B2AB
:101968004B1E421E23442A44DBB2D2B2FFF7AEFF1D
:101978004FEA182301224FF480710F488DF8043084
:101988008DF80580FFF778F80C4F7CB12E4608E0FB
:101998004FF0FF33022201A93846FFF7C8FB013E8A
:1019A800B6B2002EF4D1013CA4B2EEE7FFF7B6FFC1
:1019B80002B0BDE8F08100BF000802408C000020A2
:1019C80010B50E4CFFF72AFF002202212046FFF730
:1019D80053F80520FEF7A8FD012202212046FFF753
:1019E8004BF80748FFF750FF0648FFF74DFF06483A
:1019F800FFF74AFFBDE81040FFF790BF000C024018
:101A0800D01F00080B2000081820000807B5002187
:101A18000090A02380220846FFF788FF03B05DF8F6
:101A280004FB000030B595B03022002108A800F072
:101A3800B3FA0021142203A800F0AEFA00241C4BCC
:101A480001941A6C42F080521A641B6C03F08053A4
:101A58000193019B174B02941A6842F480421A6062
:101A68001B680F9403F480430293029B01230B939A
:101A780010230C930823109364230225119308A8BC
:101A88000423139308950E951295FEF7FBFF0F2379
:101A980003934FF4A053069303214FF4805303A8F4
:101AA800049505940793FFF7C1F915B030BD00BF41
:101AB800003802400070004080B588B00024634DB3
:101AC800FEF706FDFFF7AEFF1422002103A800F081
:101AD80063FA00942B6B5E4843F001032B632B6B76
:101AE80003F001030093009B01942B6B43F0080360
:101AF8002B632B6B03F008030193019B02942B6B60
:101B080043F004032B632B6B03F0040302930122BD
:101B18001021029BFEF7B0FF22464FF202014D480A
:101B2800FEF7AAFF22464FF480714B48FEF7A4FF48
:101B380001264A4B4648049303A910274FF003088F
:101B480003960594FEF7B8FE03A941480397049647
:101B58000594CDF81880FEF7AFFE4FF4704303A943
:101B68003C480393049605940694FEF7A5FE4FF4AB
:101B7800807303A93848039304960594CDF8188018
:101B8800FEF79AFE022303A93248039306930496AC
:101B98000594FEF791FE03942B6B43F400132B631B
:101BA8002B6B03F400132246214603933846039B0C
:101BB800FEF7E0FC3846FEF711FD214622461120CB
:101BC800FEF7D8FC1120FEF709FD2548254A846058
:101BD8004FF4E13380E80C000C234361C4600461D6
:101BE8008461C461FFF700FD1F482049C4604FF4B9
:101BF80082734FF4004580E82A004FF40073836134
:101C08000823C3610A23C362046144610462446215
:101C18008462FFF74FFAFFF7D3FE4FF47840FFF7DF
:101C2800F5FE4FF47A70FEF77FFC1F20FFF7EEFEFB
:101C38004FF47A70FEF778FC4FF4FC60FFF7E6FE8D
:101C48004FF47A70FEF770FCE7E700BF00380240F7
:101C580000000240000C0240000802400000111081
:101C680044010020004400408C000020003C00405B
:101C78000268034B9A4201D1FEF744BC704700BF8B
:101C8800001000407047000082B00C4B002100910A
:101C98005A6C42F480425A645A6C02F480420092B0
:101CA800009A01911A6C42F080521A641B6C03F07E
:101CB80080530193019B02B0704700BF0038024077
:101CC80010B5044688B01422002103A800F064F976
:101CD8002268144B9A4223D103F5FE330021019167
:101CE8001A6C114842F400421A641A6C02F4004259
:101CF8000192019A02911A6B42F004021A631B6B5B
:101D080003F004030293029B4FF4A05303930223AE
:101D180004930323069303A906230793FEF7CCFD38
:101D280008B010BD003C00400008024070B50646EF
:101D380088B01422002103A800F02EF93268334B32
:101D48009A4260D1002503F5FA3301951A6C3048A0
:101D5800304C42F400321A641A6C02F400320192D8
:101D6800019A02951A6B42F001021A631B6B03F089
:101D780001030293029B0C2303930223049303237E
:101D8800069303A907230793FEF796FD224BE56008
:101D98004FF0006C4FF0400E84E808504FF4806319
:101DA800236120464FF480336561A561E5612362B4
:101DB8006562FEF737FC08B1FFF764FF3463174824
:101DC800A663174C4FF000634FF4806284E8090063
:101DD800226100234FF480322046A360E3606361F0
:101DE800A361E36122626362FEF71CFC08B1FFF79E
:101DF80049FF0022746326201146A663FEF7BAFB4A
:101E08002620FEF7EBFB08B070BD00BF0044004081
:101E180000000240E4000020A06002408860024008
:101E28002C00002030B5014689B000223620FEF78C
:101E3800A1FB3620FEF7D2FB0025154B02951A6C44
:101E4800144C42F010021A641B6C03F01003029346
:101E580001A903A8029BFFF7A5F8FFF783F80E4B2B
:101E6800236040F2E733E36040000C4BB0FBF3F033
:101E78000138606020462561A560FFF71DFB20B989
:101E88002046FFF7FDF909B030BD0120FBE700BF90
:101E980000380240880100200010004040420F0036
:101EA8007047FEE7FEE7FEE7FEE7704770477047BA
:101EB8000148FEF747BC00BF2C0000200148FEF790
:101EC80041BC00BFE40000200148FFF7FDBB00BF94
:101ED800440100200148FFF7E7B900BF880100204E
:101EE800054BD3F8882042F47002C3F888204FF0DD
:101EF80000629A60704700BF00ED00E0DFF834D060
:101F0800002103E00C4B5B58435004310B480C4B49
:101F180042189A42F6D30B4A02E0002342F8043BE7
:101F2800094B9A42F9D3FFF7DBFF00F011F8FFF7EE
:101F3800C3FD7047000002206C200008000000204C
:101F48000C0000200C000020C8010020FEE7000063
:101F580070B50D4E0D4CA41BA4100025A54209D147
:101F68000B4E0C4C00F020F8A41BA4100025A54231
:101F780005D170BD56F8253098470135EEE756F87B
:101F8800253098470135F2E76420000864200008EE
:101F9800642000086820000802440346934200D1E8
:101FA800704703F8011BF9E7F8B500BFF8BC08BC97
:101FB8009E467047F8B500BFF8BC08BC9E467047FF
:101FC80000061016000610160F0180961180FFB14A
:101FD80003012C2DB203012C2DB306012C2D012C4D
:101FE8002DB40107C003A20284C101C5C2020A00C0
:101FF800C3028A2AC4028AEEC5010E20003601C037
:102008003A0105022A040000007F2B040000007F2B
:1020180004E010021C07123732292D29252B39001C
:10202800010310E110031D07062E2C292D2E2E3733
:102038003F0000021013800A29806400000000009D
:10204800000000010203040607080900000000015F
:04205800020304007B
:08205C009CE1FF7F0100000080
:04206400AD010008C2
:0420680089010008E2
:0C206C0001000000100000000024F4003F
:0400000508001F05CB
:00000001FF
